{
  "contractName": "Owned",
  "abi": [
    {
      "inputs": [
        {
          "internalType": "address",
          "name": "_owner",
          "type": "address"
        }
      ],
      "stateMutability": "nonpayable",
      "type": "constructor"
    },
    {
      "anonymous": false,
      "inputs": [
        {
          "indexed": false,
          "internalType": "address",
          "name": "oldOwner",
          "type": "address"
        },
        {
          "indexed": false,
          "internalType": "address",
          "name": "newOwner",
          "type": "address"
        }
      ],
      "name": "OwnerChanged",
      "type": "event"
    },
    {
      "anonymous": false,
      "inputs": [
        {
          "indexed": false,
          "internalType": "address",
          "name": "newOwner",
          "type": "address"
        }
      ],
      "name": "OwnerNominated",
      "type": "event"
    },
    {
      "inputs": [],
      "name": "nominatedOwner",
      "outputs": [
        {
          "internalType": "address",
          "name": "",
          "type": "address"
        }
      ],
      "stateMutability": "view",
      "type": "function"
    },
    {
      "inputs": [],
      "name": "owner",
      "outputs": [
        {
          "internalType": "address",
          "name": "",
          "type": "address"
        }
      ],
      "stateMutability": "view",
      "type": "function"
    },
    {
      "inputs": [
        {
          "internalType": "address",
          "name": "_owner",
          "type": "address"
        }
      ],
      "name": "nominateNewOwner",
      "outputs": [],
      "stateMutability": "nonpayable",
      "type": "function"
    },
    {
      "inputs": [],
      "name": "acceptOwnership",
      "outputs": [],
      "stateMutability": "nonpayable",
      "type": "function"
    }
  ],
  "bytecode": "0x608060405234801561001057600080fd5b5060405161084f38038061084f83398181016040528101906100329190610137565b600073ffffffffffffffffffffffffffffffffffffffff168173ffffffffffffffffffffffffffffffffffffffff1614156100a2576040517f08c379a0000000000000000000000000000000000000000000000000000000008152600401610099906101d8565b60405180910390fd5b806000806101000a81548173ffffffffffffffffffffffffffffffffffffffff021916908373ffffffffffffffffffffffffffffffffffffffff1602179055507fb532073b38c83145e3e5135377a08bf9aab55bc0fd7c1179cd4fb995d2a5159c6000826040516101149291906101af565b60405180910390a150610252565b6000815190506101318161023b565b92915050565b60006020828403121561014957600080fd5b600061015784828501610122565b91505092915050565b61016981610209565b82525050565b600061017c6019836101f8565b91507f4f776e657220616464726573732063616e6e6f742062652030000000000000006000830152602082019050919050565b60006040820190506101c46000830185610160565b6101d16020830184610160565b9392505050565b600060208201905081810360008301526101f18161016f565b9050919050565b600082825260208201905092915050565b60006102148261021b565b9050919050565b600073ffffffffffffffffffffffffffffffffffffffff82169050919050565b61024481610209565b811461024f57600080fd5b50565b6105ee806102616000396000f3fe608060405234801561001057600080fd5b506004361061004c5760003560e01c80631627540c1461005157806353a47bb71461006d57806379ba50971461008b5780638da5cb5b14610095575b600080fd5b61006b600480360381019061006691906103d6565b6100b3565b005b610075610136565b60405161008291906104da565b60405180910390f35b61009361015c565b005b61009d61030d565b6040516100aa91906104da565b60405180910390f35b6100bb610331565b80600160006101000a81548173ffffffffffffffffffffffffffffffffffffffff021916908373ffffffffffffffffffffffffffffffffffffffff1602179055507f906a1c6bd7e3091ea86693dd029a831c19049ce77f1dce2ce0bab1cacbabce228160405161012b91906104da565b60405180910390a150565b600160009054906101000a900473ffffffffffffffffffffffffffffffffffffffff1681565b600160009054906101000a900473ffffffffffffffffffffffffffffffffffffffff1673ffffffffffffffffffffffffffffffffffffffff163373ffffffffffffffffffffffffffffffffffffffff16146101ec576040517f08c379a00000000000000000000000000000000000000000000000000000000081526004016101e39061051e565b60405180910390fd5b7fb532073b38c83145e3e5135377a08bf9aab55bc0fd7c1179cd4fb995d2a5159c60008054906101000a900473ffffffffffffffffffffffffffffffffffffffff16600160009054906101000a900473ffffffffffffffffffffffffffffffffffffffff1660405161025f9291906104f5565b60405180910390a1600160009054906101000a900473ffffffffffffffffffffffffffffffffffffffff166000806101000a81548173ffffffffffffffffffffffffffffffffffffffff021916908373ffffffffffffffffffffffffffffffffffffffff1602179055506000600160006101000a81548173ffffffffffffffffffffffffffffffffffffffff021916908373ffffffffffffffffffffffffffffffffffffffff160217905550565b60008054906101000a900473ffffffffffffffffffffffffffffffffffffffff1681565b60008054906101000a900473ffffffffffffffffffffffffffffffffffffffff1673ffffffffffffffffffffffffffffffffffffffff163373ffffffffffffffffffffffffffffffffffffffff16146103bf576040517f08c379a00000000000000000000000000000000000000000000000000000000081526004016103b69061053e565b60405180910390fd5b565b6000813590506103d0816105a1565b92915050565b6000602082840312156103e857600080fd5b60006103f6848285016103c1565b91505092915050565b6104088161056f565b82525050565b600061041b60358361055e565b91507f596f75206d757374206265206e6f6d696e61746564206265666f726520796f7560008301527f2063616e20616363657074206f776e65727368697000000000000000000000006020830152604082019050919050565b6000610481602f8361055e565b91507f4f6e6c792074686520636f6e7472616374206f776e6572206d6179207065726660008301527f6f726d207468697320616374696f6e00000000000000000000000000000000006020830152604082019050919050565b60006020820190506104ef60008301846103ff565b92915050565b600060408201905061050a60008301856103ff565b61051760208301846103ff565b9392505050565b600060208201905081810360008301526105378161040e565b9050919050565b6000602082019050818103600083015261055781610474565b9050919050565b600082825260208201905092915050565b600061057a82610581565b9050919050565b600073ffffffffffffffffffffffffffffffffffffffff82169050919050565b6105aa8161056f565b81146105b557600080fd5b5056fea2646970667358221220bd49dfda88659736bd5c7eb978cf11f885c38d0e97e2ff5b4f2044b32bd7c07064736f6c63430008000033",
  "immutableReferences": {},
  "source": "pragma solidity ^0.8.0;\r\n\r\n\r\n// https://docs.synthetix.io/contracts/Owned\r\ncontract Owned {\r\n    address public owner;\r\n    address public nominatedOwner;\r\n\r\n    constructor(address _owner) public {\r\n        require(_owner != address(0), \"Owner address cannot be 0\");\r\n        owner = _owner;\r\n        emit OwnerChanged(address(0), _owner);\r\n    }\r\n\r\n    function nominateNewOwner(address _owner) external onlyOwner {\r\n        nominatedOwner = _owner;\r\n        emit OwnerNominated(_owner);\r\n    }\r\n\r\n    function acceptOwnership() external {\r\n        require(msg.sender == nominatedOwner, \"You must be nominated before you can accept ownership\");\r\n        emit OwnerChanged(owner, nominatedOwner);\r\n        owner = nominatedOwner;\r\n        nominatedOwner = address(0);\r\n    }\r\n\r\n    modifier onlyOwner {\r\n        _onlyOwner();\r\n        _;\r\n    }\r\n\r\n    function _onlyOwner() private view {\r\n        require(msg.sender == owner, \"Only the contract owner may perform this action\");\r\n    }\r\n\r\n    event OwnerNominated(address newOwner);\r\n    event OwnerChanged(address oldOwner, address newOwner);\r\n}",
  "sourcePath": "D:\\fiverr\\marchAngeloh\\Assignment1\\Integrated-pack\\contracts\\Owned.sol",
  "compiler": {
    "name": "solc",
    "version": "0.8.0+commit.c7dfd78e.Emscripten.clang"
  },
  "schemaVersion": "3.3.4",
  "updatedAt": "2021-05-18T15:17:38.075Z",
  "devdoc": {
    "kind": "dev",
    "methods": {},
    "version": 1
  },
  "userdoc": {
    "kind": "user",
    "methods": {},
    "version": 1
  }
}