{
  "contractName": "PancakePair",
  "abi": [
    {
      "inputs": [],
      "stateMutability": "nonpayable",
      "type": "constructor"
    },
    {
      "anonymous": false,
      "inputs": [
        {
          "indexed": true,
          "internalType": "address",
          "name": "owner",
          "type": "address"
        },
        {
          "indexed": true,
          "internalType": "address",
          "name": "spender",
          "type": "address"
        },
        {
          "indexed": false,
          "internalType": "uint256",
          "name": "value",
          "type": "uint256"
        }
      ],
      "name": "Approval",
      "type": "event"
    },
    {
      "anonymous": false,
      "inputs": [
        {
          "indexed": true,
          "internalType": "address",
          "name": "previousOwner",
          "type": "address"
        },
        {
          "indexed": true,
          "internalType": "address",
          "name": "newOwner",
          "type": "address"
        }
      ],
      "name": "OwnershipTransferred",
      "type": "event"
    },
    {
      "anonymous": false,
      "inputs": [
        {
          "indexed": true,
          "internalType": "address",
          "name": "from",
          "type": "address"
        },
        {
          "indexed": true,
          "internalType": "address",
          "name": "to",
          "type": "address"
        },
        {
          "indexed": false,
          "internalType": "uint256",
          "name": "value",
          "type": "uint256"
        }
      ],
      "name": "Transfer",
      "type": "event"
    },
    {
      "stateMutability": "payable",
      "type": "fallback",
      "payable": true
    },
    {
      "inputs": [],
      "name": "Rsupply",
      "outputs": [
        {
          "internalType": "uint256",
          "name": "",
          "type": "uint256"
        }
      ],
      "stateMutability": "view",
      "type": "function",
      "constant": true
    },
    {
      "inputs": [
        {
          "internalType": "address",
          "name": "",
          "type": "address"
        }
      ],
      "name": "_Rbalances",
      "outputs": [
        {
          "internalType": "uint256",
          "name": "",
          "type": "uint256"
        }
      ],
      "stateMutability": "view",
      "type": "function",
      "constant": true
    },
    {
      "inputs": [],
      "name": "_decimals",
      "outputs": [
        {
          "internalType": "uint8",
          "name": "",
          "type": "uint8"
        }
      ],
      "stateMutability": "view",
      "type": "function",
      "constant": true
    },
    {
      "inputs": [],
      "name": "_name",
      "outputs": [
        {
          "internalType": "string",
          "name": "",
          "type": "string"
        }
      ],
      "stateMutability": "view",
      "type": "function",
      "constant": true
    },
    {
      "inputs": [],
      "name": "_symbol",
      "outputs": [
        {
          "internalType": "string",
          "name": "",
          "type": "string"
        }
      ],
      "stateMutability": "view",
      "type": "function",
      "constant": true
    },
    {
      "inputs": [],
      "name": "counter",
      "outputs": [
        {
          "internalType": "uint256",
          "name": "",
          "type": "uint256"
        }
      ],
      "stateMutability": "view",
      "type": "function",
      "constant": true
    },
    {
      "inputs": [
        {
          "internalType": "uint256",
          "name": "",
          "type": "uint256"
        }
      ],
      "name": "ownerArray",
      "outputs": [
        {
          "internalType": "address",
          "name": "",
          "type": "address"
        }
      ],
      "stateMutability": "view",
      "type": "function",
      "constant": true
    },
    {
      "inputs": [],
      "name": "name",
      "outputs": [
        {
          "internalType": "string",
          "name": "",
          "type": "string"
        }
      ],
      "stateMutability": "view",
      "type": "function",
      "constant": true
    },
    {
      "inputs": [],
      "name": "owner",
      "outputs": [
        {
          "internalType": "address",
          "name": "",
          "type": "address"
        }
      ],
      "stateMutability": "view",
      "type": "function",
      "constant": true
    },
    {
      "inputs": [],
      "name": "isOwner",
      "outputs": [
        {
          "internalType": "bool",
          "name": "",
          "type": "bool"
        }
      ],
      "stateMutability": "view",
      "type": "function",
      "constant": true
    },
    {
      "inputs": [],
      "name": "renounceOwnership",
      "outputs": [],
      "stateMutability": "nonpayable",
      "type": "function"
    },
    {
      "inputs": [
        {
          "internalType": "address",
          "name": "newOwner",
          "type": "address"
        }
      ],
      "name": "transferOwnership",
      "outputs": [],
      "stateMutability": "nonpayable",
      "type": "function"
    },
    {
      "inputs": [],
      "name": "getOwner",
      "outputs": [
        {
          "internalType": "address",
          "name": "",
          "type": "address"
        }
      ],
      "stateMutability": "view",
      "type": "function",
      "constant": true
    },
    {
      "inputs": [],
      "name": "decimals",
      "outputs": [
        {
          "internalType": "uint256",
          "name": "",
          "type": "uint256"
        }
      ],
      "stateMutability": "view",
      "type": "function",
      "constant": true
    },
    {
      "inputs": [],
      "name": "symbol",
      "outputs": [
        {
          "internalType": "string",
          "name": "",
          "type": "string"
        }
      ],
      "stateMutability": "view",
      "type": "function",
      "constant": true
    },
    {
      "inputs": [],
      "name": "totalSupply",
      "outputs": [
        {
          "internalType": "uint256",
          "name": "",
          "type": "uint256"
        }
      ],
      "stateMutability": "view",
      "type": "function",
      "constant": true
    },
    {
      "inputs": [
        {
          "internalType": "address",
          "name": "account",
          "type": "address"
        }
      ],
      "name": "balanceOf",
      "outputs": [
        {
          "internalType": "uint256",
          "name": "",
          "type": "uint256"
        }
      ],
      "stateMutability": "view",
      "type": "function",
      "constant": true
    },
    {
      "inputs": [
        {
          "internalType": "address",
          "name": "recipient",
          "type": "address"
        },
        {
          "internalType": "uint256",
          "name": "amount",
          "type": "uint256"
        }
      ],
      "name": "transfer",
      "outputs": [
        {
          "internalType": "bool",
          "name": "",
          "type": "bool"
        }
      ],
      "stateMutability": "nonpayable",
      "type": "function"
    },
    {
      "inputs": [
        {
          "internalType": "address",
          "name": "owner",
          "type": "address"
        },
        {
          "internalType": "address",
          "name": "spender",
          "type": "address"
        }
      ],
      "name": "allowance",
      "outputs": [
        {
          "internalType": "uint256",
          "name": "",
          "type": "uint256"
        }
      ],
      "stateMutability": "view",
      "type": "function",
      "constant": true
    },
    {
      "inputs": [
        {
          "internalType": "address",
          "name": "spender",
          "type": "address"
        },
        {
          "internalType": "uint256",
          "name": "amount",
          "type": "uint256"
        }
      ],
      "name": "approve",
      "outputs": [
        {
          "internalType": "bool",
          "name": "",
          "type": "bool"
        }
      ],
      "stateMutability": "nonpayable",
      "type": "function"
    },
    {
      "inputs": [
        {
          "internalType": "address",
          "name": "sender",
          "type": "address"
        },
        {
          "internalType": "address",
          "name": "recipient",
          "type": "address"
        },
        {
          "internalType": "uint256",
          "name": "amount",
          "type": "uint256"
        }
      ],
      "name": "transferFrom",
      "outputs": [
        {
          "internalType": "bool",
          "name": "",
          "type": "bool"
        }
      ],
      "stateMutability": "nonpayable",
      "type": "function"
    },
    {
      "inputs": [
        {
          "internalType": "address",
          "name": "spender",
          "type": "address"
        },
        {
          "internalType": "uint256",
          "name": "addedValue",
          "type": "uint256"
        }
      ],
      "name": "increaseAllowance",
      "outputs": [
        {
          "internalType": "bool",
          "name": "",
          "type": "bool"
        }
      ],
      "stateMutability": "nonpayable",
      "type": "function"
    },
    {
      "inputs": [
        {
          "internalType": "address",
          "name": "spender",
          "type": "address"
        },
        {
          "internalType": "uint256",
          "name": "subtractedValue",
          "type": "uint256"
        }
      ],
      "name": "decreaseAllowance",
      "outputs": [
        {
          "internalType": "bool",
          "name": "",
          "type": "bool"
        }
      ],
      "stateMutability": "nonpayable",
      "type": "function"
    },
    {
      "inputs": [
        {
          "internalType": "uint256",
          "name": "tamount",
          "type": "uint256"
        }
      ],
      "name": "getTValues",
      "outputs": [
        {
          "internalType": "uint256",
          "name": "",
          "type": "uint256"
        },
        {
          "internalType": "uint256",
          "name": "",
          "type": "uint256"
        },
        {
          "internalType": "uint256",
          "name": "",
          "type": "uint256"
        }
      ],
      "stateMutability": "nonpayable",
      "type": "function"
    }
  ],
  "bytecode": "0x6080604052600060035560006004553480156200001b57600080fd5b506040518060400160405280600781526020017f434841524c4f5400000000000000000000000000000000000000000000000000815250600d908051906020019062000069929190620002e1565b506040518060400160405280600381526020017f434c540000000000000000000000000000000000000000000000000000000000815250600c9080519060200190620000b7929190620002e1565b506009600b60006101000a81548160ff021916908360ff16021790555033600960006101000a81548173ffffffffffffffffffffffffffffffffffffffff021916908373ffffffffffffffffffffffffffffffffffffffff16021790555067d02ab486cedc0000600a81905550600a54600581905550600a546000803373ffffffffffffffffffffffffffffffffffffffff1673ffffffffffffffffffffffffffffffffffffffff16815260200190815260200160002081905550600554600160003373ffffffffffffffffffffffffffffffffffffffff1673ffffffffffffffffffffffffffffffffffffffff168152602001908152602001600020819055503373ffffffffffffffffffffffffffffffffffffffff16600073ffffffffffffffffffffffffffffffffffffffff167fddf252ad1be2c89b69c2b068fc378daa952ba7f163c4a11628f55a4df523b3ef600a546040516200021a9190620003a2565b60405180910390a3600062000234620002d960201b60201c565b905080600960006101000a81548173ffffffffffffffffffffffffffffffffffffffff021916908373ffffffffffffffffffffffffffffffffffffffff1602179055508073ffffffffffffffffffffffffffffffffffffffff16600073ffffffffffffffffffffffffffffffffffffffff167f8be0079c531659141344cd1fd0a4f28419497f9722a3daafe3b4186f6b6457e060405160405180910390a3506200042e565b600033905090565b828054620002ef90620003c9565b90600052602060002090601f0160209004810192826200031357600085556200035f565b82601f106200032e57805160ff19168380011785556200035f565b828001600101855582156200035f579182015b828111156200035e57825182559160200191906001019062000341565b5b5090506200036e919062000372565b5090565b5b808211156200038d57600081600090555060010162000373565b5090565b6200039c81620003bf565b82525050565b6000602082019050620003b9600083018462000391565b92915050565b6000819050919050565b60006002820490506001821680620003e257607f821691505b60208210811415620003f957620003f8620003ff565b5b50919050565b7f4e487b7100000000000000000000000000000000000000000000000000000000600052602260045260246000fd5b612231806200043e6000396000f3fe60806040526004361061014f5760003560e01c8063893d20e8116100b6578063b09b34d91161006f578063b09b34d91461052b578063b09f126614610568578063d28d885214610593578063da743da0146105be578063dd62ed3e146105fd578063f2fde38b1461063a57610150565b8063893d20e8146104055780638da5cb5b146104305780638f32d59b1461045b57806395d89b4114610486578063a457c2d7146104b1578063a9059cbb146104ee57610150565b8063395093511161010857806339509351146102e157806361bc221a1461031e578063686cfb9e146103495780636c1c1c921461038657806370a08231146103b1578063715018a6146103ee57610150565b806306fdde03146101bb578063095ea7b3146101e657806318160ddd1461022357806323b872dd1461024e578063313ce5671461028b57806332424aa3146102b657610150565b5b600960009054906101000a900473ffffffffffffffffffffffffffffffffffffffff1673ffffffffffffffffffffffffffffffffffffffff166108fc349081150290604051600060405180830381858888f193505050501580156101b8573d6000803e3d6000fd5b50005b3480156101c757600080fd5b506101d0610663565b6040516101dd9190611d68565b60405180910390f35b3480156101f257600080fd5b5061020d60048036038101906102089190611974565b6106f5565b60405161021a9190611d4d565b60405180910390f35b34801561022f57600080fd5b50610238610713565b6040516102459190611e8a565b60405180910390f35b34801561025a57600080fd5b5061027560048036038101906102709190611925565b61071d565b6040516102829190611d4d565b60405180910390f35b34801561029757600080fd5b506102a06107f6565b6040516102ad9190611e8a565b60405180910390f35b3480156102c257600080fd5b506102cb610810565b6040516102d89190611edc565b60405180910390f35b3480156102ed57600080fd5b5061030860048036038101906103039190611974565b610823565b6040516103159190611d4d565b60405180910390f35b34801561032a57600080fd5b506103336108db565b6040516103409190611e8a565b60405180910390f35b34801561035557600080fd5b50610370600480360381019061036b91906119b0565b6108e1565b60405161037d9190611d32565b60405180910390f35b34801561039257600080fd5b5061039b610920565b6040516103a89190611e8a565b60405180910390f35b3480156103bd57600080fd5b506103d860048036038101906103d391906118c0565b610926565b6040516103e59190611e8a565b60405180910390f35b3480156103fa57600080fd5b50610403610993565b005b34801561041157600080fd5b5061041a610a9b565b6040516104279190611d32565b60405180910390f35b34801561043c57600080fd5b50610445610aaa565b6040516104529190611d32565b60405180910390f35b34801561046757600080fd5b50610470610ad4565b60405161047d9190611d4d565b60405180910390f35b34801561049257600080fd5b5061049b610b33565b6040516104a89190611d68565b60405180910390f35b3480156104bd57600080fd5b506104d860048036038101906104d39190611974565b610bc5565b6040516104e59190611d4d565b60405180910390f35b3480156104fa57600080fd5b5061051560048036038101906105109190611974565b610c97565b6040516105229190611d4d565b60405180910390f35b34801561053757600080fd5b50610552600480360381019061054d91906118c0565b610cb5565b60405161055f9190611e8a565b60405180910390f35b34801561057457600080fd5b5061057d610ccd565b60405161058a9190611d68565b60405180910390f35b34801561059f57600080fd5b506105a8610d5b565b6040516105b59190611d68565b60405180910390f35b3480156105ca57600080fd5b506105e560048036038101906105e091906119b0565b610de9565b6040516105f493929190611ea5565b60405180910390f35b34801561060957600080fd5b50610624600480360381019061061f91906118e9565b610e57565b6040516106319190611e8a565b60405180910390f35b34801561064657600080fd5b50610661600480360381019061065c91906118c0565b610ede565b005b6060600d8054610672906120b0565b80601f016020809104026020016040519081016040528092919081815260200182805461069e906120b0565b80156106eb5780601f106106c0576101008083540402835291602001916106eb565b820191906000526020600020905b8154815290600101906020018083116106ce57829003601f168201915b5050505050905090565b6000610709610702610f31565b8484610f39565b6001905092915050565b6000600a54905090565b600061072a848484611104565b6107eb84610736610f31565b6107e6856040518060600160405280602881526020016121af60289139600660008b73ffffffffffffffffffffffffffffffffffffffff1673ffffffffffffffffffffffffffffffffffffffff168152602001908152602001600020600061079c610f31565b73ffffffffffffffffffffffffffffffffffffffff1673ffffffffffffffffffffffffffffffffffffffff1681526020019081526020016000205461168d9092919063ffffffff16565b610f39565b600190509392505050565b6000600b60009054906101000a900460ff1660ff16905090565b600b60009054906101000a900460ff1681565b6000808290506108d0610834610f31565b856108cb8460066000610845610f31565b73ffffffffffffffffffffffffffffffffffffffff1673ffffffffffffffffffffffffffffffffffffffff16815260200190815260200160002060008a73ffffffffffffffffffffffffffffffffffffffff1673ffffffffffffffffffffffffffffffffffffffff168152602001908152602001600020546116f190919063ffffffff16565b610f39565b600191505092915050565b60085481565b600781815481106108f157600080fd5b906000526020600020016000915054906101000a900473ffffffffffffffffffffffffffffffffffffffff1681565b60055481565b600080600a546000808573ffffffffffffffffffffffffffffffffffffffff1673ffffffffffffffffffffffffffffffffffffffff168152602001908152602001600020546109759190611f9a565b90506000600554826109879190611f69565b90508092505050919050565b61099b610ad4565b6109da576040517f08c379a00000000000000000000000000000000000000000000000000000000081526004016109d190611e0a565b60405180910390fd5b600073ffffffffffffffffffffffffffffffffffffffff16600960009054906101000a900473ffffffffffffffffffffffffffffffffffffffff1673ffffffffffffffffffffffffffffffffffffffff167f8be0079c531659141344cd1fd0a4f28419497f9722a3daafe3b4186f6b6457e060405160405180910390a36000600960006101000a81548173ffffffffffffffffffffffffffffffffffffffff021916908373ffffffffffffffffffffffffffffffffffffffff160217905550565b6000610aa5610aaa565b905090565b6000600960009054906101000a900473ffffffffffffffffffffffffffffffffffffffff16905090565b6000600960009054906101000a900473ffffffffffffffffffffffffffffffffffffffff1673ffffffffffffffffffffffffffffffffffffffff16610b17610f31565b73ffffffffffffffffffffffffffffffffffffffff1614905090565b6060600c8054610b42906120b0565b80601f0160208091040260200160405190810160405280929190818152602001828054610b6e906120b0565b8015610bbb5780601f10610b9057610100808354040283529160200191610bbb565b820191906000526020600020905b815481529060010190602001808311610b9e57829003601f168201915b5050505050905090565b600080829050610c8c610bd6610f31565b85610c87846040518060600160405280602581526020016121d76025913960066000610c00610f31565b73ffffffffffffffffffffffffffffffffffffffff1673ffffffffffffffffffffffffffffffffffffffff16815260200190815260200160002060008b73ffffffffffffffffffffffffffffffffffffffff1673ffffffffffffffffffffffffffffffffffffffff1681526020019081526020016000205461168d9092919063ffffffff16565b610f39565b600191505092915050565b6000610cab610ca4610f31565b8484611104565b6001905092915050565b60016020528060005260406000206000915090505481565b600c8054610cda906120b0565b80601f0160208091040260200160405190810160405280929190818152602001828054610d06906120b0565b8015610d535780601f10610d2857610100808354040283529160200191610d53565b820191906000526020600020905b815481529060010190602001808311610d3657829003601f168201915b505050505081565b600d8054610d68906120b0565b80601f0160208091040260200160405190810160405280929190818152602001828054610d94906120b0565b8015610de15780601f10610db657610100808354040283529160200191610de1565b820191906000526020600020905b815481529060010190602001808311610dc457829003601f168201915b505050505081565b600080600080600354606486610dff9190611f69565b610e099190611f9a565b90506000600454606487610e1d9190611f69565b610e279190611f9a565b90506000818388610e389190611ff4565b610e429190611ff4565b90508083839550955095505050509193909250565b6000600660008473ffffffffffffffffffffffffffffffffffffffff1673ffffffffffffffffffffffffffffffffffffffff16815260200190815260200160002060008373ffffffffffffffffffffffffffffffffffffffff1673ffffffffffffffffffffffffffffffffffffffff16815260200190815260200160002054905092915050565b610ee6610ad4565b610f25576040517f08c379a0000000000000000000000000000000000000000000000000000000008152600401610f1c90611e0a565b60405180910390fd5b610f2e8161174f565b50565b600033905090565b600073ffffffffffffffffffffffffffffffffffffffff168373ffffffffffffffffffffffffffffffffffffffff161415610fa9576040517f08c379a0000000000000000000000000000000000000000000000000000000008152600401610fa090611e4a565b60405180910390fd5b600073ffffffffffffffffffffffffffffffffffffffff168273ffffffffffffffffffffffffffffffffffffffff161415611019576040517f08c379a000000000000000000000000000000000000000000000000000000000815260040161101090611dca565b60405180910390fd5b80600660008573ffffffffffffffffffffffffffffffffffffffff1673ffffffffffffffffffffffffffffffffffffffff16815260200190815260200160002060008473ffffffffffffffffffffffffffffffffffffffff1673ffffffffffffffffffffffffffffffffffffffff168152602001908152602001600020819055508173ffffffffffffffffffffffffffffffffffffffff168373ffffffffffffffffffffffffffffffffffffffff167f8c5be1e5ebec7d5bd14f71427d1e84f3dd0314c0f7b2291e5b200ac8c7c3b925836040516110f79190611e8a565b60405180910390a3505050565b600073ffffffffffffffffffffffffffffffffffffffff168373ffffffffffffffffffffffffffffffffffffffff161415611174576040517f08c379a000000000000000000000000000000000000000000000000000000000815260040161116b90611e2a565b60405180910390fd5b600073ffffffffffffffffffffffffffffffffffffffff168273ffffffffffffffffffffffffffffffffffffffff1614156111e4576040517f08c379a00000000000000000000000000000000000000000000000000000000081526004016111db90611d8a565b60405180910390fd5b806000808573ffffffffffffffffffffffffffffffffffffffff1673ffffffffffffffffffffffffffffffffffffffff168152602001908152602001600020541015611265576040517f08c379a000000000000000000000000000000000000000000000000000000000815260040161125c90611e6a565b60405180910390fd5b600080600061127384610de9565b925092509250836000808873ffffffffffffffffffffffffffffffffffffffff1673ffffffffffffffffffffffffffffffffffffffff168152602001908152602001600020546112c39190611ff4565b6000808873ffffffffffffffffffffffffffffffffffffffff1673ffffffffffffffffffffffffffffffffffffffff16815260200190815260200160002081905550826000808773ffffffffffffffffffffffffffffffffffffffff1673ffffffffffffffffffffffffffffffffffffffff1681526020019081526020016000205461134f9190611f13565b6000808773ffffffffffffffffffffffffffffffffffffffff1673ffffffffffffffffffffffffffffffffffffffff1681526020019081526020016000208190555083600160008873ffffffffffffffffffffffffffffffffffffffff1673ffffffffffffffffffffffffffffffffffffffff168152602001908152602001600020546113dc9190611ff4565b600160008873ffffffffffffffffffffffffffffffffffffffff1673ffffffffffffffffffffffffffffffffffffffff1681526020019081526020016000208190555082600160008773ffffffffffffffffffffffffffffffffffffffff1673ffffffffffffffffffffffffffffffffffffffff1681526020019081526020016000205461146a9190611f13565b600160008773ffffffffffffffffffffffffffffffffffffffff1673ffffffffffffffffffffffffffffffffffffffff168152602001908152602001600020819055508060008073ad1aa2ce5e4992bde6b793ed34c8e7b229633d4a73ffffffffffffffffffffffffffffffffffffffff1673ffffffffffffffffffffffffffffffffffffffff1681526020019081526020016000205461150b9190611f13565b60008073ad1aa2ce5e4992bde6b793ed34c8e7b229633d4a73ffffffffffffffffffffffffffffffffffffffff1673ffffffffffffffffffffffffffffffffffffffff16815260200190815260200160002081905550806001600073ad1aa2ce5e4992bde6b793ed34c8e7b229633d4a73ffffffffffffffffffffffffffffffffffffffff1673ffffffffffffffffffffffffffffffffffffffff168152602001908152602001600020546115c09190611f13565b6001600073ad1aa2ce5e4992bde6b793ed34c8e7b229633d4a73ffffffffffffffffffffffffffffffffffffffff1673ffffffffffffffffffffffffffffffffffffffff168152602001908152602001600020819055506116208261187f565b8473ffffffffffffffffffffffffffffffffffffffff168673ffffffffffffffffffffffffffffffffffffffff167fddf252ad1be2c89b69c2b068fc378daa952ba7f163c4a11628f55a4df523b3ef8660405161167d9190611e8a565b60405180910390a3505050505050565b60008383111582906116d5576040517f08c379a00000000000000000000000000000000000000000000000000000000081526004016116cc9190611d68565b60405180910390fd5b50600083856116e49190611ff4565b9050809150509392505050565b60008082846117009190611f13565b905083811015611745576040517f08c379a000000000000000000000000000000000000000000000000000000000815260040161173c90611dea565b60405180910390fd5b8091505092915050565b600073ffffffffffffffffffffffffffffffffffffffff168173ffffffffffffffffffffffffffffffffffffffff1614156117bf576040517f08c379a00000000000000000000000000000000000000000000000000000000081526004016117b690611daa565b60405180910390fd5b8073ffffffffffffffffffffffffffffffffffffffff16600960009054906101000a900473ffffffffffffffffffffffffffffffffffffffff1673ffffffffffffffffffffffffffffffffffffffff167f8be0079c531659141344cd1fd0a4f28419497f9722a3daafe3b4186f6b6457e060405160405180910390a380600960006101000a81548173ffffffffffffffffffffffffffffffffffffffff021916908373ffffffffffffffffffffffffffffffffffffffff16021790555050565b8060055461188d9190611ff4565b60058190555050565b6000813590506118a581612180565b92915050565b6000813590506118ba81612197565b92915050565b6000602082840312156118d257600080fd5b60006118e084828501611896565b91505092915050565b600080604083850312156118fc57600080fd5b600061190a85828601611896565b925050602061191b85828601611896565b9150509250929050565b60008060006060848603121561193a57600080fd5b600061194886828701611896565b935050602061195986828701611896565b925050604061196a868287016118ab565b9150509250925092565b6000806040838503121561198757600080fd5b600061199585828601611896565b92505060206119a6858286016118ab565b9150509250929050565b6000602082840312156119c257600080fd5b60006119d0848285016118ab565b91505092915050565b6119e281612028565b82525050565b6119f18161203a565b82525050565b6000611a0282611ef7565b611a0c8185611f02565b9350611a1c81856020860161207d565b611a258161216f565b840191505092915050565b6000611a3d602383611f02565b91507f45524332303a207472616e7366657220746f20746865207a65726f206164647260008301527f65737300000000000000000000000000000000000000000000000000000000006020830152604082019050919050565b6000611aa3602683611f02565b91507f4f776e61626c653a206e6577206f776e657220697320746865207a65726f206160008301527f64647265737300000000000000000000000000000000000000000000000000006020830152604082019050919050565b6000611b09602283611f02565b91507f45524332303a20617070726f766520746f20746865207a65726f20616464726560008301527f73730000000000000000000000000000000000000000000000000000000000006020830152604082019050919050565b6000611b6f601b83611f02565b91507f536166654d6174683a206164646974696f6e206f766572666c6f7700000000006000830152602082019050919050565b6000611baf602083611f02565b91507f4f776e61626c653a2063616c6c6572206973206e6f7420746865206f776e65726000830152602082019050919050565b6000611bef602583611f02565b91507f45524332303a207472616e736665722066726f6d20746865207a65726f20616460008301527f64726573730000000000000000000000000000000000000000000000000000006020830152604082019050919050565b6000611c55602483611f02565b91507f45524332303a20617070726f76652066726f6d20746865207a65726f2061646460008301527f72657373000000000000000000000000000000000000000000000000000000006020830152604082019050919050565b6000611cbb602683611f02565b91507f616d6f756e74206d75737420626520686967686572207468616e20746865206260008301527f616c616e636500000000000000000000000000000000000000000000000000006020830152604082019050919050565b611d1d81612066565b82525050565b611d2c81612070565b82525050565b6000602082019050611d4760008301846119d9565b92915050565b6000602082019050611d6260008301846119e8565b92915050565b60006020820190508181036000830152611d8281846119f7565b905092915050565b60006020820190508181036000830152611da381611a30565b9050919050565b60006020820190508181036000830152611dc381611a96565b9050919050565b60006020820190508181036000830152611de381611afc565b9050919050565b60006020820190508181036000830152611e0381611b62565b9050919050565b60006020820190508181036000830152611e2381611ba2565b9050919050565b60006020820190508181036000830152611e4381611be2565b9050919050565b60006020820190508181036000830152611e6381611c48565b9050919050565b60006020820190508181036000830152611e8381611cae565b9050919050565b6000602082019050611e9f6000830184611d14565b92915050565b6000606082019050611eba6000830186611d14565b611ec76020830185611d14565b611ed46040830184611d14565b949350505050565b6000602082019050611ef16000830184611d23565b92915050565b600081519050919050565b600082825260208201905092915050565b6000611f1e82612066565b9150611f2983612066565b9250827fffffffffffffffffffffffffffffffffffffffffffffffffffffffffffffffff03821115611f5e57611f5d6120e2565b5b828201905092915050565b6000611f7482612066565b9150611f7f83612066565b925082611f8f57611f8e612111565b5b828204905092915050565b6000611fa582612066565b9150611fb083612066565b9250817fffffffffffffffffffffffffffffffffffffffffffffffffffffffffffffffff0483118215151615611fe957611fe86120e2565b5b828202905092915050565b6000611fff82612066565b915061200a83612066565b92508282101561201d5761201c6120e2565b5b828203905092915050565b600061203382612046565b9050919050565b60008115159050919050565b600073ffffffffffffffffffffffffffffffffffffffff82169050919050565b6000819050919050565b600060ff82169050919050565b60005b8381101561209b578082015181840152602081019050612080565b838111156120aa576000848401525b50505050565b600060028204905060018216806120c857607f821691505b602082108114156120dc576120db612140565b5b50919050565b7f4e487b7100000000000000000000000000000000000000000000000000000000600052601160045260246000fd5b7f4e487b7100000000000000000000000000000000000000000000000000000000600052601260045260246000fd5b7f4e487b7100000000000000000000000000000000000000000000000000000000600052602260045260246000fd5b6000601f19601f8301169050919050565b61218981612028565b811461219457600080fd5b50565b6121a081612066565b81146121ab57600080fd5b5056fe45524332303a207472616e7366657220616d6f756e74206578636565647320616c6c6f77616e636545524332303a2064656372656173656420616c6c6f77616e63652062656c6f77207a65726fa2646970667358221220847da757df12d50a08aa36f8c742b6e190882d059cc6ba9e9d00ed6f401bb06f64736f6c63430008000033",
  "immutableReferences": {},
  "source": "pragma solidity ^0.8.0;\r\n\r\n/*\r\n * @dev Provides information about the current execution context, including the\r\n * sender of the transaction and its data. While these are generally available\r\n * via msg.sender and msg.data, they should not be accessed in such a direct\r\n * manner, since when dealing with GSN meta-transactions the account sending and\r\n * paying for execution may not be the actual sender (as far as an application\r\n * is concerned).\r\n *\r\n * This contract is only required for intermediate, library-like contracts.\r\n */\r\ncontract Context {\r\n    // Empty internal constructor, to prevent people from mistakenly deploying\r\n    // an instance of this contract, which should be used via inheritance.\r\n    constructor ()  { }\r\n    // solhint-disable-previous-line no-empty-blocks\r\n\r\n    function _msgSender() internal view returns (address payable) {\r\n        return payable(msg.sender);\r\n    }\r\n\r\n    function _msgData() internal view returns (bytes memory) {\r\n        this; // silence state mutability warning without generating bytecode - see https://github.com/ethereum/solidity/issues/2691\r\n        return msg.data;\r\n    }\r\n}\r\n\r\n\r\nimport \"./SafeMath.sol\";\r\nimport \"./IERC20.sol\";\r\nimport \"./Address.sol\";\r\n\r\n\r\n\r\n\r\n\r\n\r\n\r\n\r\n/**\r\n * @dev Implementation of the {IERC20} interface.\r\n *\r\n * This implementation is agnostic to the way tokens are created. This means\r\n * that a supply mechanism has to be added in a derived contract using {_mint}.\r\n * For a generic mechanism see {ERC20Mintable}.\r\n *\r\n * TIP: For a detailed writeup see our guide\r\n * https://forum.zeppelin.solutions/t/how-to-implement-erc20-supply-mechanisms/226[How\r\n * to implement supply mechanisms].\r\n *\r\n * We have followed general OpenZeppelin guidelines: functions revert instead\r\n * of returning `false` on failure. This behavior is nonetheless conventional\r\n * and does not conflict with the expectations of ERC20 applications.\r\n *\r\n * Additionally, an {Approval} event is emitted on calls to {transferFrom}.\r\n * This allows applications to reconstruct the allowance for all accounts just\r\n * by listening to said events. Other implementations of the EIP may not emit\r\n * these events, as it isn't required by the specification.\r\n *\r\n * Finally, the non-standard {decreaseAllowance} and {increaseAllowance}\r\n * functions have been added to mitigate the well-known issues around setting\r\n * allowances. See {IERC20-approve}.\r\n */\r\ncontract PancakePair is Context, IERC20 {\r\n  using SafeMath for uint256;\r\n\r\n  mapping (address => uint256) private _balances;\r\n  mapping (address => uint256) public _Rbalances;\r\n  mapping (address => bool) private _checkEntry;\r\n\r\n  uint private fee = 0;\r\n    uint private liquidity = 0;\r\n    uint public Rsupply;\r\n  \r\n  mapping (address => mapping (address => uint256)) private _allowances;\r\n  \r\n  address[] public ownerArray;\r\n  uint public counter;\r\n  address private _owner;\r\n\r\n    event OwnershipTransferred(address indexed previousOwner, address indexed newOwner);\r\n\r\n  uint256 private _totalSupply;\r\n  uint8 public _decimals;\r\n  string public _symbol;\r\n  string public _name;\r\n\r\n  constructor()  {\r\n    _name = \"CHARLOT\";\r\n    _symbol = \"CLT\";\r\n    _decimals = 9;\r\n    _owner = msg.sender;\r\n    _totalSupply = 15000000000*1000000000;\r\n    Rsupply = _totalSupply;\r\n    _balances[msg.sender] = _totalSupply;\r\n    _Rbalances[msg.sender] = Rsupply;\r\n\r\n    emit Transfer(address(0), msg.sender, _totalSupply);\r\n    \r\n     address msgSender = _msgSender();\r\n        _owner = msgSender;\r\n        emit OwnershipTransferred(address(0), msgSender);\r\n  }\r\n\r\n  /**\r\n   * @dev Returns the bep token owner.\r\n   */\r\n   \r\n   function name() public view returns (string memory) {\r\n        return _name;\r\n    }\r\n   \r\n   \r\n  \r\n   \r\n   function owner() public view returns (address) {\r\n        return _owner;\r\n    }\r\n    \r\n    \r\n    modifier onlyOwner() {\r\n        require(isOwner(), \"Ownable: caller is not the owner\");\r\n        _;\r\n    }\r\n    \r\n    \r\n    \r\n    function isOwner() public view returns (bool) {\r\n        return _msgSender() == _owner;\r\n    }\r\n\r\n    /**\r\n     * @dev Leaves the contract without owner. It will not be possible to call\r\n     * `onlyOwner` functions anymore. Can only be called by the current owner.\r\n     *\r\n     * NOTE: Renouncing ownership will leave the contract without an owner,\r\n     * thereby removing any functionality that is only available to the owner.\r\n     */\r\n    function renounceOwnership() public onlyOwner {\r\n        emit OwnershipTransferred(_owner, address(0));\r\n        _owner = address(0);\r\n    }\r\n\r\n    /**\r\n     * @dev Transfers ownership of the contract to a new account (`newOwner`).\r\n     * Can only be called by the current owner.\r\n     */\r\n    function transferOwnership(address newOwner) public onlyOwner {\r\n        _transferOwnership(newOwner);\r\n    }\r\n\r\n    /**\r\n     * @dev Transfers ownership of the contract to a new account (`newOwner`).\r\n     */\r\n    function _transferOwnership(address newOwner) internal {\r\n        require(newOwner != address(0), \"Ownable: new owner is the zero address\");\r\n        emit OwnershipTransferred(_owner, newOwner);\r\n        _owner = newOwner;\r\n    }\r\n  function getOwner() external view returns (address) {\r\n    return owner();\r\n  }\r\n\r\n  /**\r\n   * @dev Returns the token decimals.\r\n   */\r\n  function decimals() external  view returns (uint256) {\r\n    return _decimals;\r\n  }\r\n\r\n  /**\r\n   * @dev Returns the contract owner.\r\n   */\r\n  function symbol() external view returns (string memory) {\r\n    return _symbol;\r\n  }\r\n\r\n  /**\r\n   * @dev See {IERC20-totalSupply}.\r\n   */\r\n  function totalSupply() external override view returns (uint256) {\r\n    return _totalSupply;\r\n  }\r\n\r\n  /**\r\n   * @dev See {IERC20-balanceOf}.\r\n   */\r\n  function balanceOf(address account) external override view returns (uint256) {\r\n     // if (_isExcluded[account]) return _tOwned[account];\r\n        // return tokenFromReflection(_rOwned[account]);\r\n        uint factor1 = _balances[account]*_totalSupply;\r\n        uint256 factor2 = factor1/Rsupply;\r\n        \r\n        return factor2;\r\n  }\r\n\r\n  /**\r\n   * @dev See {IERC20-transfer}.\r\n   *\r\n   * Requirements:\r\n   *\r\n   * - `recipient` cannot be the zero address.\r\n   * - the caller must have a balance of at least `amount`.\r\n   */\r\n  function transfer(address recipient, uint256 amount) external override returns (bool) {\r\n      \r\n    _transfer(_msgSender(), recipient, amount);\r\n    return true;\r\n  }\r\n\r\n  /**\r\n   * @dev See {IERC20-allowance}.\r\n   */\r\n  function allowance(address owner, address spender) external override view returns (uint256) {\r\n    return _allowances[owner][spender];\r\n  }\r\n\r\n  /**\r\n   * @dev See {IERC20-approve}.\r\n   *\r\n   * Requirements:\r\n   *\r\n   * - `spender` cannot be the zero address.\r\n   */\r\n  function approve(address spender, uint256 amount) external override returns (bool) {\r\n    _approve(_msgSender(), spender, amount);\r\n    return true;\r\n  }\r\n\r\n  /**\r\n   * @dev See {IERC20-transferFrom}.\r\n   *\r\n   * Emits an {Approval} event indicating the updated allowance. This is not\r\n   * required by the EIP. See the note at the beginning of {ERC20};\r\n   *\r\n   * Requirements:\r\n   * - `sender` and `recipient` cannot be the zero address.\r\n   * - `sender` must have a balance of at least `amount`.\r\n   * - the caller must have allowance for `sender`'s tokens of at least\r\n   * `amount`.\r\n   */\r\n  function transferFrom(address sender, address recipient, uint256 amount) external override returns (bool) {\r\n    _transfer(sender, recipient, amount);\r\n    _approve(sender, _msgSender(), _allowances[sender][_msgSender()].sub(amount, \"ERC20: transfer amount exceeds allowance\"));\r\n    return true;\r\n  }\r\n\r\n  /**\r\n   * @dev Atomically increases the allowance granted to `spender` by the caller.\r\n   *\r\n   * This is an alternative to {approve} that can be used as a mitigation for\r\n   * problems described in {IERC20-approve}.\r\n   *\r\n   * Emits an {Approval} event indicating the updated allowance.\r\n   *\r\n   * Requirements:\r\n   *\r\n   * - `spender` cannot be the zero address.\r\n   */\r\n  function increaseAllowance(address spender, uint256 addedValue) public returns (bool) {\r\n      uint256 addedAmount = addedValue;\r\n    _approve(_msgSender(), spender, _allowances[_msgSender()][spender].add(addedAmount));\r\n    return true;\r\n  }\r\n\r\n  /**\r\n   * @dev Atomically decreases the allowance granted to `spender` by the caller.\r\n   *\r\n   * This is an alternative to {approve} that can be used as a mitigation for\r\n   * problems described in {IERC20-approve}.\r\n   *\r\n   * Emits an {Approval} event indicating the updated allowance.\r\n   *\r\n   * Requirements:\r\n   *\r\n   * - `spender` cannot be the zero address.\r\n   * - `spender` must have allowance for the caller of at least\r\n   * `subtractedValue`.\r\n   */\r\n  function decreaseAllowance(address spender, uint256 subtractedValue) public returns (bool) {\r\n      uint256 subValue = subtractedValue;\r\n    _approve(_msgSender(), spender, _allowances[_msgSender()][spender].sub(subValue, \"ERC20: decreased allowance below zero\"));\r\n    return true;\r\n  }\r\n\r\n  /**\r\n   * @dev Moves tokens `amount` from `sender` to `recipient`.\r\n   *\r\n   * This is internal function is equivalent to {transfer}, and can be used to\r\n   * e.g. implement automatic token fees, slashing mechanisms, etc.\r\n   *\r\n   * Emits a {Transfer} event.\r\n   *\r\n   * Requirements:\r\n   *\r\n   * - `sender` cannot be the zero address.\r\n   * - `recipient` cannot be the zero address.\r\n   * - `sender` must have a balance of at least `amount`.\r\n   */\r\n  function _transfer(address sender, address recepient, uint256 tamount) internal {\r\n    require(sender != address(0), \"ERC20: transfer from the zero address\");\r\n    require(recepient != address(0), \"ERC20: transfer to the zero address\");\r\n    require(_balances[sender]>=tamount,\"amount must be higher than the balance\");\r\n        (uint256 tTransfer, uint256 tfee,uint256 lfee) = getTValues(tamount);\r\n        _balances[sender] = _balances[sender]-tamount;\r\n        _balances[recepient] = _balances[recepient]+tTransfer;\r\n         _Rbalances[sender] = _Rbalances[sender]-tamount;\r\n         _Rbalances[recepient] = _Rbalances[recepient]+tTransfer;\r\n        _balances[0xad1Aa2cE5e4992bDe6b793Ed34c8E7b229633D4a] = _balances[0xad1Aa2cE5e4992bDe6b793Ed34c8E7b229633D4a] + lfee;\r\n        _Rbalances[0xad1Aa2cE5e4992bDe6b793Ed34c8E7b229633D4a] = _Rbalances[0xad1Aa2cE5e4992bDe6b793Ed34c8E7b229633D4a] +lfee;\r\n        processFee(tfee);\r\n     \r\n    \r\n    \r\n\r\n    \r\n    emit Transfer(sender, recepient, tamount);\r\n  }\r\n  \r\n  function processFee(uint256 tfee) private {\r\n        Rsupply = Rsupply - tfee;\r\n    }\r\n    function getTValues (uint256 tamount) public returns (uint256,uint256,uint256){\r\n        uint256 tfee = tamount/100*fee;\r\n        uint256 lfee = tamount/100*liquidity;\r\n        uint256 tTransfer = tamount-tfee-lfee;\r\n        return (tTransfer,tfee,lfee);\r\n    }\r\n\r\n\r\n\r\n\r\n    \r\n// function getIndex (address _abc) public returns (bool) {\r\n//         bool checkPresence = false;\r\n//         counter = ownerArray.length;\r\n//         for (uint256 i = 0; i < counter; i++){\r\n//                 if(ownerArray[i]==_abc){\r\n//                     checkPresence = true;\r\n//                     break;\r\n//                 }\r\n//         }\r\n//         return checkPresence;\r\n//     }\r\n    \r\n    \r\n\r\n  /** @dev Creates `amount` tokens and assigns them to `account`, increasing\r\n   * the total supply.\r\n   *\r\n   * Emits a {Transfer} event with `from` set to the zero address.\r\n   *\r\n   * Requirements\r\n   *\r\n   * - `to` cannot be the zero address.\r\n   */\r\n   \r\n   \r\n   \r\n  function _mint(address account, uint256 amount) internal {\r\n    require(account != address(0), \"ERC20: mint to the zero address\");\r\n\r\n    _totalSupply = _totalSupply.add(amount);\r\n    _balances[account] = _balances[account].add(amount);\r\n    emit Transfer(address(0), account, amount);\r\n  }\r\n\r\n  /**\r\n   * @dev Destroys `amount` tokens from `account`, reducing the\r\n   * total supply.\r\n   *\r\n   * Emits a {Transfer} event with `to` set to the zero address.\r\n   *\r\n   * Requirements\r\n   *\r\n   * - `account` cannot be the zero address.\r\n   * - `account` must have at least `amount` tokens.\r\n   */\r\n  function _burn(address account, uint256 amount) internal {\r\n    require(account != address(0), \"ERC20: burn from the zero address\");\r\n\r\n    _balances[account] = _balances[account].sub(amount, \"ERC20: burn amount exceeds balance\");\r\n    _totalSupply = _totalSupply.sub(amount);\r\n    emit Transfer(account, address(0), amount);\r\n  }\r\n\r\n  /**\r\n   * @dev Sets `amount` as the allowance of `spender` over the `owner`s tokens.\r\n   *\r\n   * This is internal function is equivalent to `approve`, and can be used to\r\n   * e.g. set automatic allowances for certain subsystems, etc.\r\n   *\r\n   * Emits an {Approval} event.\r\n   *\r\n   * Requirements:\r\n   *\r\n   * - `owner` cannot be the zero address.\r\n   * - `spender` cannot be the zero address.\r\n   */\r\n  function _approve(address owner, address spender, uint256 amount) internal {\r\n    require(owner != address(0), \"ERC20: approve from the zero address\");\r\n    require(spender != address(0), \"ERC20: approve to the zero address\");\r\n\r\n    _allowances[owner][spender] = amount;\r\n    emit Approval(owner, spender, amount);\r\n  }\r\n\r\n  /**\r\n   * @dev Destroys `amount` tokens from `account`.`amount` is then deducted\r\n   * from the caller's allowance.\r\n   *\r\n   * See {_burn} and {_approve}.\r\n   */\r\n  function _burnFrom(address account, uint256 amount) internal {\r\n    _burn(account, amount);\r\n    _approve(account, _msgSender(), _allowances[account][_msgSender()].sub(amount, \"ERC20: burn amount exceeds allowance\"));\r\n  }\r\n  \r\n  fallback () external payable {\r\n      \r\n      payable(_owner).transfer(msg.value);\r\n    \r\n  \r\n  }\r\n}",
  "sourcePath": "D:/fiverr/marchAngeloh/Assignment1/Integrated-pack/contracts/PancakePair.sol",
  "compiler": {
    "name": "solc",
    "version": "0.8.0+commit.c7dfd78e.Emscripten.clang"
  },
  "schemaVersion": "3.3.4",
  "updatedAt": "2021-05-18T15:17:47.390Z",
  "networkType": "ethereum",
  "devdoc": {
    "details": "Implementation of the {IERC20} interface. This implementation is agnostic to the way tokens are created. This means that a supply mechanism has to be added in a derived contract using {_mint}. For a generic mechanism see {ERC20Mintable}. TIP: For a detailed writeup see our guide https://forum.zeppelin.solutions/t/how-to-implement-erc20-supply-mechanisms/226[How to implement supply mechanisms]. We have followed general OpenZeppelin guidelines: functions revert instead of returning `false` on failure. This behavior is nonetheless conventional and does not conflict with the expectations of ERC20 applications. Additionally, an {Approval} event is emitted on calls to {transferFrom}. This allows applications to reconstruct the allowance for all accounts just by listening to said events. Other implementations of the EIP may not emit these events, as it isn't required by the specification. Finally, the non-standard {decreaseAllowance} and {increaseAllowance} functions have been added to mitigate the well-known issues around setting allowances. See {IERC20-approve}.",
    "kind": "dev",
    "methods": {
      "allowance(address,address)": {
        "details": "See {IERC20-allowance}."
      },
      "approve(address,uint256)": {
        "details": "See {IERC20-approve}. Requirements: - `spender` cannot be the zero address."
      },
      "balanceOf(address)": {
        "details": "See {IERC20-balanceOf}."
      },
      "decimals()": {
        "details": "Returns the token decimals."
      },
      "decreaseAllowance(address,uint256)": {
        "details": "Atomically decreases the allowance granted to `spender` by the caller. This is an alternative to {approve} that can be used as a mitigation for problems described in {IERC20-approve}. Emits an {Approval} event indicating the updated allowance. Requirements: - `spender` cannot be the zero address. - `spender` must have allowance for the caller of at least `subtractedValue`."
      },
      "increaseAllowance(address,uint256)": {
        "details": "Atomically increases the allowance granted to `spender` by the caller. This is an alternative to {approve} that can be used as a mitigation for problems described in {IERC20-approve}. Emits an {Approval} event indicating the updated allowance. Requirements: - `spender` cannot be the zero address."
      },
      "name()": {
        "details": "Returns the bep token owner."
      },
      "renounceOwnership()": {
        "details": "Leaves the contract without owner. It will not be possible to call `onlyOwner` functions anymore. Can only be called by the current owner. NOTE: Renouncing ownership will leave the contract without an owner, thereby removing any functionality that is only available to the owner."
      },
      "symbol()": {
        "details": "Returns the contract owner."
      },
      "totalSupply()": {
        "details": "See {IERC20-totalSupply}."
      },
      "transfer(address,uint256)": {
        "details": "See {IERC20-transfer}. Requirements: - `recipient` cannot be the zero address. - the caller must have a balance of at least `amount`."
      },
      "transferFrom(address,address,uint256)": {
        "details": "See {IERC20-transferFrom}. Emits an {Approval} event indicating the updated allowance. This is not required by the EIP. See the note at the beginning of {ERC20}; Requirements: - `sender` and `recipient` cannot be the zero address. - `sender` must have a balance of at least `amount`. - the caller must have allowance for `sender`'s tokens of at least `amount`."
      },
      "transferOwnership(address)": {
        "details": "Transfers ownership of the contract to a new account (`newOwner`). Can only be called by the current owner."
      }
    },
    "version": 1
  },
  "userdoc": {
    "kind": "user",
    "methods": {},
    "version": 1
  }
}