{
  "contractName": "YOLOMonthly",
  "abi": [
    {
      "inputs": [
        {
          "internalType": "address",
          "name": "_owner",
          "type": "address"
        },
        {
          "internalType": "address",
          "name": "_rewardsDistribution",
          "type": "address"
        },
        {
          "internalType": "address",
          "name": "_rewardsToken",
          "type": "address"
        },
        {
          "internalType": "address",
          "name": "_stakingToken",
          "type": "address"
        }
      ],
      "stateMutability": "nonpayable",
      "type": "constructor"
    },
    {
      "anonymous": false,
      "inputs": [
        {
          "indexed": false,
          "internalType": "address",
          "name": "oldOwner",
          "type": "address"
        },
        {
          "indexed": false,
          "internalType": "address",
          "name": "newOwner",
          "type": "address"
        }
      ],
      "name": "OwnerChanged",
      "type": "event"
    },
    {
      "anonymous": false,
      "inputs": [
        {
          "indexed": false,
          "internalType": "address",
          "name": "newOwner",
          "type": "address"
        }
      ],
      "name": "OwnerNominated",
      "type": "event"
    },
    {
      "anonymous": false,
      "inputs": [
        {
          "indexed": false,
          "internalType": "bool",
          "name": "isPaused",
          "type": "bool"
        }
      ],
      "name": "PauseChanged",
      "type": "event"
    },
    {
      "anonymous": false,
      "inputs": [
        {
          "indexed": false,
          "internalType": "uint256",
          "name": "reward",
          "type": "uint256"
        }
      ],
      "name": "RewardAdded",
      "type": "event"
    },
    {
      "anonymous": false,
      "inputs": [
        {
          "indexed": true,
          "internalType": "address",
          "name": "user",
          "type": "address"
        },
        {
          "indexed": false,
          "internalType": "uint256",
          "name": "reward",
          "type": "uint256"
        }
      ],
      "name": "RewardPaid",
      "type": "event"
    },
    {
      "anonymous": false,
      "inputs": [
        {
          "indexed": false,
          "internalType": "uint256",
          "name": "newDuration",
          "type": "uint256"
        }
      ],
      "name": "RewardsDurationUpdated",
      "type": "event"
    },
    {
      "anonymous": false,
      "inputs": [
        {
          "indexed": true,
          "internalType": "address",
          "name": "user",
          "type": "address"
        },
        {
          "indexed": false,
          "internalType": "uint256",
          "name": "amount",
          "type": "uint256"
        }
      ],
      "name": "Staked",
      "type": "event"
    },
    {
      "anonymous": false,
      "inputs": [
        {
          "indexed": true,
          "internalType": "address",
          "name": "user",
          "type": "address"
        },
        {
          "indexed": false,
          "internalType": "uint256",
          "name": "amount",
          "type": "uint256"
        }
      ],
      "name": "Withdrawn",
      "type": "event"
    },
    {
      "inputs": [],
      "name": "_totalSupply",
      "outputs": [
        {
          "internalType": "uint256",
          "name": "",
          "type": "uint256"
        }
      ],
      "stateMutability": "view",
      "type": "function",
      "constant": true
    },
    {
      "inputs": [],
      "name": "acceptOwnership",
      "outputs": [],
      "stateMutability": "nonpayable",
      "type": "function"
    },
    {
      "inputs": [],
      "name": "burn",
      "outputs": [
        {
          "internalType": "address",
          "name": "",
          "type": "address"
        }
      ],
      "stateMutability": "view",
      "type": "function",
      "constant": true
    },
    {
      "inputs": [],
      "name": "lastPauseTime",
      "outputs": [
        {
          "internalType": "uint256",
          "name": "",
          "type": "uint256"
        }
      ],
      "stateMutability": "view",
      "type": "function",
      "constant": true
    },
    {
      "inputs": [],
      "name": "lastUpdateTime",
      "outputs": [
        {
          "internalType": "uint256",
          "name": "",
          "type": "uint256"
        }
      ],
      "stateMutability": "view",
      "type": "function",
      "constant": true
    },
    {
      "inputs": [
        {
          "internalType": "address",
          "name": "_owner",
          "type": "address"
        }
      ],
      "name": "nominateNewOwner",
      "outputs": [],
      "stateMutability": "nonpayable",
      "type": "function"
    },
    {
      "inputs": [],
      "name": "nominatedOwner",
      "outputs": [
        {
          "internalType": "address",
          "name": "",
          "type": "address"
        }
      ],
      "stateMutability": "view",
      "type": "function",
      "constant": true
    },
    {
      "inputs": [],
      "name": "owner",
      "outputs": [
        {
          "internalType": "address",
          "name": "",
          "type": "address"
        }
      ],
      "stateMutability": "view",
      "type": "function",
      "constant": true
    },
    {
      "inputs": [],
      "name": "paused",
      "outputs": [
        {
          "internalType": "bool",
          "name": "",
          "type": "bool"
        }
      ],
      "stateMutability": "view",
      "type": "function",
      "constant": true
    },
    {
      "inputs": [],
      "name": "periodFinish",
      "outputs": [
        {
          "internalType": "uint256",
          "name": "",
          "type": "uint256"
        }
      ],
      "stateMutability": "view",
      "type": "function",
      "constant": true
    },
    {
      "inputs": [],
      "name": "poolStakeFee",
      "outputs": [
        {
          "internalType": "uint256",
          "name": "",
          "type": "uint256"
        }
      ],
      "stateMutability": "view",
      "type": "function",
      "constant": true
    },
    {
      "inputs": [],
      "name": "rewardPerTokenStored",
      "outputs": [
        {
          "internalType": "uint256",
          "name": "",
          "type": "uint256"
        }
      ],
      "stateMutability": "view",
      "type": "function",
      "constant": true
    },
    {
      "inputs": [],
      "name": "rewardRate",
      "outputs": [
        {
          "internalType": "uint256",
          "name": "",
          "type": "uint256"
        }
      ],
      "stateMutability": "view",
      "type": "function",
      "constant": true
    },
    {
      "inputs": [
        {
          "internalType": "address",
          "name": "",
          "type": "address"
        }
      ],
      "name": "rewards",
      "outputs": [
        {
          "internalType": "uint256",
          "name": "",
          "type": "uint256"
        }
      ],
      "stateMutability": "view",
      "type": "function",
      "constant": true
    },
    {
      "inputs": [],
      "name": "rewardsDistribution",
      "outputs": [
        {
          "internalType": "address",
          "name": "",
          "type": "address"
        }
      ],
      "stateMutability": "view",
      "type": "function",
      "constant": true
    },
    {
      "inputs": [],
      "name": "rewardsDuration",
      "outputs": [
        {
          "internalType": "uint256",
          "name": "",
          "type": "uint256"
        }
      ],
      "stateMutability": "view",
      "type": "function",
      "constant": true
    },
    {
      "inputs": [],
      "name": "rewardsToken",
      "outputs": [
        {
          "internalType": "contract IERC20",
          "name": "",
          "type": "address"
        }
      ],
      "stateMutability": "view",
      "type": "function",
      "constant": true
    },
    {
      "inputs": [
        {
          "internalType": "bool",
          "name": "_paused",
          "type": "bool"
        }
      ],
      "name": "setPaused",
      "outputs": [],
      "stateMutability": "nonpayable",
      "type": "function"
    },
    {
      "inputs": [
        {
          "internalType": "address",
          "name": "_rewardsDistribution",
          "type": "address"
        }
      ],
      "name": "setRewardsDistribution",
      "outputs": [],
      "stateMutability": "nonpayable",
      "type": "function"
    },
    {
      "inputs": [
        {
          "internalType": "address",
          "name": "",
          "type": "address"
        }
      ],
      "name": "stakeTime",
      "outputs": [
        {
          "internalType": "uint256",
          "name": "",
          "type": "uint256"
        }
      ],
      "stateMutability": "view",
      "type": "function",
      "constant": true
    },
    {
      "inputs": [],
      "name": "stakingToken",
      "outputs": [
        {
          "internalType": "contract IERC20",
          "name": "",
          "type": "address"
        }
      ],
      "stateMutability": "view",
      "type": "function",
      "constant": true
    },
    {
      "inputs": [
        {
          "internalType": "address",
          "name": "",
          "type": "address"
        }
      ],
      "name": "userRewardPerTokenPaid",
      "outputs": [
        {
          "internalType": "uint256",
          "name": "",
          "type": "uint256"
        }
      ],
      "stateMutability": "view",
      "type": "function",
      "constant": true
    },
    {
      "inputs": [],
      "name": "totalSupply",
      "outputs": [
        {
          "internalType": "uint256",
          "name": "",
          "type": "uint256"
        }
      ],
      "stateMutability": "view",
      "type": "function",
      "constant": true
    },
    {
      "inputs": [
        {
          "internalType": "address",
          "name": "account",
          "type": "address"
        }
      ],
      "name": "balanceOf",
      "outputs": [
        {
          "internalType": "uint256",
          "name": "",
          "type": "uint256"
        }
      ],
      "stateMutability": "view",
      "type": "function",
      "constant": true
    },
    {
      "inputs": [],
      "name": "lastTimeRewardApplicable",
      "outputs": [
        {
          "internalType": "uint256",
          "name": "",
          "type": "uint256"
        }
      ],
      "stateMutability": "view",
      "type": "function",
      "constant": true
    },
    {
      "inputs": [],
      "name": "rewardPerToken",
      "outputs": [
        {
          "internalType": "uint256",
          "name": "",
          "type": "uint256"
        }
      ],
      "stateMutability": "view",
      "type": "function",
      "constant": true
    },
    {
      "inputs": [
        {
          "internalType": "address",
          "name": "account",
          "type": "address"
        }
      ],
      "name": "earned",
      "outputs": [
        {
          "internalType": "uint256",
          "name": "",
          "type": "uint256"
        }
      ],
      "stateMutability": "view",
      "type": "function",
      "constant": true
    },
    {
      "inputs": [],
      "name": "getRewardForDuration",
      "outputs": [
        {
          "internalType": "uint256",
          "name": "",
          "type": "uint256"
        }
      ],
      "stateMutability": "view",
      "type": "function",
      "constant": true
    },
    {
      "inputs": [
        {
          "internalType": "uint256",
          "name": "amount",
          "type": "uint256"
        }
      ],
      "name": "stake",
      "outputs": [],
      "stateMutability": "nonpayable",
      "type": "function"
    },
    {
      "inputs": [
        {
          "internalType": "uint256",
          "name": "amount",
          "type": "uint256"
        }
      ],
      "name": "withdraw",
      "outputs": [],
      "stateMutability": "nonpayable",
      "type": "function"
    },
    {
      "inputs": [],
      "name": "getReward",
      "outputs": [],
      "stateMutability": "nonpayable",
      "type": "function"
    },
    {
      "inputs": [],
      "name": "exit",
      "outputs": [],
      "stateMutability": "nonpayable",
      "type": "function"
    },
    {
      "inputs": [
        {
          "internalType": "uint256",
          "name": "reward",
          "type": "uint256"
        }
      ],
      "name": "notifyRewardAmount",
      "outputs": [],
      "stateMutability": "nonpayable",
      "type": "function"
    },
    {
      "inputs": [
        {
          "internalType": "uint256",
          "name": "_rewardsDuration",
          "type": "uint256"
        }
      ],
      "name": "setRewardsDuration",
      "outputs": [],
      "stateMutability": "nonpayable",
      "type": "function"
    }
  ],
  "bytecode": "0x6080604052600060065560006007556228de806008556000600c5561dead600d60006101000a81548173ffffffffffffffffffffffffffffffffffffffff021916908373ffffffffffffffffffffffffffffffffffffffff1602179055503480156200006a57600080fd5b506040516200326938038062003269833981810160405281019062000090919062000313565b83600073ffffffffffffffffffffffffffffffffffffffff168173ffffffffffffffffffffffffffffffffffffffff16141562000104576040517f08c379a0000000000000000000000000000000000000000000000000000000008152600401620000fb9062000463565b60405180910390fd5b806000806101000a81548173ffffffffffffffffffffffffffffffffffffffff021916908373ffffffffffffffffffffffffffffffffffffffff1602179055507fb532073b38c83145e3e5135377a08bf9aab55bc0fd7c1179cd4fb995d2a5159c6000826040516200017892919062000414565b60405180910390a1506001600260146101000a81548160ff021916908315150217905550600073ffffffffffffffffffffffffffffffffffffffff1660008054906101000a900473ffffffffffffffffffffffffffffffffffffffff1673ffffffffffffffffffffffffffffffffffffffff1614156200022f576040517f08c379a0000000000000000000000000000000000000000000000000000000008152600401620002269062000441565b60405180910390fd5b81600460016101000a81548173ffffffffffffffffffffffffffffffffffffffff021916908373ffffffffffffffffffffffffffffffffffffffff16021790555080600560006101000a81548173ffffffffffffffffffffffffffffffffffffffff021916908373ffffffffffffffffffffffffffffffffffffffff16021790555082600260006101000a81548173ffffffffffffffffffffffffffffffffffffffff021916908373ffffffffffffffffffffffffffffffffffffffff16021790555050505050620004e4565b6000815190506200030d81620004ca565b92915050565b600080600080608085870312156200032a57600080fd5b60006200033a87828801620002fc565b94505060206200034d87828801620002fc565b93505060406200036087828801620002fc565b92505060606200037387828801620002fc565b91505092959194509250565b6200038a8162000496565b82525050565b60006200039f60118362000485565b91507f4f776e6572206d757374206265207365740000000000000000000000000000006000830152602082019050919050565b6000620003e160198362000485565b91507f4f776e657220616464726573732063616e6e6f742062652030000000000000006000830152602082019050919050565b60006040820190506200042b60008301856200037f565b6200043a60208301846200037f565b9392505050565b600060208201905081810360008301526200045c8162000390565b9050919050565b600060208201905081810360008301526200047e81620003d2565b9050919050565b600082825260208201905092915050565b6000620004a382620004aa565b9050919050565b600073ffffffffffffffffffffffffffffffffffffffff82169050919050565b620004d58162000496565b8114620004e157600080fd5b50565b612d7580620004f46000396000f3fe608060405234801561001057600080fd5b50600436106102055760003560e01c80635c975abb1161011a57806391b4ded9116100ad578063cd3daf9d1161007c578063cd3daf9d14610594578063d1af0c7d146105b2578063df136d65146105d0578063e9fad8ee146105ee578063ebe2b12b146105f857610205565b806391b4ded914610520578063a694fc3a1461053e578063c8f33c911461055a578063cc1a378f1461057857610205565b80637b0a47ee116100e95780637b0a47ee1461049657806380faa57d146104b45780638b876347146104d25780638da5cb5b1461050257610205565b80635c975abb1461042057806370a082311461043e57806372f702f31461046e57806379ba50971461048c57610205565b80632170e4721161019d5780633d18b9121161016c5780633d18b9121461039e5780633eaaf86b146103a85780633fc6df6e146103c657806344df8e70146103e457806353a47bb71461040257610205565b80632170e472146103185780632e1a7d4d14610348578063386a9525146103645780633c6b16ab1461038257610205565b806316c38b3c116101d957806316c38b3c146102a457806318160ddd146102c057806319762143146102de5780631c1f78eb146102fa57610205565b80628cc2621461020a5780630700037d1461023a57806315ab8a5a1461026a5780631627540c14610288575b600080fd5b610224600480360381019061021f919061221d565b610616565b6040516102319190612a8a565b60405180910390f35b610254600480360381019061024f919061221d565b610734565b6040516102619190612a8a565b60405180910390f35b61027261074c565b60405161027f9190612a8a565b60405180910390f35b6102a2600480360381019061029d919061221d565b610752565b005b6102be60048036038101906102b99190612246565b6107d5565b005b6102c861087e565b6040516102d59190612a8a565b60405180910390f35b6102f860048036038101906102f3919061221d565b610888565b005b6103026108d4565b60405161030f9190612a8a565b60405180910390f35b610332600480360381019061032d919061221d565b6108f2565b60405161033f9190612a8a565b60405180910390f35b610362600480360381019061035d9190612298565b61090a565b005b61036c610dab565b6040516103799190612a8a565b60405180910390f35b61039c60048036038101906103979190612298565b610db1565b005b6103a661100e565b005b6103b06112a9565b6040516103bd9190612a8a565b60405180910390f35b6103ce6112af565b6040516103db91906127ee565b60405180910390f35b6103ec6112d5565b6040516103f991906127ee565b60405180910390f35b61040a6112fb565b60405161041791906127ee565b60405180910390f35b610428611321565b6040516104359190612892565b60405180910390f35b6104586004803603810190610453919061221d565b611334565b6040516104659190612a8a565b60405180910390f35b61047661137d565b60405161048391906128ad565b60405180910390f35b6104946113a3565b005b61049e611554565b6040516104ab9190612a8a565b60405180910390f35b6104bc61155a565b6040516104c99190612a8a565b60405180910390f35b6104ec60048036038101906104e7919061221d565b61156d565b6040516104f99190612a8a565b60405180910390f35b61050a611585565b60405161051791906127ee565b60405180910390f35b6105286115a9565b6040516105359190612a8a565b60405180910390f35b61055860048036038101906105539190612298565b6115af565b005b610562611a49565b60405161056f9190612a8a565b60405180910390f35b610592600480360381019061058d9190612298565b611a4f565b005b61059c611ade565b6040516105a99190612a8a565b60405180910390f35b6105ba611b6c565b6040516105c791906128ad565b60405180910390f35b6105d8611b92565b6040516105e59190612a8a565b60405180910390f35b6105f6611b98565b005b610600611bea565b60405161060d9190612a8a565b60405180910390f35b600061072d600f60008473ffffffffffffffffffffffffffffffffffffffff1673ffffffffffffffffffffffffffffffffffffffff1681526020019081526020016000205461071f670de0b6b3a76400006107116106c3600e60008973ffffffffffffffffffffffffffffffffffffffff1673ffffffffffffffffffffffffffffffffffffffff168152602001908152602001600020546106b5611ade565b611bf090919063ffffffff16565b601060008973ffffffffffffffffffffffffffffffffffffffff1673ffffffffffffffffffffffffffffffffffffffff16815260200190815260200160002054611c3a90919063ffffffff16565b611cb590919063ffffffff16565b611cff90919063ffffffff16565b9050919050565b600f6020528060005260406000206000915090505481565b600c5481565b61075a611d5d565b80600160006101000a81548173ffffffffffffffffffffffffffffffffffffffff021916908373ffffffffffffffffffffffffffffffffffffffff1602179055507f906a1c6bd7e3091ea86693dd029a831c19049ce77f1dce2ce0bab1cacbabce22816040516107ca91906127ee565b60405180910390a150565b6107dd611d5d565b600460009054906101000a900460ff16151581151514156107fd5761087b565b80600460006101000a81548160ff021916908315150217905550600460009054906101000a900460ff161561083457426003819055505b7f8fb6c181ee25a520cf3dd6565006ef91229fcfe5a989566c2a3b8c115570cec5600460009054906101000a900460ff166040516108729190612892565b60405180910390a15b50565b6000600b54905090565b610890611d5d565b80600260006101000a81548173ffffffffffffffffffffffffffffffffffffffff021916908373ffffffffffffffffffffffffffffffffffffffff16021790555050565b60006108ed600854600754611c3a90919063ffffffff16565b905090565b60116020528060005260406000206000915090505481565b600260149054906101000a900460ff16610959576040517f08c379a000000000000000000000000000000000000000000000000000000000815260040161095090612a4a565b60405180910390fd5b6000600260146101000a81548160ff0219169083151502179055503361097d611ade565b600a8190555061098b61155a565b600981905550600073ffffffffffffffffffffffffffffffffffffffff168173ffffffffffffffffffffffffffffffffffffffff1614610a58576109ce81610616565b600f60008373ffffffffffffffffffffffffffffffffffffffff1673ffffffffffffffffffffffffffffffffffffffff16815260200190815260200160002081905550600a54600e60008373ffffffffffffffffffffffffffffffffffffffff1673ffffffffffffffffffffffffffffffffffffffff168152602001908152602001600020819055505b60008211610a9b576040517f08c379a0000000000000000000000000000000000000000000000000000000008152600401610a92906129aa565b60405180910390fd5b610ab082600b54611bf090919063ffffffff16565b600b81905550610b0882601060003373ffffffffffffffffffffffffffffffffffffffff1673ffffffffffffffffffffffffffffffffffffffff16815260200190815260200160002054611bf090919063ffffffff16565b601060003373ffffffffffffffffffffffffffffffffffffffff1673ffffffffffffffffffffffffffffffffffffffff16815260200190815260200160002081905550600260009054906101000a900473ffffffffffffffffffffffffffffffffffffffff1673ffffffffffffffffffffffffffffffffffffffff163373ffffffffffffffffffffffffffffffffffffffff1614610d3e5742601160003373ffffffffffffffffffffffffffffffffffffffff1673ffffffffffffffffffffffffffffffffffffffff16815260200190815260200160002054111580610bf057506006544210155b15610c4757610c423383600560009054906101000a900473ffffffffffffffffffffffffffffffffffffffff1673ffffffffffffffffffffffffffffffffffffffff16611ded9092919063ffffffff16565b610d3d565b610cba33610c726064610c64605a87611c3a90919063ffffffff16565b611cb590919063ffffffff16565b600560009054906101000a900473ffffffffffffffffffffffffffffffffffffffff1673ffffffffffffffffffffffffffffffffffffffff16611ded9092919063ffffffff16565b610d3c600d60009054906101000a900473ffffffffffffffffffffffffffffffffffffffff16610cf4600a85611cb590919063ffffffff16565b600560009054906101000a900473ffffffffffffffffffffffffffffffffffffffff1673ffffffffffffffffffffffffffffffffffffffff16611ded9092919063ffffffff16565b5b5b3373ffffffffffffffffffffffffffffffffffffffff167f7084f5476618d8e60b11ef0d7d3f06914655adb8793e28ff7f018d4c76d505d583604051610d849190612a8a565b60405180910390a2506001600260146101000a81548160ff02191690831515021790555050565b60085481565b600260009054906101000a900473ffffffffffffffffffffffffffffffffffffffff1673ffffffffffffffffffffffffffffffffffffffff163373ffffffffffffffffffffffffffffffffffffffff1614610e41576040517f08c379a0000000000000000000000000000000000000000000000000000000008152600401610e3890612a0a565b60405180910390fd5b6000610e4b611ade565b600a81905550610e5961155a565b600981905550600073ffffffffffffffffffffffffffffffffffffffff168173ffffffffffffffffffffffffffffffffffffffff1614610f2657610e9c81610616565b600f60008373ffffffffffffffffffffffffffffffffffffffff1673ffffffffffffffffffffffffffffffffffffffff16815260200190815260200160002081905550600a54600e60008373ffffffffffffffffffffffffffffffffffffffff1673ffffffffffffffffffffffffffffffffffffffff168152602001908152602001600020819055505b6006544210610f4f57610f4460085483611cb590919063ffffffff16565b600781905550610fb1565b6000610f6642600654611bf090919063ffffffff16565b90506000610f7f60075483611c3a90919063ffffffff16565b9050610fa8600854610f9a8387611cff90919063ffffffff16565b611cb590919063ffffffff16565b60078190555050505b42600981905550610fcd60085442611cff90919063ffffffff16565b6006819055507fde88a922e0d3b88b24e9623efeb464919c6bf9f66857a65e2bfcf2ce87a9433d826040516110029190612a8a565b60405180910390a15050565b600260149054906101000a900460ff1661105d576040517f08c379a000000000000000000000000000000000000000000000000000000000815260040161105490612a4a565b60405180910390fd5b6000600260146101000a81548160ff02191690831515021790555033611081611ade565b600a8190555061108f61155a565b600981905550600073ffffffffffffffffffffffffffffffffffffffff168173ffffffffffffffffffffffffffffffffffffffff161461115c576110d281610616565b600f60008373ffffffffffffffffffffffffffffffffffffffff1673ffffffffffffffffffffffffffffffffffffffff16815260200190815260200160002081905550600a54600e60008373ffffffffffffffffffffffffffffffffffffffff1673ffffffffffffffffffffffffffffffffffffffff168152602001908152602001600020819055505b6000600f60003373ffffffffffffffffffffffffffffffffffffffff1673ffffffffffffffffffffffffffffffffffffffff168152602001908152602001600020549050600081111561128a576000600f60003373ffffffffffffffffffffffffffffffffffffffff1673ffffffffffffffffffffffffffffffffffffffff1681526020019081526020016000208190555061123b3382600460019054906101000a900473ffffffffffffffffffffffffffffffffffffffff1673ffffffffffffffffffffffffffffffffffffffff16611ded9092919063ffffffff16565b3373ffffffffffffffffffffffffffffffffffffffff167fe2403640ba68fed3a2f88b7557551d1993f84b99bb10ff833f0cf8db0c5e0486826040516112819190612a8a565b60405180910390a25b50506001600260146101000a81548160ff021916908315150217905550565b600b5481565b600260009054906101000a900473ffffffffffffffffffffffffffffffffffffffff1681565b600d60009054906101000a900473ffffffffffffffffffffffffffffffffffffffff1681565b600160009054906101000a900473ffffffffffffffffffffffffffffffffffffffff1681565b600460009054906101000a900460ff1681565b6000601060008373ffffffffffffffffffffffffffffffffffffffff1673ffffffffffffffffffffffffffffffffffffffff168152602001908152602001600020549050919050565b600560009054906101000a900473ffffffffffffffffffffffffffffffffffffffff1681565b600160009054906101000a900473ffffffffffffffffffffffffffffffffffffffff1673ffffffffffffffffffffffffffffffffffffffff163373ffffffffffffffffffffffffffffffffffffffff1614611433576040517f08c379a000000000000000000000000000000000000000000000000000000000815260040161142a9061290a565b60405180910390fd5b7fb532073b38c83145e3e5135377a08bf9aab55bc0fd7c1179cd4fb995d2a5159c60008054906101000a900473ffffffffffffffffffffffffffffffffffffffff16600160009054906101000a900473ffffffffffffffffffffffffffffffffffffffff166040516114a6929190612809565b60405180910390a1600160009054906101000a900473ffffffffffffffffffffffffffffffffffffffff166000806101000a81548173ffffffffffffffffffffffffffffffffffffffff021916908373ffffffffffffffffffffffffffffffffffffffff1602179055506000600160006101000a81548173ffffffffffffffffffffffffffffffffffffffff021916908373ffffffffffffffffffffffffffffffffffffffff160217905550565b60075481565b600061156842600654611e73565b905090565b600e6020528060005260406000206000915090505481565b60008054906101000a900473ffffffffffffffffffffffffffffffffffffffff1681565b60035481565b600260149054906101000a900460ff166115fe576040517f08c379a00000000000000000000000000000000000000000000000000000000081526004016115f590612a4a565b60405180910390fd5b6000600260146101000a81548160ff021916908315150217905550600460009054906101000a900460ff1615611669576040517f08c379a0000000000000000000000000000000000000000000000000000000008152600401611660906129ea565b60405180910390fd5b33611672611ade565b600a8190555061168061155a565b600981905550600073ffffffffffffffffffffffffffffffffffffffff168173ffffffffffffffffffffffffffffffffffffffff161461174d576116c381610616565b600f60008373ffffffffffffffffffffffffffffffffffffffff1673ffffffffffffffffffffffffffffffffffffffff16815260200190815260200160002081905550600a54600e60008373ffffffffffffffffffffffffffffffffffffffff1673ffffffffffffffffffffffffffffffffffffffff168152602001908152602001600020819055505b60008211611790576040517f08c379a00000000000000000000000000000000000000000000000000000000081526004016117879061292a565b60405180910390fd5b6117a582600b54611cff90919063ffffffff16565b600b819055506118176117c96117ba84611e8c565b84611bf090919063ffffffff16565b601060003373ffffffffffffffffffffffffffffffffffffffff1673ffffffffffffffffffffffffffffffffffffffff16815260200190815260200160002054611cff90919063ffffffff16565b601060003373ffffffffffffffffffffffffffffffffffffffff1673ffffffffffffffffffffffffffffffffffffffff168152602001908152602001600020819055506118d661186683611e8c565b60106000600260009054906101000a900473ffffffffffffffffffffffffffffffffffffffff1673ffffffffffffffffffffffffffffffffffffffff1673ffffffffffffffffffffffffffffffffffffffff16815260200190815260200160002054611cff90919063ffffffff16565b60106000600260009054906101000a900473ffffffffffffffffffffffffffffffffffffffff1673ffffffffffffffffffffffffffffffffffffffff1673ffffffffffffffffffffffffffffffffffffffff168152602001908152602001600020819055506228de804261194a9190612ad7565b601160003373ffffffffffffffffffffffffffffffffffffffff1673ffffffffffffffffffffffffffffffffffffffff168152602001908152602001600020819055506119dc333084600560009054906101000a900473ffffffffffffffffffffffffffffffffffffffff1673ffffffffffffffffffffffffffffffffffffffff16611ebd909392919063ffffffff16565b3373ffffffffffffffffffffffffffffffffffffffff167f9e71bc8eea02a63969f509818f2dafb9254532904319f9dbda79b67bd34a5f3d83604051611a229190612a8a565b60405180910390a2506001600260146101000a81548160ff02191690831515021790555050565b60095481565b611a57611d5d565b6006544211611a9b576040517f08c379a0000000000000000000000000000000000000000000000000000000008152600401611a92906128ea565b60405180910390fd5b806008819055507ffb46ca5a5e06d4540d6387b930a7c978bce0db5f449ec6b3f5d07c6e1d44f2d3600854604051611ad39190612a8a565b60405180910390a150565b600080600b541415611af457600a549050611b69565b611b66611b55600b54611b47670de0b6b3a7640000611b39600754611b2b600954611b1d61155a565b611bf090919063ffffffff16565b611c3a90919063ffffffff16565b611c3a90919063ffffffff16565b611cb590919063ffffffff16565b600a54611cff90919063ffffffff16565b90505b90565b600460019054906101000a900473ffffffffffffffffffffffffffffffffffffffff1681565b600a5481565b611be0601060003373ffffffffffffffffffffffffffffffffffffffff1673ffffffffffffffffffffffffffffffffffffffff1681526020019081526020016000205461090a565b611be861100e565b565b60065481565b6000611c3283836040518060400160405280601e81526020017f536166654d6174683a207375627472616374696f6e206f766572666c6f770000815250611f46565b905092915050565b600080831415611c4d5760009050611caf565b60008284611c5b9190612b5e565b9050828482611c6a9190612b2d565b14611caa576040517f08c379a0000000000000000000000000000000000000000000000000000000008152600401611ca1906129ca565b60405180910390fd5b809150505b92915050565b6000611cf783836040518060400160405280601a81526020017f536166654d6174683a206469766973696f6e206279207a65726f000000000000815250611faa565b905092915050565b6000808284611d0e9190612ad7565b905083811015611d53576040517f08c379a0000000000000000000000000000000000000000000000000000000008152600401611d4a9061294a565b60405180910390fd5b8091505092915050565b60008054906101000a900473ffffffffffffffffffffffffffffffffffffffff1673ffffffffffffffffffffffffffffffffffffffff163373ffffffffffffffffffffffffffffffffffffffff1614611deb576040517f08c379a0000000000000000000000000000000000000000000000000000000008152600401611de29061298a565b60405180910390fd5b565b611e6e8363a9059cbb60e01b8484604051602401611e0c929190612869565b604051602081830303815290604052907bffffffffffffffffffffffffffffffffffffffffffffffffffffffff19166020820180517bffffffffffffffffffffffffffffffffffffffffffffffffffffffff838183161783525050505061200d565b505050565b6000818310611e825781611e84565b825b905092915050565b6000611eb66064611ea8600c5485611c3a90919063ffffffff16565b611cb590919063ffffffff16565b9050919050565b611f40846323b872dd60e01b858585604051602401611ede93929190612832565b604051602081830303815290604052907bffffffffffffffffffffffffffffffffffffffffffffffffffffffff19166020820180517bffffffffffffffffffffffffffffffffffffffffffffffffffffffff838183161783525050505061200d565b50505050565b6000838311158290611f8e576040517f08c379a0000000000000000000000000000000000000000000000000000000008152600401611f8591906128c8565b60405180910390fd5b5060008385611f9d9190612bb8565b9050809150509392505050565b60008083118290611ff1576040517f08c379a0000000000000000000000000000000000000000000000000000000008152600401611fe891906128c8565b60405180910390fd5b50600083856120009190612b2d565b9050809150509392505050565b61202c8273ffffffffffffffffffffffffffffffffffffffff1661217e565b61206b576040517f08c379a000000000000000000000000000000000000000000000000000000000815260040161206290612a6a565b60405180910390fd5b6000808373ffffffffffffffffffffffffffffffffffffffff168360405161209391906127d7565b6000604051808303816000865af19150503d80600081146120d0576040519150601f19603f3d011682016040523d82523d6000602084013e6120d5565b606091505b50915091508161211a576040517f08c379a00000000000000000000000000000000000000000000000000000000081526004016121119061296a565b60405180910390fd5b6000815111156121785780806020019051810190612138919061226f565b612177576040517f08c379a000000000000000000000000000000000000000000000000000000000815260040161216e90612a2a565b60405180910390fd5b5b50505050565b60008060007fc5d2460186f7233c927e7db2dcc703c0e500b653ca82273b7bfad8045d85a47060001b9050833f91508082141580156121c057506000801b8214155b92505050919050565b6000813590506121d881612cfa565b92915050565b6000813590506121ed81612d11565b92915050565b60008151905061220281612d11565b92915050565b60008135905061221781612d28565b92915050565b60006020828403121561222f57600080fd5b600061223d848285016121c9565b91505092915050565b60006020828403121561225857600080fd5b6000612266848285016121de565b91505092915050565b60006020828403121561228157600080fd5b600061228f848285016121f3565b91505092915050565b6000602082840312156122aa57600080fd5b60006122b884828501612208565b91505092915050565b6122ca81612bec565b82525050565b6122d981612bfe565b82525050565b60006122ea82612aa5565b6122f48185612abb565b9350612304818560208601612c58565b80840191505092915050565b61231981612c34565b82525050565b600061232a82612ab0565b6123348185612ac6565b9350612344818560208601612c58565b61234d81612ce9565b840191505092915050565b6000612365605883612ac6565b91507f50726576696f7573207265776172647320706572696f64206d7573742062652060008301527f636f6d706c657465206265666f7265206368616e67696e67207468652064757260208301527f6174696f6e20666f7220746865206e657720706572696f6400000000000000006040830152606082019050919050565b60006123f1603583612ac6565b91507f596f75206d757374206265206e6f6d696e61746564206265666f726520796f7560008301527f2063616e20616363657074206f776e65727368697000000000000000000000006020830152604082019050919050565b6000612457600e83612ac6565b91507f43616e6e6f74207374616b6520300000000000000000000000000000000000006000830152602082019050919050565b6000612497601b83612ac6565b91507f536166654d6174683a206164646974696f6e206f766572666c6f7700000000006000830152602082019050919050565b60006124d7602083612ac6565b91507f5361666545524332303a206c6f772d6c6576656c2063616c6c206661696c65646000830152602082019050919050565b6000612517602f83612ac6565b91507f4f6e6c792074686520636f6e7472616374206f776e6572206d6179207065726660008301527f6f726d207468697320616374696f6e00000000000000000000000000000000006020830152604082019050919050565b600061257d601183612ac6565b91507f43616e6e6f7420776974686472617720300000000000000000000000000000006000830152602082019050919050565b60006125bd602183612ac6565b91507f536166654d6174683a206d756c7469706c69636174696f6e206f766572666c6f60008301527f77000000000000000000000000000000000000000000000000000000000000006020830152604082019050919050565b6000612623603c83612ac6565b91507f5468697320616374696f6e2063616e6e6f7420626520706572666f726d65642060008301527f7768696c652074686520636f6e747261637420697320706175736564000000006020830152604082019050919050565b6000612689602a83612ac6565b91507f43616c6c6572206973206e6f742052657761726473446973747269627574696f60008301527f6e20636f6e7472616374000000000000000000000000000000000000000000006020830152604082019050919050565b60006126ef602a83612ac6565b91507f5361666545524332303a204552433230206f7065726174696f6e20646964206e60008301527f6f742073756363656564000000000000000000000000000000000000000000006020830152604082019050919050565b6000612755601f83612ac6565b91507f5265656e7472616e637947756172643a207265656e7472616e742063616c6c006000830152602082019050919050565b6000612795601f83612ac6565b91507f5361666545524332303a2063616c6c20746f206e6f6e2d636f6e7472616374006000830152602082019050919050565b6127d181612c2a565b82525050565b60006127e382846122df565b915081905092915050565b600060208201905061280360008301846122c1565b92915050565b600060408201905061281e60008301856122c1565b61282b60208301846122c1565b9392505050565b600060608201905061284760008301866122c1565b61285460208301856122c1565b61286160408301846127c8565b949350505050565b600060408201905061287e60008301856122c1565b61288b60208301846127c8565b9392505050565b60006020820190506128a760008301846122d0565b92915050565b60006020820190506128c26000830184612310565b92915050565b600060208201905081810360008301526128e2818461231f565b905092915050565b6000602082019050818103600083015261290381612358565b9050919050565b60006020820190508181036000830152612923816123e4565b9050919050565b600060208201905081810360008301526129438161244a565b9050919050565b600060208201905081810360008301526129638161248a565b9050919050565b60006020820190508181036000830152612983816124ca565b9050919050565b600060208201905081810360008301526129a38161250a565b9050919050565b600060208201905081810360008301526129c381612570565b9050919050565b600060208201905081810360008301526129e3816125b0565b9050919050565b60006020820190508181036000830152612a0381612616565b9050919050565b60006020820190508181036000830152612a238161267c565b9050919050565b60006020820190508181036000830152612a43816126e2565b9050919050565b60006020820190508181036000830152612a6381612748565b9050919050565b60006020820190508181036000830152612a8381612788565b9050919050565b6000602082019050612a9f60008301846127c8565b92915050565b600081519050919050565b600081519050919050565b600081905092915050565b600082825260208201905092915050565b6000612ae282612c2a565b9150612aed83612c2a565b9250827fffffffffffffffffffffffffffffffffffffffffffffffffffffffffffffffff03821115612b2257612b21612c8b565b5b828201905092915050565b6000612b3882612c2a565b9150612b4383612c2a565b925082612b5357612b52612cba565b5b828204905092915050565b6000612b6982612c2a565b9150612b7483612c2a565b9250817fffffffffffffffffffffffffffffffffffffffffffffffffffffffffffffffff0483118215151615612bad57612bac612c8b565b5b828202905092915050565b6000612bc382612c2a565b9150612bce83612c2a565b925082821015612be157612be0612c8b565b5b828203905092915050565b6000612bf782612c0a565b9050919050565b60008115159050919050565b600073ffffffffffffffffffffffffffffffffffffffff82169050919050565b6000819050919050565b6000612c3f82612c46565b9050919050565b6000612c5182612c0a565b9050919050565b60005b83811015612c76578082015181840152602081019050612c5b565b83811115612c85576000848401525b50505050565b7f4e487b7100000000000000000000000000000000000000000000000000000000600052601160045260246000fd5b7f4e487b7100000000000000000000000000000000000000000000000000000000600052601260045260246000fd5b6000601f19601f8301169050919050565b612d0381612bec565b8114612d0e57600080fd5b50565b612d1a81612bfe565b8114612d2557600080fd5b50565b612d3181612c2a565b8114612d3c57600080fd5b5056fea2646970667358221220b3ad8f8ba0a160fad9920b85931a81297cf21f91a08f06dc81f806ffc4c5793964736f6c63430008000033",
  "immutableReferences": {},
  "source": "// SPDX-License-Identifier: GPL-3.0\r\n\r\npragma solidity ^0.8.0;\r\n\r\nimport \"./IRewardsDistributionRecipient.sol\";\r\nimport \"./SafeMath.sol\";\r\nimport \"./IERC20.sol\";\r\nimport \"./IStakingRewards.sol\";\r\nimport \"./ReentrancyGuard.sol\";\r\nimport \"./Pausable.sol\";\r\nimport \"./SafeERC.sol\";\r\nimport \"./Math.sol\";\r\n\r\n\r\n\r\n/*\r\n* MIT License\r\n* ===========\r\n*\r\n* Copyright (c) 2020 Synthetix\r\n*\r\n* Permission is hereby granted, free of charge, to any person obtaining a copy\r\n* of this software and associated documentation files (the \"Software\"), to deal\r\n* in the Software without restriction, including without limitation the rights\r\n* to use, copy, modify, merge, publish, distribute, sublicense, and/or sell\r\n* copies of the Software, and to permit persons to whom the Software is\r\n* furnished to do so, subject to the following conditions:\r\n*\r\n* The above copyright notice and this permission notice shall be included in all\r\n* copies or substantial portions of the Software.\r\n*\r\n* THE SOFTWARE IS PROVIDED \"AS IS\", WITHOUT WARRANTY OF ANY KIND, EXPRESS OR\r\n* IMPLIED, INCLUDING BUT NOT LIMITED TO THE WARRANTIES OF MERCHANTABILITY,\r\n* FITNESS FOR A PARTICULAR PURPOSE AND NONINFRINGEMENT. IN NO EVENT SHALL THE\r\n* AUTHORS OR COPYRIGHT HOLDERS BE LIABLE FOR ANY CLAIM, DAMAGES OR OTHER\r\n* LIABILITY, WHETHER IN AN ACTION OF CONTRACT, TORT OR OTHERWISE, ARISING FROM,\r\n* OUT OF OR IN CONNECTION WITH THE SOFTWARE OR THE USE OR OTHER DEALINGS IN THE\r\n*/\r\ncontract YOLOMonthly is IStakingRewards, IRewardsDistributionRecipient, ReentrancyGuard, Pausable {\r\n\r\n    using SafeMath for uint256;\r\n    using SafeERC20 for IERC20;\r\n\r\n    /* ========== STATE sVARIABLES ========== */\r\n\r\n    IERC20 public rewardsToken;\r\n    IERC20 public stakingToken;\r\n    uint256 public periodFinish = 0;\r\n    uint256 public rewardRate = 0;\r\n    uint256 public rewardsDuration = 31 days;\r\n    uint256 public lastUpdateTime;\r\n    uint256 public rewardPerTokenStored;\r\n    uint256 public _totalSupply;\r\n    uint256 public poolStakeFee = 0; //The stake fee for this pool\r\n    \r\n    address public burn = 0x000000000000000000000000000000000000dEaD;\r\n    mapping(address => uint256) public userRewardPerTokenPaid;\r\n    mapping(address => uint256) public rewards;\r\n\r\n    mapping(address => uint256) private _balances;\r\n    mapping(address => uint256) public stakeTime;\r\n\r\n    /* ========== CONSTRUCTOR ========== */\r\n\r\n    constructor(\r\n        address _owner,\r\n        address _rewardsDistribution,\r\n        address _rewardsToken,\r\n        address _stakingToken\r\n    ) public Owned(_owner) {\r\n        rewardsToken = IERC20(_rewardsToken);\r\n        stakingToken = IERC20(_stakingToken);\r\n        rewardsDistribution = _rewardsDistribution;\r\n    }\r\n\r\n    /* ========== VIEWS ========== */\r\n\r\n    function stakeFee(uint amount) internal view returns (uint256) {\r\n        return amount.mul(poolStakeFee).div(100);\r\n    }\r\n\r\n    function totalSupply() external override view returns (uint256) {\r\n        return _totalSupply;\r\n    }\r\n\r\n    function balanceOf(address account) external override view returns (uint256) {\r\n        return _balances[account];\r\n    }\r\n\r\n    function lastTimeRewardApplicable() public override view returns (uint256) {\r\n        return Math.min(block.timestamp, periodFinish);\r\n    }\r\n\r\n    function rewardPerToken() public override view returns (uint256) {\r\n        if (_totalSupply == 0) {\r\n            return rewardPerTokenStored;\r\n        }\r\n        return\r\n            rewardPerTokenStored.add(\r\n                lastTimeRewardApplicable().sub(lastUpdateTime).mul(rewardRate).mul(1e18).div(_totalSupply)\r\n            );\r\n    }\r\n\r\n    function earned(address account) public override view returns (uint256) {\r\n        return _balances[account].mul(rewardPerToken().sub(userRewardPerTokenPaid[account])).div(1e18).add(rewards[account]);\r\n    }\r\n\r\n    function getRewardForDuration() external override view returns (uint256) {\r\n        return rewardRate.mul(rewardsDuration);\r\n    }\r\n\r\n    /* ========== MUTATIVE FUNCTIONS ========== */\r\n\r\n    function stake(uint256 amount) external override nonReentrant notPaused updateReward(msg.sender) {\r\n        require(amount > 0, \"Cannot stake 0\");\r\n        _totalSupply = _totalSupply.add(amount);\r\n        _balances[msg.sender] = _balances[msg.sender].add(amount.sub(stakeFee(amount)));\r\n        _balances[rewardsDistribution] = _balances[rewardsDistribution].add(stakeFee(amount));\r\n        stakeTime[msg.sender] = block.timestamp + 31 days;\r\n        stakingToken.safeTransferFrom(msg.sender, address(this), amount);\r\n        emit Staked(msg.sender, amount);\r\n    }\r\n\r\n    function withdraw(uint256 amount) public override nonReentrant updateReward(msg.sender) {\r\n        require(amount > 0, \"Cannot withdraw 0\");\r\n        _totalSupply = _totalSupply.sub(amount);\r\n        _balances[msg.sender] = _balances[msg.sender].sub(amount);\r\n        if(msg.sender != rewardsDistribution) {\r\n            if(stakeTime[msg.sender] <= block.timestamp || block.timestamp >= periodFinish) {\r\n                stakingToken.safeTransfer(msg.sender, amount);\r\n            } else {\r\n                stakingToken.safeTransfer(msg.sender, amount.mul(90).div(100));\r\n                stakingToken.safeTransfer(burn, amount.div(10));\r\n            }\r\n        }\r\n        \r\n\r\n        emit Withdrawn(msg.sender, amount);\r\n    }\r\n\r\n    function getReward() public override nonReentrant updateReward(msg.sender) {\r\n        uint256 reward = rewards[msg.sender];\r\n        if (reward > 0) {\r\n          rewards[msg.sender] = 0;\r\n          rewardsToken.safeTransfer(msg.sender, reward);\r\n          emit RewardPaid(msg.sender, reward);\r\n        }\r\n    }\r\n\r\n    function exit() external override {\r\n        withdraw(_balances[msg.sender]);\r\n        getReward();\r\n    }\r\n\r\n    /* ========== RESTRICTED FUNCTIONS ========== */\r\n\r\n    function notifyRewardAmount(uint256 reward) external override onlyRewardsDistribution updateReward(address(0)) {\r\n        if (block.timestamp >= periodFinish) {\r\n            rewardRate = reward.div(rewardsDuration);\r\n        } else {\r\n            uint256 remaining = periodFinish.sub(block.timestamp);\r\n            uint256 leftover = remaining.mul(rewardRate);\r\n            rewardRate = reward.add(leftover).div(rewardsDuration);\r\n        }\r\n\r\n        // Ensure the provided reward amount is not more than the balance in the contract.\r\n        // This keeps the reward rate in the right range, preventing overflows due to\r\n        // very high values of rewardRate in the earned and rewardsPerToken functions;\r\n        // Reward + leftover must be less than 2^256 / 10^18 to avoid overflow.\r\n        //uint balance = rewardsToken.balanceOf(address(this));\r\n        //require(rewardRate <= balance.div(rewardsDuration), \"Provided reward too high\");\r\n\r\n        lastUpdateTime = block.timestamp;\r\n        periodFinish = block.timestamp.add(rewardsDuration);\r\n        emit RewardAdded(reward);\r\n    }\r\n\r\n    function setRewardsDuration(uint256 _rewardsDuration) external onlyOwner {\r\n        require(block.timestamp > periodFinish,\r\n            \"Previous rewards period must be complete before changing the duration for the new period\"\r\n        );\r\n        rewardsDuration = _rewardsDuration;\r\n        emit RewardsDurationUpdated(rewardsDuration);\r\n    }\r\n\r\n    /* ========== MODIFIERS ========== */\r\n\r\n    modifier updateReward(address account) {\r\n        rewardPerTokenStored = rewardPerToken();\r\n        lastUpdateTime = lastTimeRewardApplicable();\r\n        if (account != address(0)) {\r\n            rewards[account] = earned(account);\r\n            userRewardPerTokenPaid[account] = rewardPerTokenStored;\r\n        }\r\n        _;\r\n    }\r\n\r\n    /* ========== EVENTS ========== */\r\n\r\n    event RewardAdded(uint256 reward);\r\n    event Staked(address indexed user, uint256 amount);\r\n    event Withdrawn(address indexed user, uint256 amount);\r\n    event RewardPaid(address indexed user, uint256 reward);\r\n    event RewardsDurationUpdated(uint256 newDuration);\r\n}\r\n",
  "sourcePath": "D:/fiverr/marchAngeloh/Assignment1/Integrated-pack/contracts/YOLOMonthly.sol",
  "compiler": {
    "name": "solc",
    "version": "0.8.0+commit.c7dfd78e.Emscripten.clang"
  },
  "schemaVersion": "3.3.4",
  "updatedAt": "2021-05-18T15:17:47.432Z",
  "networkType": "ethereum",
  "devdoc": {
    "kind": "dev",
    "methods": {
      "setPaused(bool)": {
        "details": "Only the contract owner may call this."
      }
    },
    "version": 1
  },
  "userdoc": {
    "kind": "user",
    "methods": {
      "setPaused(bool)": {
        "notice": "Change the paused state of the contract"
      }
    },
    "version": 1
  }
}