{
  "contractName": "YOLOWeekly",
  "abi": [
    {
      "inputs": [
        {
          "internalType": "address",
          "name": "_owner",
          "type": "address"
        },
        {
          "internalType": "address",
          "name": "_rewardsDistribution",
          "type": "address"
        },
        {
          "internalType": "address",
          "name": "_rewardsToken",
          "type": "address"
        },
        {
          "internalType": "address",
          "name": "_stakingToken",
          "type": "address"
        }
      ],
      "stateMutability": "nonpayable",
      "type": "constructor"
    },
    {
      "anonymous": false,
      "inputs": [
        {
          "indexed": false,
          "internalType": "address",
          "name": "oldOwner",
          "type": "address"
        },
        {
          "indexed": false,
          "internalType": "address",
          "name": "newOwner",
          "type": "address"
        }
      ],
      "name": "OwnerChanged",
      "type": "event"
    },
    {
      "anonymous": false,
      "inputs": [
        {
          "indexed": false,
          "internalType": "address",
          "name": "newOwner",
          "type": "address"
        }
      ],
      "name": "OwnerNominated",
      "type": "event"
    },
    {
      "anonymous": false,
      "inputs": [
        {
          "indexed": false,
          "internalType": "bool",
          "name": "isPaused",
          "type": "bool"
        }
      ],
      "name": "PauseChanged",
      "type": "event"
    },
    {
      "anonymous": false,
      "inputs": [
        {
          "indexed": false,
          "internalType": "uint256",
          "name": "reward",
          "type": "uint256"
        }
      ],
      "name": "RewardAdded",
      "type": "event"
    },
    {
      "anonymous": false,
      "inputs": [
        {
          "indexed": true,
          "internalType": "address",
          "name": "user",
          "type": "address"
        },
        {
          "indexed": false,
          "internalType": "uint256",
          "name": "reward",
          "type": "uint256"
        }
      ],
      "name": "RewardPaid",
      "type": "event"
    },
    {
      "anonymous": false,
      "inputs": [
        {
          "indexed": false,
          "internalType": "uint256",
          "name": "newDuration",
          "type": "uint256"
        }
      ],
      "name": "RewardsDurationUpdated",
      "type": "event"
    },
    {
      "anonymous": false,
      "inputs": [
        {
          "indexed": true,
          "internalType": "address",
          "name": "user",
          "type": "address"
        },
        {
          "indexed": false,
          "internalType": "uint256",
          "name": "amount",
          "type": "uint256"
        }
      ],
      "name": "Staked",
      "type": "event"
    },
    {
      "anonymous": false,
      "inputs": [
        {
          "indexed": true,
          "internalType": "address",
          "name": "user",
          "type": "address"
        },
        {
          "indexed": false,
          "internalType": "uint256",
          "name": "amount",
          "type": "uint256"
        }
      ],
      "name": "Withdrawn",
      "type": "event"
    },
    {
      "inputs": [],
      "name": "_totalSupply",
      "outputs": [
        {
          "internalType": "uint256",
          "name": "",
          "type": "uint256"
        }
      ],
      "stateMutability": "view",
      "type": "function",
      "constant": true
    },
    {
      "inputs": [],
      "name": "acceptOwnership",
      "outputs": [],
      "stateMutability": "nonpayable",
      "type": "function"
    },
    {
      "inputs": [],
      "name": "burn",
      "outputs": [
        {
          "internalType": "address",
          "name": "",
          "type": "address"
        }
      ],
      "stateMutability": "view",
      "type": "function",
      "constant": true
    },
    {
      "inputs": [],
      "name": "lastPauseTime",
      "outputs": [
        {
          "internalType": "uint256",
          "name": "",
          "type": "uint256"
        }
      ],
      "stateMutability": "view",
      "type": "function",
      "constant": true
    },
    {
      "inputs": [],
      "name": "lastUpdateTime",
      "outputs": [
        {
          "internalType": "uint256",
          "name": "",
          "type": "uint256"
        }
      ],
      "stateMutability": "view",
      "type": "function",
      "constant": true
    },
    {
      "inputs": [
        {
          "internalType": "address",
          "name": "_owner",
          "type": "address"
        }
      ],
      "name": "nominateNewOwner",
      "outputs": [],
      "stateMutability": "nonpayable",
      "type": "function"
    },
    {
      "inputs": [],
      "name": "nominatedOwner",
      "outputs": [
        {
          "internalType": "address",
          "name": "",
          "type": "address"
        }
      ],
      "stateMutability": "view",
      "type": "function",
      "constant": true
    },
    {
      "inputs": [],
      "name": "owner",
      "outputs": [
        {
          "internalType": "address",
          "name": "",
          "type": "address"
        }
      ],
      "stateMutability": "view",
      "type": "function",
      "constant": true
    },
    {
      "inputs": [],
      "name": "paused",
      "outputs": [
        {
          "internalType": "bool",
          "name": "",
          "type": "bool"
        }
      ],
      "stateMutability": "view",
      "type": "function",
      "constant": true
    },
    {
      "inputs": [],
      "name": "periodFinish",
      "outputs": [
        {
          "internalType": "uint256",
          "name": "",
          "type": "uint256"
        }
      ],
      "stateMutability": "view",
      "type": "function",
      "constant": true
    },
    {
      "inputs": [],
      "name": "poolStakeFee",
      "outputs": [
        {
          "internalType": "uint256",
          "name": "",
          "type": "uint256"
        }
      ],
      "stateMutability": "view",
      "type": "function",
      "constant": true
    },
    {
      "inputs": [],
      "name": "rewardPerTokenStored",
      "outputs": [
        {
          "internalType": "uint256",
          "name": "",
          "type": "uint256"
        }
      ],
      "stateMutability": "view",
      "type": "function",
      "constant": true
    },
    {
      "inputs": [],
      "name": "rewardRate",
      "outputs": [
        {
          "internalType": "uint256",
          "name": "",
          "type": "uint256"
        }
      ],
      "stateMutability": "view",
      "type": "function",
      "constant": true
    },
    {
      "inputs": [
        {
          "internalType": "address",
          "name": "",
          "type": "address"
        }
      ],
      "name": "rewards",
      "outputs": [
        {
          "internalType": "uint256",
          "name": "",
          "type": "uint256"
        }
      ],
      "stateMutability": "view",
      "type": "function",
      "constant": true
    },
    {
      "inputs": [],
      "name": "rewardsDistribution",
      "outputs": [
        {
          "internalType": "address",
          "name": "",
          "type": "address"
        }
      ],
      "stateMutability": "view",
      "type": "function",
      "constant": true
    },
    {
      "inputs": [],
      "name": "rewardsDuration",
      "outputs": [
        {
          "internalType": "uint256",
          "name": "",
          "type": "uint256"
        }
      ],
      "stateMutability": "view",
      "type": "function",
      "constant": true
    },
    {
      "inputs": [],
      "name": "rewardsToken",
      "outputs": [
        {
          "internalType": "contract IERC20",
          "name": "",
          "type": "address"
        }
      ],
      "stateMutability": "view",
      "type": "function",
      "constant": true
    },
    {
      "inputs": [
        {
          "internalType": "bool",
          "name": "_paused",
          "type": "bool"
        }
      ],
      "name": "setPaused",
      "outputs": [],
      "stateMutability": "nonpayable",
      "type": "function"
    },
    {
      "inputs": [
        {
          "internalType": "address",
          "name": "_rewardsDistribution",
          "type": "address"
        }
      ],
      "name": "setRewardsDistribution",
      "outputs": [],
      "stateMutability": "nonpayable",
      "type": "function"
    },
    {
      "inputs": [
        {
          "internalType": "address",
          "name": "",
          "type": "address"
        }
      ],
      "name": "stakeTime",
      "outputs": [
        {
          "internalType": "uint256",
          "name": "",
          "type": "uint256"
        }
      ],
      "stateMutability": "view",
      "type": "function",
      "constant": true
    },
    {
      "inputs": [],
      "name": "stakingToken",
      "outputs": [
        {
          "internalType": "contract IERC20",
          "name": "",
          "type": "address"
        }
      ],
      "stateMutability": "view",
      "type": "function",
      "constant": true
    },
    {
      "inputs": [
        {
          "internalType": "address",
          "name": "",
          "type": "address"
        }
      ],
      "name": "userRewardPerTokenPaid",
      "outputs": [
        {
          "internalType": "uint256",
          "name": "",
          "type": "uint256"
        }
      ],
      "stateMutability": "view",
      "type": "function",
      "constant": true
    },
    {
      "inputs": [],
      "name": "totalSupply",
      "outputs": [
        {
          "internalType": "uint256",
          "name": "",
          "type": "uint256"
        }
      ],
      "stateMutability": "view",
      "type": "function",
      "constant": true
    },
    {
      "inputs": [
        {
          "internalType": "address",
          "name": "account",
          "type": "address"
        }
      ],
      "name": "balanceOf",
      "outputs": [
        {
          "internalType": "uint256",
          "name": "",
          "type": "uint256"
        }
      ],
      "stateMutability": "view",
      "type": "function",
      "constant": true
    },
    {
      "inputs": [],
      "name": "lastTimeRewardApplicable",
      "outputs": [
        {
          "internalType": "uint256",
          "name": "",
          "type": "uint256"
        }
      ],
      "stateMutability": "view",
      "type": "function",
      "constant": true
    },
    {
      "inputs": [],
      "name": "rewardPerToken",
      "outputs": [
        {
          "internalType": "uint256",
          "name": "",
          "type": "uint256"
        }
      ],
      "stateMutability": "view",
      "type": "function",
      "constant": true
    },
    {
      "inputs": [
        {
          "internalType": "address",
          "name": "account",
          "type": "address"
        }
      ],
      "name": "earned",
      "outputs": [
        {
          "internalType": "uint256",
          "name": "",
          "type": "uint256"
        }
      ],
      "stateMutability": "view",
      "type": "function",
      "constant": true
    },
    {
      "inputs": [],
      "name": "getRewardForDuration",
      "outputs": [
        {
          "internalType": "uint256",
          "name": "",
          "type": "uint256"
        }
      ],
      "stateMutability": "view",
      "type": "function",
      "constant": true
    },
    {
      "inputs": [
        {
          "internalType": "uint256",
          "name": "amount",
          "type": "uint256"
        }
      ],
      "name": "stake",
      "outputs": [],
      "stateMutability": "nonpayable",
      "type": "function"
    },
    {
      "inputs": [
        {
          "internalType": "uint256",
          "name": "amount",
          "type": "uint256"
        }
      ],
      "name": "withdraw",
      "outputs": [],
      "stateMutability": "nonpayable",
      "type": "function"
    },
    {
      "inputs": [],
      "name": "getReward",
      "outputs": [],
      "stateMutability": "nonpayable",
      "type": "function"
    },
    {
      "inputs": [],
      "name": "exit",
      "outputs": [],
      "stateMutability": "nonpayable",
      "type": "function"
    },
    {
      "inputs": [
        {
          "internalType": "uint256",
          "name": "reward",
          "type": "uint256"
        }
      ],
      "name": "notifyRewardAmount",
      "outputs": [],
      "stateMutability": "nonpayable",
      "type": "function"
    },
    {
      "inputs": [
        {
          "internalType": "uint256",
          "name": "_rewardsDuration",
          "type": "uint256"
        }
      ],
      "name": "setRewardsDuration",
      "outputs": [],
      "stateMutability": "nonpayable",
      "type": "function"
    }
  ],
  "bytecode": "0x60806040526000600655600060075562093a806008556000600c5561dead600d60006101000a81548173ffffffffffffffffffffffffffffffffffffffff021916908373ffffffffffffffffffffffffffffffffffffffff1602179055503480156200006a57600080fd5b506040516200327c3803806200327c833981810160405281019062000090919062000313565b83600073ffffffffffffffffffffffffffffffffffffffff168173ffffffffffffffffffffffffffffffffffffffff16141562000104576040517f08c379a0000000000000000000000000000000000000000000000000000000008152600401620000fb9062000463565b60405180910390fd5b806000806101000a81548173ffffffffffffffffffffffffffffffffffffffff021916908373ffffffffffffffffffffffffffffffffffffffff1602179055507fb532073b38c83145e3e5135377a08bf9aab55bc0fd7c1179cd4fb995d2a5159c6000826040516200017892919062000414565b60405180910390a1506001600260146101000a81548160ff021916908315150217905550600073ffffffffffffffffffffffffffffffffffffffff1660008054906101000a900473ffffffffffffffffffffffffffffffffffffffff1673ffffffffffffffffffffffffffffffffffffffff1614156200022f576040517f08c379a0000000000000000000000000000000000000000000000000000000008152600401620002269062000441565b60405180910390fd5b81600460016101000a81548173ffffffffffffffffffffffffffffffffffffffff021916908373ffffffffffffffffffffffffffffffffffffffff16021790555080600560006101000a81548173ffffffffffffffffffffffffffffffffffffffff021916908373ffffffffffffffffffffffffffffffffffffffff16021790555082600260006101000a81548173ffffffffffffffffffffffffffffffffffffffff021916908373ffffffffffffffffffffffffffffffffffffffff16021790555050505050620004e4565b6000815190506200030d81620004ca565b92915050565b600080600080608085870312156200032a57600080fd5b60006200033a87828801620002fc565b94505060206200034d87828801620002fc565b93505060406200036087828801620002fc565b92505060606200037387828801620002fc565b91505092959194509250565b6200038a8162000496565b82525050565b60006200039f60118362000485565b91507f4f776e6572206d757374206265207365740000000000000000000000000000006000830152602082019050919050565b6000620003e160198362000485565b91507f4f776e657220616464726573732063616e6e6f742062652030000000000000006000830152602082019050919050565b60006040820190506200042b60008301856200037f565b6200043a60208301846200037f565b9392505050565b600060208201905081810360008301526200045c8162000390565b9050919050565b600060208201905081810360008301526200047e81620003d2565b9050919050565b600082825260208201905092915050565b6000620004a382620004aa565b9050919050565b600073ffffffffffffffffffffffffffffffffffffffff82169050919050565b620004d58162000496565b8114620004e157600080fd5b50565b612d8880620004f46000396000f3fe608060405234801561001057600080fd5b50600436106102055760003560e01c80635c975abb1161011a57806391b4ded9116100ad578063cd3daf9d1161007c578063cd3daf9d14610594578063d1af0c7d146105b2578063df136d65146105d0578063e9fad8ee146105ee578063ebe2b12b146105f857610205565b806391b4ded914610520578063a694fc3a1461053e578063c8f33c911461055a578063cc1a378f1461057857610205565b80637b0a47ee116100e95780637b0a47ee1461049657806380faa57d146104b45780638b876347146104d25780638da5cb5b1461050257610205565b80635c975abb1461042057806370a082311461043e57806372f702f31461046e57806379ba50971461048c57610205565b80632170e4721161019d5780633d18b9121161016c5780633d18b9121461039e5780633eaaf86b146103a85780633fc6df6e146103c657806344df8e70146103e457806353a47bb71461040257610205565b80632170e472146103185780632e1a7d4d14610348578063386a9525146103645780633c6b16ab1461038257610205565b806316c38b3c116101d957806316c38b3c146102a457806318160ddd146102c057806319762143146102de5780631c1f78eb146102fa57610205565b80628cc2621461020a5780630700037d1461023a57806315ab8a5a1461026a5780631627540c14610288575b600080fd5b610224600480360381019061021f9190612230565b610616565b6040516102319190612a9d565b60405180910390f35b610254600480360381019061024f9190612230565b610734565b6040516102619190612a9d565b60405180910390f35b61027261074c565b60405161027f9190612a9d565b60405180910390f35b6102a2600480360381019061029d9190612230565b610752565b005b6102be60048036038101906102b99190612259565b6107d5565b005b6102c861087e565b6040516102d59190612a9d565b60405180910390f35b6102f860048036038101906102f39190612230565b610888565b005b6103026108d4565b60405161030f9190612a9d565b60405180910390f35b610332600480360381019061032d9190612230565b6108f2565b60405161033f9190612a9d565b60405180910390f35b610362600480360381019061035d91906122ab565b61090a565b005b61036c610dbe565b6040516103799190612a9d565b60405180910390f35b61039c600480360381019061039791906122ab565b610dc4565b005b6103a6611021565b005b6103b06112bc565b6040516103bd9190612a9d565b60405180910390f35b6103ce6112c2565b6040516103db9190612801565b60405180910390f35b6103ec6112e8565b6040516103f99190612801565b60405180910390f35b61040a61130e565b6040516104179190612801565b60405180910390f35b610428611334565b60405161043591906128a5565b60405180910390f35b61045860048036038101906104539190612230565b611347565b6040516104659190612a9d565b60405180910390f35b610476611390565b60405161048391906128c0565b60405180910390f35b6104946113b6565b005b61049e611567565b6040516104ab9190612a9d565b60405180910390f35b6104bc61156d565b6040516104c99190612a9d565b60405180910390f35b6104ec60048036038101906104e79190612230565b611580565b6040516104f99190612a9d565b60405180910390f35b61050a611598565b6040516105179190612801565b60405180910390f35b6105286115bc565b6040516105359190612a9d565b60405180910390f35b610558600480360381019061055391906122ab565b6115c2565b005b610562611a5c565b60405161056f9190612a9d565b60405180910390f35b610592600480360381019061058d91906122ab565b611a62565b005b61059c611af1565b6040516105a99190612a9d565b60405180910390f35b6105ba611b7f565b6040516105c791906128c0565b60405180910390f35b6105d8611ba5565b6040516105e59190612a9d565b60405180910390f35b6105f6611bab565b005b610600611bfd565b60405161060d9190612a9d565b60405180910390f35b600061072d600f60008473ffffffffffffffffffffffffffffffffffffffff1673ffffffffffffffffffffffffffffffffffffffff1681526020019081526020016000205461071f670de0b6b3a76400006107116106c3600e60008973ffffffffffffffffffffffffffffffffffffffff1673ffffffffffffffffffffffffffffffffffffffff168152602001908152602001600020546106b5611af1565b611c0390919063ffffffff16565b601060008973ffffffffffffffffffffffffffffffffffffffff1673ffffffffffffffffffffffffffffffffffffffff16815260200190815260200160002054611c4d90919063ffffffff16565b611cc890919063ffffffff16565b611d1290919063ffffffff16565b9050919050565b600f6020528060005260406000206000915090505481565b600c5481565b61075a611d70565b80600160006101000a81548173ffffffffffffffffffffffffffffffffffffffff021916908373ffffffffffffffffffffffffffffffffffffffff1602179055507f906a1c6bd7e3091ea86693dd029a831c19049ce77f1dce2ce0bab1cacbabce22816040516107ca9190612801565b60405180910390a150565b6107dd611d70565b600460009054906101000a900460ff16151581151514156107fd5761087b565b80600460006101000a81548160ff021916908315150217905550600460009054906101000a900460ff161561083457426003819055505b7f8fb6c181ee25a520cf3dd6565006ef91229fcfe5a989566c2a3b8c115570cec5600460009054906101000a900460ff1660405161087291906128a5565b60405180910390a15b50565b6000600b54905090565b610890611d70565b80600260006101000a81548173ffffffffffffffffffffffffffffffffffffffff021916908373ffffffffffffffffffffffffffffffffffffffff16021790555050565b60006108ed600854600754611c4d90919063ffffffff16565b905090565b60116020528060005260406000206000915090505481565b600260149054906101000a900460ff16610959576040517f08c379a000000000000000000000000000000000000000000000000000000000815260040161095090612a5d565b60405180910390fd5b6000600260146101000a81548160ff0219169083151502179055503361097d611af1565b600a8190555061098b61156d565b600981905550600073ffffffffffffffffffffffffffffffffffffffff168173ffffffffffffffffffffffffffffffffffffffff1614610a58576109ce81610616565b600f60008373ffffffffffffffffffffffffffffffffffffffff1673ffffffffffffffffffffffffffffffffffffffff16815260200190815260200160002081905550600a54600e60008373ffffffffffffffffffffffffffffffffffffffff1673ffffffffffffffffffffffffffffffffffffffff168152602001908152602001600020819055505b60008211610a9b576040517f08c379a0000000000000000000000000000000000000000000000000000000008152600401610a92906129bd565b60405180910390fd5b610ab082600b54611c0390919063ffffffff16565b600b81905550610b0882601060003373ffffffffffffffffffffffffffffffffffffffff1673ffffffffffffffffffffffffffffffffffffffff16815260200190815260200160002054611c0390919063ffffffff16565b601060003373ffffffffffffffffffffffffffffffffffffffff1673ffffffffffffffffffffffffffffffffffffffff16815260200190815260200160002081905550600260009054906101000a900473ffffffffffffffffffffffffffffffffffffffff1673ffffffffffffffffffffffffffffffffffffffff163373ffffffffffffffffffffffffffffffffffffffff1614610d515742601160003373ffffffffffffffffffffffffffffffffffffffff1673ffffffffffffffffffffffffffffffffffffffff16815260200190815260200160002054111580610bf057506006544210155b15610c4757610c423383600560009054906101000a900473ffffffffffffffffffffffffffffffffffffffff1673ffffffffffffffffffffffffffffffffffffffff16611e009092919063ffffffff16565b610d50565b610cba33610c726064610c64604187611c4d90919063ffffffff16565b611cc890919063ffffffff16565b600560009054906101000a900473ffffffffffffffffffffffffffffffffffffffff1673ffffffffffffffffffffffffffffffffffffffff16611e009092919063ffffffff16565b610d4f600d60009054906101000a900473ffffffffffffffffffffffffffffffffffffffff16610d076064610cf9602387611c4d90919063ffffffff16565b611cc890919063ffffffff16565b600560009054906101000a900473ffffffffffffffffffffffffffffffffffffffff1673ffffffffffffffffffffffffffffffffffffffff16611e009092919063ffffffff16565b5b5b3373ffffffffffffffffffffffffffffffffffffffff167f7084f5476618d8e60b11ef0d7d3f06914655adb8793e28ff7f018d4c76d505d583604051610d979190612a9d565b60405180910390a2506001600260146101000a81548160ff02191690831515021790555050565b60085481565b600260009054906101000a900473ffffffffffffffffffffffffffffffffffffffff1673ffffffffffffffffffffffffffffffffffffffff163373ffffffffffffffffffffffffffffffffffffffff1614610e54576040517f08c379a0000000000000000000000000000000000000000000000000000000008152600401610e4b90612a1d565b60405180910390fd5b6000610e5e611af1565b600a81905550610e6c61156d565b600981905550600073ffffffffffffffffffffffffffffffffffffffff168173ffffffffffffffffffffffffffffffffffffffff1614610f3957610eaf81610616565b600f60008373ffffffffffffffffffffffffffffffffffffffff1673ffffffffffffffffffffffffffffffffffffffff16815260200190815260200160002081905550600a54600e60008373ffffffffffffffffffffffffffffffffffffffff1673ffffffffffffffffffffffffffffffffffffffff168152602001908152602001600020819055505b6006544210610f6257610f5760085483611cc890919063ffffffff16565b600781905550610fc4565b6000610f7942600654611c0390919063ffffffff16565b90506000610f9260075483611c4d90919063ffffffff16565b9050610fbb600854610fad8387611d1290919063ffffffff16565b611cc890919063ffffffff16565b60078190555050505b42600981905550610fe060085442611d1290919063ffffffff16565b6006819055507fde88a922e0d3b88b24e9623efeb464919c6bf9f66857a65e2bfcf2ce87a9433d826040516110159190612a9d565b60405180910390a15050565b600260149054906101000a900460ff16611070576040517f08c379a000000000000000000000000000000000000000000000000000000000815260040161106790612a5d565b60405180910390fd5b6000600260146101000a81548160ff02191690831515021790555033611094611af1565b600a819055506110a261156d565b600981905550600073ffffffffffffffffffffffffffffffffffffffff168173ffffffffffffffffffffffffffffffffffffffff161461116f576110e581610616565b600f60008373ffffffffffffffffffffffffffffffffffffffff1673ffffffffffffffffffffffffffffffffffffffff16815260200190815260200160002081905550600a54600e60008373ffffffffffffffffffffffffffffffffffffffff1673ffffffffffffffffffffffffffffffffffffffff168152602001908152602001600020819055505b6000600f60003373ffffffffffffffffffffffffffffffffffffffff1673ffffffffffffffffffffffffffffffffffffffff168152602001908152602001600020549050600081111561129d576000600f60003373ffffffffffffffffffffffffffffffffffffffff1673ffffffffffffffffffffffffffffffffffffffff1681526020019081526020016000208190555061124e3382600460019054906101000a900473ffffffffffffffffffffffffffffffffffffffff1673ffffffffffffffffffffffffffffffffffffffff16611e009092919063ffffffff16565b3373ffffffffffffffffffffffffffffffffffffffff167fe2403640ba68fed3a2f88b7557551d1993f84b99bb10ff833f0cf8db0c5e0486826040516112949190612a9d565b60405180910390a25b50506001600260146101000a81548160ff021916908315150217905550565b600b5481565b600260009054906101000a900473ffffffffffffffffffffffffffffffffffffffff1681565b600d60009054906101000a900473ffffffffffffffffffffffffffffffffffffffff1681565b600160009054906101000a900473ffffffffffffffffffffffffffffffffffffffff1681565b600460009054906101000a900460ff1681565b6000601060008373ffffffffffffffffffffffffffffffffffffffff1673ffffffffffffffffffffffffffffffffffffffff168152602001908152602001600020549050919050565b600560009054906101000a900473ffffffffffffffffffffffffffffffffffffffff1681565b600160009054906101000a900473ffffffffffffffffffffffffffffffffffffffff1673ffffffffffffffffffffffffffffffffffffffff163373ffffffffffffffffffffffffffffffffffffffff1614611446576040517f08c379a000000000000000000000000000000000000000000000000000000000815260040161143d9061291d565b60405180910390fd5b7fb532073b38c83145e3e5135377a08bf9aab55bc0fd7c1179cd4fb995d2a5159c60008054906101000a900473ffffffffffffffffffffffffffffffffffffffff16600160009054906101000a900473ffffffffffffffffffffffffffffffffffffffff166040516114b992919061281c565b60405180910390a1600160009054906101000a900473ffffffffffffffffffffffffffffffffffffffff166000806101000a81548173ffffffffffffffffffffffffffffffffffffffff021916908373ffffffffffffffffffffffffffffffffffffffff1602179055506000600160006101000a81548173ffffffffffffffffffffffffffffffffffffffff021916908373ffffffffffffffffffffffffffffffffffffffff160217905550565b60075481565b600061157b42600654611e86565b905090565b600e6020528060005260406000206000915090505481565b60008054906101000a900473ffffffffffffffffffffffffffffffffffffffff1681565b60035481565b600260149054906101000a900460ff16611611576040517f08c379a000000000000000000000000000000000000000000000000000000000815260040161160890612a5d565b60405180910390fd5b6000600260146101000a81548160ff021916908315150217905550600460009054906101000a900460ff161561167c576040517f08c379a0000000000000000000000000000000000000000000000000000000008152600401611673906129fd565b60405180910390fd5b33611685611af1565b600a8190555061169361156d565b600981905550600073ffffffffffffffffffffffffffffffffffffffff168173ffffffffffffffffffffffffffffffffffffffff1614611760576116d681610616565b600f60008373ffffffffffffffffffffffffffffffffffffffff1673ffffffffffffffffffffffffffffffffffffffff16815260200190815260200160002081905550600a54600e60008373ffffffffffffffffffffffffffffffffffffffff1673ffffffffffffffffffffffffffffffffffffffff168152602001908152602001600020819055505b600082116117a3576040517f08c379a000000000000000000000000000000000000000000000000000000000815260040161179a9061293d565b60405180910390fd5b6117b882600b54611d1290919063ffffffff16565b600b8190555061182a6117dc6117cd84611e9f565b84611c0390919063ffffffff16565b601060003373ffffffffffffffffffffffffffffffffffffffff1673ffffffffffffffffffffffffffffffffffffffff16815260200190815260200160002054611d1290919063ffffffff16565b601060003373ffffffffffffffffffffffffffffffffffffffff1673ffffffffffffffffffffffffffffffffffffffff168152602001908152602001600020819055506118e961187983611e9f565b60106000600260009054906101000a900473ffffffffffffffffffffffffffffffffffffffff1673ffffffffffffffffffffffffffffffffffffffff1673ffffffffffffffffffffffffffffffffffffffff16815260200190815260200160002054611d1290919063ffffffff16565b60106000600260009054906101000a900473ffffffffffffffffffffffffffffffffffffffff1673ffffffffffffffffffffffffffffffffffffffff1673ffffffffffffffffffffffffffffffffffffffff1681526020019081526020016000208190555062093a804261195d9190612aea565b601160003373ffffffffffffffffffffffffffffffffffffffff1673ffffffffffffffffffffffffffffffffffffffff168152602001908152602001600020819055506119ef333084600560009054906101000a900473ffffffffffffffffffffffffffffffffffffffff1673ffffffffffffffffffffffffffffffffffffffff16611ed0909392919063ffffffff16565b3373ffffffffffffffffffffffffffffffffffffffff167f9e71bc8eea02a63969f509818f2dafb9254532904319f9dbda79b67bd34a5f3d83604051611a359190612a9d565b60405180910390a2506001600260146101000a81548160ff02191690831515021790555050565b60095481565b611a6a611d70565b6006544211611aae576040517f08c379a0000000000000000000000000000000000000000000000000000000008152600401611aa5906128fd565b60405180910390fd5b806008819055507ffb46ca5a5e06d4540d6387b930a7c978bce0db5f449ec6b3f5d07c6e1d44f2d3600854604051611ae69190612a9d565b60405180910390a150565b600080600b541415611b0757600a549050611b7c565b611b79611b68600b54611b5a670de0b6b3a7640000611b4c600754611b3e600954611b3061156d565b611c0390919063ffffffff16565b611c4d90919063ffffffff16565b611c4d90919063ffffffff16565b611cc890919063ffffffff16565b600a54611d1290919063ffffffff16565b90505b90565b600460019054906101000a900473ffffffffffffffffffffffffffffffffffffffff1681565b600a5481565b611bf3601060003373ffffffffffffffffffffffffffffffffffffffff1673ffffffffffffffffffffffffffffffffffffffff1681526020019081526020016000205461090a565b611bfb611021565b565b60065481565b6000611c4583836040518060400160405280601e81526020017f536166654d6174683a207375627472616374696f6e206f766572666c6f770000815250611f59565b905092915050565b600080831415611c605760009050611cc2565b60008284611c6e9190612b71565b9050828482611c7d9190612b40565b14611cbd576040517f08c379a0000000000000000000000000000000000000000000000000000000008152600401611cb4906129dd565b60405180910390fd5b809150505b92915050565b6000611d0a83836040518060400160405280601a81526020017f536166654d6174683a206469766973696f6e206279207a65726f000000000000815250611fbd565b905092915050565b6000808284611d219190612aea565b905083811015611d66576040517f08c379a0000000000000000000000000000000000000000000000000000000008152600401611d5d9061295d565b60405180910390fd5b8091505092915050565b60008054906101000a900473ffffffffffffffffffffffffffffffffffffffff1673ffffffffffffffffffffffffffffffffffffffff163373ffffffffffffffffffffffffffffffffffffffff1614611dfe576040517f08c379a0000000000000000000000000000000000000000000000000000000008152600401611df59061299d565b60405180910390fd5b565b611e818363a9059cbb60e01b8484604051602401611e1f92919061287c565b604051602081830303815290604052907bffffffffffffffffffffffffffffffffffffffffffffffffffffffff19166020820180517bffffffffffffffffffffffffffffffffffffffffffffffffffffffff8381831617835250505050612020565b505050565b6000818310611e955781611e97565b825b905092915050565b6000611ec96064611ebb600c5485611c4d90919063ffffffff16565b611cc890919063ffffffff16565b9050919050565b611f53846323b872dd60e01b858585604051602401611ef193929190612845565b604051602081830303815290604052907bffffffffffffffffffffffffffffffffffffffffffffffffffffffff19166020820180517bffffffffffffffffffffffffffffffffffffffffffffffffffffffff8381831617835250505050612020565b50505050565b6000838311158290611fa1576040517f08c379a0000000000000000000000000000000000000000000000000000000008152600401611f9891906128db565b60405180910390fd5b5060008385611fb09190612bcb565b9050809150509392505050565b60008083118290612004576040517f08c379a0000000000000000000000000000000000000000000000000000000008152600401611ffb91906128db565b60405180910390fd5b50600083856120139190612b40565b9050809150509392505050565b61203f8273ffffffffffffffffffffffffffffffffffffffff16612191565b61207e576040517f08c379a000000000000000000000000000000000000000000000000000000000815260040161207590612a7d565b60405180910390fd5b6000808373ffffffffffffffffffffffffffffffffffffffff16836040516120a691906127ea565b6000604051808303816000865af19150503d80600081146120e3576040519150601f19603f3d011682016040523d82523d6000602084013e6120e8565b606091505b50915091508161212d576040517f08c379a00000000000000000000000000000000000000000000000000000000081526004016121249061297d565b60405180910390fd5b60008151111561218b578080602001905181019061214b9190612282565b61218a576040517f08c379a000000000000000000000000000000000000000000000000000000000815260040161218190612a3d565b60405180910390fd5b5b50505050565b60008060007fc5d2460186f7233c927e7db2dcc703c0e500b653ca82273b7bfad8045d85a47060001b9050833f91508082141580156121d357506000801b8214155b92505050919050565b6000813590506121eb81612d0d565b92915050565b60008135905061220081612d24565b92915050565b60008151905061221581612d24565b92915050565b60008135905061222a81612d3b565b92915050565b60006020828403121561224257600080fd5b6000612250848285016121dc565b91505092915050565b60006020828403121561226b57600080fd5b6000612279848285016121f1565b91505092915050565b60006020828403121561229457600080fd5b60006122a284828501612206565b91505092915050565b6000602082840312156122bd57600080fd5b60006122cb8482850161221b565b91505092915050565b6122dd81612bff565b82525050565b6122ec81612c11565b82525050565b60006122fd82612ab8565b6123078185612ace565b9350612317818560208601612c6b565b80840191505092915050565b61232c81612c47565b82525050565b600061233d82612ac3565b6123478185612ad9565b9350612357818560208601612c6b565b61236081612cfc565b840191505092915050565b6000612378605883612ad9565b91507f50726576696f7573207265776172647320706572696f64206d7573742062652060008301527f636f6d706c657465206265666f7265206368616e67696e67207468652064757260208301527f6174696f6e20666f7220746865206e657720706572696f6400000000000000006040830152606082019050919050565b6000612404603583612ad9565b91507f596f75206d757374206265206e6f6d696e61746564206265666f726520796f7560008301527f2063616e20616363657074206f776e65727368697000000000000000000000006020830152604082019050919050565b600061246a600e83612ad9565b91507f43616e6e6f74207374616b6520300000000000000000000000000000000000006000830152602082019050919050565b60006124aa601b83612ad9565b91507f536166654d6174683a206164646974696f6e206f766572666c6f7700000000006000830152602082019050919050565b60006124ea602083612ad9565b91507f5361666545524332303a206c6f772d6c6576656c2063616c6c206661696c65646000830152602082019050919050565b600061252a602f83612ad9565b91507f4f6e6c792074686520636f6e7472616374206f776e6572206d6179207065726660008301527f6f726d207468697320616374696f6e00000000000000000000000000000000006020830152604082019050919050565b6000612590601183612ad9565b91507f43616e6e6f7420776974686472617720300000000000000000000000000000006000830152602082019050919050565b60006125d0602183612ad9565b91507f536166654d6174683a206d756c7469706c69636174696f6e206f766572666c6f60008301527f77000000000000000000000000000000000000000000000000000000000000006020830152604082019050919050565b6000612636603c83612ad9565b91507f5468697320616374696f6e2063616e6e6f7420626520706572666f726d65642060008301527f7768696c652074686520636f6e747261637420697320706175736564000000006020830152604082019050919050565b600061269c602a83612ad9565b91507f43616c6c6572206973206e6f742052657761726473446973747269627574696f60008301527f6e20636f6e7472616374000000000000000000000000000000000000000000006020830152604082019050919050565b6000612702602a83612ad9565b91507f5361666545524332303a204552433230206f7065726174696f6e20646964206e60008301527f6f742073756363656564000000000000000000000000000000000000000000006020830152604082019050919050565b6000612768601f83612ad9565b91507f5265656e7472616e637947756172643a207265656e7472616e742063616c6c006000830152602082019050919050565b60006127a8601f83612ad9565b91507f5361666545524332303a2063616c6c20746f206e6f6e2d636f6e7472616374006000830152602082019050919050565b6127e481612c3d565b82525050565b60006127f682846122f2565b915081905092915050565b600060208201905061281660008301846122d4565b92915050565b600060408201905061283160008301856122d4565b61283e60208301846122d4565b9392505050565b600060608201905061285a60008301866122d4565b61286760208301856122d4565b61287460408301846127db565b949350505050565b600060408201905061289160008301856122d4565b61289e60208301846127db565b9392505050565b60006020820190506128ba60008301846122e3565b92915050565b60006020820190506128d56000830184612323565b92915050565b600060208201905081810360008301526128f58184612332565b905092915050565b600060208201905081810360008301526129168161236b565b9050919050565b60006020820190508181036000830152612936816123f7565b9050919050565b600060208201905081810360008301526129568161245d565b9050919050565b600060208201905081810360008301526129768161249d565b9050919050565b60006020820190508181036000830152612996816124dd565b9050919050565b600060208201905081810360008301526129b68161251d565b9050919050565b600060208201905081810360008301526129d681612583565b9050919050565b600060208201905081810360008301526129f6816125c3565b9050919050565b60006020820190508181036000830152612a1681612629565b9050919050565b60006020820190508181036000830152612a368161268f565b9050919050565b60006020820190508181036000830152612a56816126f5565b9050919050565b60006020820190508181036000830152612a768161275b565b9050919050565b60006020820190508181036000830152612a968161279b565b9050919050565b6000602082019050612ab260008301846127db565b92915050565b600081519050919050565b600081519050919050565b600081905092915050565b600082825260208201905092915050565b6000612af582612c3d565b9150612b0083612c3d565b9250827fffffffffffffffffffffffffffffffffffffffffffffffffffffffffffffffff03821115612b3557612b34612c9e565b5b828201905092915050565b6000612b4b82612c3d565b9150612b5683612c3d565b925082612b6657612b65612ccd565b5b828204905092915050565b6000612b7c82612c3d565b9150612b8783612c3d565b9250817fffffffffffffffffffffffffffffffffffffffffffffffffffffffffffffffff0483118215151615612bc057612bbf612c9e565b5b828202905092915050565b6000612bd682612c3d565b9150612be183612c3d565b925082821015612bf457612bf3612c9e565b5b828203905092915050565b6000612c0a82612c1d565b9050919050565b60008115159050919050565b600073ffffffffffffffffffffffffffffffffffffffff82169050919050565b6000819050919050565b6000612c5282612c59565b9050919050565b6000612c6482612c1d565b9050919050565b60005b83811015612c89578082015181840152602081019050612c6e565b83811115612c98576000848401525b50505050565b7f4e487b7100000000000000000000000000000000000000000000000000000000600052601160045260246000fd5b7f4e487b7100000000000000000000000000000000000000000000000000000000600052601260045260246000fd5b6000601f19601f8301169050919050565b612d1681612bff565b8114612d2157600080fd5b50565b612d2d81612c11565b8114612d3857600080fd5b50565b612d4481612c3d565b8114612d4f57600080fd5b5056fea2646970667358221220c6c3f86702dc074df0ad5a957a073afd92930b8640320e73e0c6429f7184a62964736f6c63430008000033",
  "immutableReferences": {},
  "source": "// SPDX-License-Identifier: GPL-3.0\r\n\r\npragma solidity ^0.8.0;\r\n\r\nimport \"./IRewardsDistributionRecipient.sol\";\r\nimport \"./SafeMath.sol\";\r\nimport \"./IERC20.sol\";\r\nimport \"./IStakingRewards.sol\";\r\nimport \"./ReentrancyGuard.sol\";\r\nimport \"./Pausable.sol\";\r\nimport \"./SafeERC.sol\";\r\nimport \"./Math.sol\";\r\n\r\n\r\n\r\n/*\r\n* MIT License\r\n* ===========\r\n*\r\n* Copyright (c) 2020 Synthetix\r\n*\r\n* Permission is hereby granted, free of charge, to any person obtaining a copy\r\n* of this software and associated documentation files (the \"Software\"), to deal\r\n* in the Software without restriction, including without limitation the rights\r\n* to use, copy, modify, merge, publish, distribute, sublicense, and/or sell\r\n* copies of the Software, and to permit persons to whom the Software is\r\n* furnished to do so, subject to the following conditions:\r\n*\r\n* The above copyright notice and this permission notice shall be included in all\r\n* copies or substantial portions of the Software.\r\n*\r\n* THE SOFTWARE IS PROVIDED \"AS IS\", WITHOUT WARRANTY OF ANY KIND, EXPRESS OR\r\n* IMPLIED, INCLUDING BUT NOT LIMITED TO THE WARRANTIES OF MERCHANTABILITY,\r\n* FITNESS FOR A PARTICULAR PURPOSE AND NONINFRINGEMENT. IN NO EVENT SHALL THE\r\n* AUTHORS OR COPYRIGHT HOLDERS BE LIABLE FOR ANY CLAIM, DAMAGES OR OTHER\r\n* LIABILITY, WHETHER IN AN ACTION OF CONTRACT, TORT OR OTHERWISE, ARISING FROM,\r\n* OUT OF OR IN CONNECTION WITH THE SOFTWARE OR THE USE OR OTHER DEALINGS IN THE\r\n*/\r\ncontract YOLOWeekly is IStakingRewards, IRewardsDistributionRecipient, ReentrancyGuard, Pausable {\r\n\r\n    using SafeMath for uint256;\r\n    using SafeERC20 for IERC20;\r\n\r\n    /* ========== STATE sVARIABLES ========== */\r\n\r\n    IERC20 public rewardsToken;\r\n    IERC20 public stakingToken;\r\n    uint256 public periodFinish = 0;\r\n    uint256 public rewardRate = 0;\r\n    uint256 public rewardsDuration = 7 days;\r\n    uint256 public lastUpdateTime;\r\n    uint256 public rewardPerTokenStored;\r\n    uint256 public _totalSupply;\r\n    uint256 public poolStakeFee = 0; //The stake fee for this pool\r\n    \r\n    address public burn = 0x000000000000000000000000000000000000dEaD;\r\n    mapping(address => uint256) public userRewardPerTokenPaid;\r\n    mapping(address => uint256) public rewards;\r\n\r\n    mapping(address => uint256) private _balances;\r\n    mapping(address => uint256) public stakeTime;\r\n\r\n    /* ========== CONSTRUCTOR ========== */\r\n\r\n    constructor(\r\n        address _owner,\r\n        address _rewardsDistribution,\r\n        address _rewardsToken,\r\n        address _stakingToken\r\n    ) public Owned(_owner) {\r\n        rewardsToken = IERC20(_rewardsToken);\r\n        stakingToken = IERC20(_stakingToken);\r\n        rewardsDistribution = _rewardsDistribution;\r\n    }\r\n\r\n    /* ========== VIEWS ========== */\r\n\r\n    function stakeFee(uint amount) internal view returns (uint256) {\r\n        return amount.mul(poolStakeFee).div(100);\r\n    }\r\n\r\n    function totalSupply() external override view returns (uint256) {\r\n        return _totalSupply;\r\n    }\r\n\r\n    function balanceOf(address account) external override view returns (uint256) {\r\n        return _balances[account];\r\n    }\r\n\r\n    function lastTimeRewardApplicable() public override view returns (uint256) {\r\n        return Math.min(block.timestamp, periodFinish);\r\n    }\r\n\r\n    function rewardPerToken() public override view returns (uint256) {\r\n        if (_totalSupply == 0) {\r\n            return rewardPerTokenStored;\r\n        }\r\n        return\r\n            rewardPerTokenStored.add(\r\n                lastTimeRewardApplicable().sub(lastUpdateTime).mul(rewardRate).mul(1e18).div(_totalSupply)\r\n            );\r\n    }\r\n\r\n    function earned(address account) public override view returns (uint256) {\r\n        return _balances[account].mul(rewardPerToken().sub(userRewardPerTokenPaid[account])).div(1e18).add(rewards[account]);\r\n    }\r\n\r\n    function getRewardForDuration() external override view returns (uint256) {\r\n        return rewardRate.mul(rewardsDuration);\r\n    }\r\n\r\n    /* ========== MUTATIVE FUNCTIONS ========== */\r\n\r\n    function stake(uint256 amount) external override nonReentrant notPaused updateReward(msg.sender) {\r\n        require(amount > 0, \"Cannot stake 0\");\r\n        _totalSupply = _totalSupply.add(amount);\r\n        _balances[msg.sender] = _balances[msg.sender].add(amount.sub(stakeFee(amount)));\r\n        _balances[rewardsDistribution] = _balances[rewardsDistribution].add(stakeFee(amount));\r\n        stakeTime[msg.sender] = block.timestamp + 7 days;\r\n        stakingToken.safeTransferFrom(msg.sender, address(this), amount);\r\n        emit Staked(msg.sender, amount);\r\n    }\r\n\r\n    function withdraw(uint256 amount) public override nonReentrant updateReward(msg.sender) {\r\n        require(amount > 0, \"Cannot withdraw 0\");\r\n        _totalSupply = _totalSupply.sub(amount);\r\n        _balances[msg.sender] = _balances[msg.sender].sub(amount);\r\n        if(msg.sender != rewardsDistribution) {\r\n            if(stakeTime[msg.sender] <= block.timestamp || block.timestamp >= periodFinish) {\r\n                stakingToken.safeTransfer(msg.sender, amount);\r\n            } else {\r\n                stakingToken.safeTransfer(msg.sender, amount.mul(65).div(100));\r\n                stakingToken.safeTransfer(burn, amount.mul(35).div(100));\r\n            }\r\n        }\r\n        \r\n\r\n        emit Withdrawn(msg.sender, amount);\r\n    }\r\n\r\n    function getReward() public override nonReentrant updateReward(msg.sender) {\r\n        uint256 reward = rewards[msg.sender];\r\n        if (reward > 0) {\r\n          rewards[msg.sender] = 0;\r\n          rewardsToken.safeTransfer(msg.sender, reward);\r\n          emit RewardPaid(msg.sender, reward);\r\n        }\r\n    }\r\n\r\n    function exit() external override {\r\n        withdraw(_balances[msg.sender]);\r\n        getReward();\r\n    }\r\n\r\n    /* ========== RESTRICTED FUNCTIONS ========== */\r\n\r\n    function notifyRewardAmount(uint256 reward) external override onlyRewardsDistribution updateReward(address(0)) {\r\n        if (block.timestamp >= periodFinish) {\r\n            rewardRate = reward.div(rewardsDuration);\r\n        } else {\r\n            uint256 remaining = periodFinish.sub(block.timestamp);\r\n            uint256 leftover = remaining.mul(rewardRate);\r\n            rewardRate = reward.add(leftover).div(rewardsDuration);\r\n        }\r\n\r\n        // Ensure the provided reward amount is not more than the balance in the contract.\r\n        // This keeps the reward rate in the right range, preventing overflows due to\r\n        // very high values of rewardRate in the earned and rewardsPerToken functions;\r\n        // Reward + leftover must be less than 2^256 / 10^18 to avoid overflow.\r\n        //uint balance = rewardsToken.balanceOf(address(this));\r\n        //require(rewardRate <= balance.div(rewardsDuration), \"Provided reward too high\");\r\n\r\n        lastUpdateTime = block.timestamp;\r\n        periodFinish = block.timestamp.add(rewardsDuration);\r\n        emit RewardAdded(reward);\r\n    }\r\n\r\n    function setRewardsDuration(uint256 _rewardsDuration) external onlyOwner {\r\n        require(block.timestamp > periodFinish,\r\n            \"Previous rewards period must be complete before changing the duration for the new period\"\r\n        );\r\n        rewardsDuration = _rewardsDuration;\r\n        emit RewardsDurationUpdated(rewardsDuration);\r\n    }\r\n\r\n    /* ========== MODIFIERS ========== */\r\n\r\n    modifier updateReward(address account) {\r\n        rewardPerTokenStored = rewardPerToken();\r\n        lastUpdateTime = lastTimeRewardApplicable();\r\n        if (account != address(0)) {\r\n            rewards[account] = earned(account);\r\n            userRewardPerTokenPaid[account] = rewardPerTokenStored;\r\n        }\r\n        _;\r\n    }\r\n\r\n    /* ========== EVENTS ========== */\r\n\r\n    event RewardAdded(uint256 reward);\r\n    event Staked(address indexed user, uint256 amount);\r\n    event Withdrawn(address indexed user, uint256 amount);\r\n    event RewardPaid(address indexed user, uint256 reward);\r\n    event RewardsDurationUpdated(uint256 newDuration);\r\n}\r\n",
  "sourcePath": "D:/fiverr/marchAngeloh/Assignment1/Integrated-pack/contracts/YOLOWeekly.sol",
  "compiler": {
    "name": "solc",
    "version": "0.8.0+commit.c7dfd78e.Emscripten.clang"
  },
  "schemaVersion": "3.3.4",
  "updatedAt": "2021-05-18T15:17:47.463Z",
  "networkType": "ethereum",
  "devdoc": {
    "kind": "dev",
    "methods": {
      "setPaused(bool)": {
        "details": "Only the contract owner may call this."
      }
    },
    "version": 1
  },
  "userdoc": {
    "kind": "user",
    "methods": {
      "setPaused(bool)": {
        "notice": "Change the paused state of the contract"
      }
    },
    "version": 1
  }
}