{
  "contractName": "YOLOYearly",
  "abi": [
    {
      "inputs": [
        {
          "internalType": "address",
          "name": "_owner",
          "type": "address"
        },
        {
          "internalType": "address",
          "name": "_rewardsDistribution",
          "type": "address"
        },
        {
          "internalType": "address",
          "name": "_rewardsToken",
          "type": "address"
        },
        {
          "internalType": "address",
          "name": "_stakingToken",
          "type": "address"
        }
      ],
      "stateMutability": "nonpayable",
      "type": "constructor"
    },
    {
      "anonymous": false,
      "inputs": [
        {
          "indexed": false,
          "internalType": "address",
          "name": "oldOwner",
          "type": "address"
        },
        {
          "indexed": false,
          "internalType": "address",
          "name": "newOwner",
          "type": "address"
        }
      ],
      "name": "OwnerChanged",
      "type": "event"
    },
    {
      "anonymous": false,
      "inputs": [
        {
          "indexed": false,
          "internalType": "address",
          "name": "newOwner",
          "type": "address"
        }
      ],
      "name": "OwnerNominated",
      "type": "event"
    },
    {
      "anonymous": false,
      "inputs": [
        {
          "indexed": false,
          "internalType": "bool",
          "name": "isPaused",
          "type": "bool"
        }
      ],
      "name": "PauseChanged",
      "type": "event"
    },
    {
      "anonymous": false,
      "inputs": [
        {
          "indexed": false,
          "internalType": "uint256",
          "name": "reward",
          "type": "uint256"
        }
      ],
      "name": "RewardAdded",
      "type": "event"
    },
    {
      "anonymous": false,
      "inputs": [
        {
          "indexed": true,
          "internalType": "address",
          "name": "user",
          "type": "address"
        },
        {
          "indexed": false,
          "internalType": "uint256",
          "name": "reward",
          "type": "uint256"
        }
      ],
      "name": "RewardPaid",
      "type": "event"
    },
    {
      "anonymous": false,
      "inputs": [
        {
          "indexed": false,
          "internalType": "uint256",
          "name": "newDuration",
          "type": "uint256"
        }
      ],
      "name": "RewardsDurationUpdated",
      "type": "event"
    },
    {
      "anonymous": false,
      "inputs": [
        {
          "indexed": true,
          "internalType": "address",
          "name": "user",
          "type": "address"
        },
        {
          "indexed": false,
          "internalType": "uint256",
          "name": "amount",
          "type": "uint256"
        }
      ],
      "name": "Staked",
      "type": "event"
    },
    {
      "anonymous": false,
      "inputs": [
        {
          "indexed": true,
          "internalType": "address",
          "name": "user",
          "type": "address"
        },
        {
          "indexed": false,
          "internalType": "uint256",
          "name": "amount",
          "type": "uint256"
        }
      ],
      "name": "Withdrawn",
      "type": "event"
    },
    {
      "inputs": [],
      "name": "_totalSupply",
      "outputs": [
        {
          "internalType": "uint256",
          "name": "",
          "type": "uint256"
        }
      ],
      "stateMutability": "view",
      "type": "function",
      "constant": true
    },
    {
      "inputs": [],
      "name": "acceptOwnership",
      "outputs": [],
      "stateMutability": "nonpayable",
      "type": "function"
    },
    {
      "inputs": [],
      "name": "burn",
      "outputs": [
        {
          "internalType": "address",
          "name": "",
          "type": "address"
        }
      ],
      "stateMutability": "view",
      "type": "function",
      "constant": true
    },
    {
      "inputs": [],
      "name": "lastPauseTime",
      "outputs": [
        {
          "internalType": "uint256",
          "name": "",
          "type": "uint256"
        }
      ],
      "stateMutability": "view",
      "type": "function",
      "constant": true
    },
    {
      "inputs": [],
      "name": "lastUpdateTime",
      "outputs": [
        {
          "internalType": "uint256",
          "name": "",
          "type": "uint256"
        }
      ],
      "stateMutability": "view",
      "type": "function",
      "constant": true
    },
    {
      "inputs": [
        {
          "internalType": "address",
          "name": "_owner",
          "type": "address"
        }
      ],
      "name": "nominateNewOwner",
      "outputs": [],
      "stateMutability": "nonpayable",
      "type": "function"
    },
    {
      "inputs": [],
      "name": "nominatedOwner",
      "outputs": [
        {
          "internalType": "address",
          "name": "",
          "type": "address"
        }
      ],
      "stateMutability": "view",
      "type": "function",
      "constant": true
    },
    {
      "inputs": [],
      "name": "owner",
      "outputs": [
        {
          "internalType": "address",
          "name": "",
          "type": "address"
        }
      ],
      "stateMutability": "view",
      "type": "function",
      "constant": true
    },
    {
      "inputs": [],
      "name": "paused",
      "outputs": [
        {
          "internalType": "bool",
          "name": "",
          "type": "bool"
        }
      ],
      "stateMutability": "view",
      "type": "function",
      "constant": true
    },
    {
      "inputs": [],
      "name": "periodFinish",
      "outputs": [
        {
          "internalType": "uint256",
          "name": "",
          "type": "uint256"
        }
      ],
      "stateMutability": "view",
      "type": "function",
      "constant": true
    },
    {
      "inputs": [],
      "name": "rewardPerTokenStored",
      "outputs": [
        {
          "internalType": "uint256",
          "name": "",
          "type": "uint256"
        }
      ],
      "stateMutability": "view",
      "type": "function",
      "constant": true
    },
    {
      "inputs": [],
      "name": "rewardRate",
      "outputs": [
        {
          "internalType": "uint256",
          "name": "",
          "type": "uint256"
        }
      ],
      "stateMutability": "view",
      "type": "function",
      "constant": true
    },
    {
      "inputs": [
        {
          "internalType": "address",
          "name": "",
          "type": "address"
        }
      ],
      "name": "rewards",
      "outputs": [
        {
          "internalType": "uint256",
          "name": "",
          "type": "uint256"
        }
      ],
      "stateMutability": "view",
      "type": "function",
      "constant": true
    },
    {
      "inputs": [],
      "name": "rewardsDistribution",
      "outputs": [
        {
          "internalType": "address",
          "name": "",
          "type": "address"
        }
      ],
      "stateMutability": "view",
      "type": "function",
      "constant": true
    },
    {
      "inputs": [],
      "name": "rewardsDuration",
      "outputs": [
        {
          "internalType": "uint256",
          "name": "",
          "type": "uint256"
        }
      ],
      "stateMutability": "view",
      "type": "function",
      "constant": true
    },
    {
      "inputs": [],
      "name": "rewardsToken",
      "outputs": [
        {
          "internalType": "contract IERC20",
          "name": "",
          "type": "address"
        }
      ],
      "stateMutability": "view",
      "type": "function",
      "constant": true
    },
    {
      "inputs": [
        {
          "internalType": "bool",
          "name": "_paused",
          "type": "bool"
        }
      ],
      "name": "setPaused",
      "outputs": [],
      "stateMutability": "nonpayable",
      "type": "function"
    },
    {
      "inputs": [
        {
          "internalType": "address",
          "name": "_rewardsDistribution",
          "type": "address"
        }
      ],
      "name": "setRewardsDistribution",
      "outputs": [],
      "stateMutability": "nonpayable",
      "type": "function"
    },
    {
      "inputs": [
        {
          "internalType": "address",
          "name": "",
          "type": "address"
        }
      ],
      "name": "stakeTime",
      "outputs": [
        {
          "internalType": "uint256",
          "name": "",
          "type": "uint256"
        }
      ],
      "stateMutability": "view",
      "type": "function",
      "constant": true
    },
    {
      "inputs": [],
      "name": "stakingToken",
      "outputs": [
        {
          "internalType": "contract IERC20",
          "name": "",
          "type": "address"
        }
      ],
      "stateMutability": "view",
      "type": "function",
      "constant": true
    },
    {
      "inputs": [
        {
          "internalType": "address",
          "name": "",
          "type": "address"
        }
      ],
      "name": "userRewardPerTokenPaid",
      "outputs": [
        {
          "internalType": "uint256",
          "name": "",
          "type": "uint256"
        }
      ],
      "stateMutability": "view",
      "type": "function",
      "constant": true
    },
    {
      "inputs": [],
      "name": "totalSupply",
      "outputs": [
        {
          "internalType": "uint256",
          "name": "",
          "type": "uint256"
        }
      ],
      "stateMutability": "view",
      "type": "function",
      "constant": true
    },
    {
      "inputs": [
        {
          "internalType": "address",
          "name": "account",
          "type": "address"
        }
      ],
      "name": "balanceOf",
      "outputs": [
        {
          "internalType": "uint256",
          "name": "",
          "type": "uint256"
        }
      ],
      "stateMutability": "view",
      "type": "function",
      "constant": true
    },
    {
      "inputs": [],
      "name": "lastTimeRewardApplicable",
      "outputs": [
        {
          "internalType": "uint256",
          "name": "",
          "type": "uint256"
        }
      ],
      "stateMutability": "view",
      "type": "function",
      "constant": true
    },
    {
      "inputs": [],
      "name": "rewardPerToken",
      "outputs": [
        {
          "internalType": "uint256",
          "name": "",
          "type": "uint256"
        }
      ],
      "stateMutability": "view",
      "type": "function",
      "constant": true
    },
    {
      "inputs": [
        {
          "internalType": "address",
          "name": "account",
          "type": "address"
        }
      ],
      "name": "earned",
      "outputs": [
        {
          "internalType": "uint256",
          "name": "",
          "type": "uint256"
        }
      ],
      "stateMutability": "view",
      "type": "function",
      "constant": true
    },
    {
      "inputs": [],
      "name": "getRewardForDuration",
      "outputs": [
        {
          "internalType": "uint256",
          "name": "",
          "type": "uint256"
        }
      ],
      "stateMutability": "view",
      "type": "function",
      "constant": true
    },
    {
      "inputs": [
        {
          "internalType": "uint256",
          "name": "amount",
          "type": "uint256"
        }
      ],
      "name": "stake",
      "outputs": [],
      "stateMutability": "nonpayable",
      "type": "function"
    },
    {
      "inputs": [
        {
          "internalType": "uint256",
          "name": "amount",
          "type": "uint256"
        }
      ],
      "name": "withdraw",
      "outputs": [],
      "stateMutability": "nonpayable",
      "type": "function"
    },
    {
      "inputs": [],
      "name": "getReward",
      "outputs": [],
      "stateMutability": "nonpayable",
      "type": "function"
    },
    {
      "inputs": [],
      "name": "exit",
      "outputs": [],
      "stateMutability": "nonpayable",
      "type": "function"
    },
    {
      "inputs": [
        {
          "internalType": "uint256",
          "name": "reward",
          "type": "uint256"
        }
      ],
      "name": "notifyRewardAmount",
      "outputs": [],
      "stateMutability": "nonpayable",
      "type": "function"
    },
    {
      "inputs": [
        {
          "internalType": "uint256",
          "name": "_rewardsDuration",
          "type": "uint256"
        }
      ],
      "name": "setRewardsDuration",
      "outputs": [],
      "stateMutability": "nonpayable",
      "type": "function"
    }
  ],
  "bytecode": "0x6080604052600060065560056007556301e1338060085561dead600c60006101000a81548173ffffffffffffffffffffffffffffffffffffffff021916908373ffffffffffffffffffffffffffffffffffffffff1602179055503480156200006657600080fd5b50604051620031fa380380620031fa83398181016040528101906200008c91906200030f565b83600073ffffffffffffffffffffffffffffffffffffffff168173ffffffffffffffffffffffffffffffffffffffff16141562000100576040517f08c379a0000000000000000000000000000000000000000000000000000000008152600401620000f7906200045f565b60405180910390fd5b806000806101000a81548173ffffffffffffffffffffffffffffffffffffffff021916908373ffffffffffffffffffffffffffffffffffffffff1602179055507fb532073b38c83145e3e5135377a08bf9aab55bc0fd7c1179cd4fb995d2a5159c6000826040516200017492919062000410565b60405180910390a1506001600260146101000a81548160ff021916908315150217905550600073ffffffffffffffffffffffffffffffffffffffff1660008054906101000a900473ffffffffffffffffffffffffffffffffffffffff1673ffffffffffffffffffffffffffffffffffffffff1614156200022b576040517f08c379a000000000000000000000000000000000000000000000000000000000815260040162000222906200043d565b60405180910390fd5b81600460016101000a81548173ffffffffffffffffffffffffffffffffffffffff021916908373ffffffffffffffffffffffffffffffffffffffff16021790555080600560006101000a81548173ffffffffffffffffffffffffffffffffffffffff021916908373ffffffffffffffffffffffffffffffffffffffff16021790555082600260006101000a81548173ffffffffffffffffffffffffffffffffffffffff021916908373ffffffffffffffffffffffffffffffffffffffff16021790555050505050620004e0565b6000815190506200030981620004c6565b92915050565b600080600080608085870312156200032657600080fd5b60006200033687828801620002f8565b94505060206200034987828801620002f8565b93505060406200035c87828801620002f8565b92505060606200036f87828801620002f8565b91505092959194509250565b620003868162000492565b82525050565b60006200039b60118362000481565b91507f4f776e6572206d757374206265207365740000000000000000000000000000006000830152602082019050919050565b6000620003dd60198362000481565b91507f4f776e657220616464726573732063616e6e6f742062652030000000000000006000830152602082019050919050565b60006040820190506200042760008301856200037b565b6200043660208301846200037b565b9392505050565b6000602082019050818103600083015262000458816200038c565b9050919050565b600060208201905081810360008301526200047a81620003ce565b9050919050565b600082825260208201905092915050565b60006200049f82620004a6565b9050919050565b600073ffffffffffffffffffffffffffffffffffffffff82169050919050565b620004d18162000492565b8114620004dd57600080fd5b50565b612d0a80620004f06000396000f3fe608060405234801561001057600080fd5b50600436106101fa5760003560e01c80635c975abb1161011a57806391b4ded9116100ad578063cd3daf9d1161007c578063cd3daf9d1461056b578063d1af0c7d14610589578063df136d65146105a7578063e9fad8ee146105c5578063ebe2b12b146105cf576101fa565b806391b4ded9146104f7578063a694fc3a14610515578063c8f33c9114610531578063cc1a378f1461054f576101fa565b80637b0a47ee116100e95780637b0a47ee1461046d57806380faa57d1461048b5780638b876347146104a95780638da5cb5b146104d9576101fa565b80635c975abb146103f757806370a082311461041557806372f702f31461044557806379ba509714610463576101fa565b80632e1a7d4d116101925780633eaaf86b116101615780633eaaf86b1461037f5780633fc6df6e1461039d57806344df8e70146103bb57806353a47bb7146103d9576101fa565b80632e1a7d4d1461031f578063386a95251461033b5780633c6b16ab146103595780633d18b91214610375576101fa565b806318160ddd116101ce57806318160ddd1461029757806319762143146102b55780631c1f78eb146102d15780632170e472146102ef576101fa565b80628cc262146101ff5780630700037d1461022f5780631627540c1461025f57806316c38b3c1461027b575b600080fd5b610219600480360381019061021491906121b2565b6105ed565b6040516102269190612a1f565b60405180910390f35b610249600480360381019061024491906121b2565b61070b565b6040516102569190612a1f565b60405180910390f35b610279600480360381019061027491906121b2565b610723565b005b610295600480360381019061029091906121db565b6107a6565b005b61029f61084f565b6040516102ac9190612a1f565b60405180910390f35b6102cf60048036038101906102ca91906121b2565b610859565b005b6102d96108a5565b6040516102e69190612a1f565b60405180910390f35b610309600480360381019061030491906121b2565b6108c3565b6040516103169190612a1f565b60405180910390f35b6103396004803603810190610334919061222d565b6108db565b005b610343610d5a565b6040516103509190612a1f565b60405180910390f35b610373600480360381019061036e919061222d565b610d60565b005b61037d610fbd565b005b610387611258565b6040516103949190612a1f565b60405180910390f35b6103a561125e565b6040516103b29190612783565b60405180910390f35b6103c3611284565b6040516103d09190612783565b60405180910390f35b6103e16112aa565b6040516103ee9190612783565b60405180910390f35b6103ff6112d0565b60405161040c9190612827565b60405180910390f35b61042f600480360381019061042a91906121b2565b6112e3565b60405161043c9190612a1f565b60405180910390f35b61044d61132c565b60405161045a9190612842565b60405180910390f35b61046b611352565b005b610475611503565b6040516104829190612a1f565b60405180910390f35b610493611509565b6040516104a09190612a1f565b60405180910390f35b6104c360048036038101906104be91906121b2565b61151c565b6040516104d09190612a1f565b60405180910390f35b6104e1611534565b6040516104ee9190612783565b60405180910390f35b6104ff611558565b60405161050c9190612a1f565b60405180910390f35b61052f600480360381019061052a919061222d565b61155e565b005b610539611a0f565b6040516105469190612a1f565b60405180910390f35b6105696004803603810190610564919061222d565b611a15565b005b610573611aa4565b6040516105809190612a1f565b60405180910390f35b610591611b32565b60405161059e9190612842565b60405180910390f35b6105af611b58565b6040516105bc9190612a1f565b60405180910390f35b6105cd611b5e565b005b6105d7611bb0565b6040516105e49190612a1f565b60405180910390f35b6000610704600e60008473ffffffffffffffffffffffffffffffffffffffff1673ffffffffffffffffffffffffffffffffffffffff168152602001908152602001600020546106f6670de0b6b3a76400006106e861069a600d60008973ffffffffffffffffffffffffffffffffffffffff1673ffffffffffffffffffffffffffffffffffffffff1681526020019081526020016000205461068c611aa4565b611bb690919063ffffffff16565b600f60008973ffffffffffffffffffffffffffffffffffffffff1673ffffffffffffffffffffffffffffffffffffffff16815260200190815260200160002054611c0090919063ffffffff16565b611c7b90919063ffffffff16565b611cc590919063ffffffff16565b9050919050565b600e6020528060005260406000206000915090505481565b61072b611d23565b80600160006101000a81548173ffffffffffffffffffffffffffffffffffffffff021916908373ffffffffffffffffffffffffffffffffffffffff1602179055507f906a1c6bd7e3091ea86693dd029a831c19049ce77f1dce2ce0bab1cacbabce228160405161079b9190612783565b60405180910390a150565b6107ae611d23565b600460009054906101000a900460ff16151581151514156107ce5761084c565b80600460006101000a81548160ff021916908315150217905550600460009054906101000a900460ff161561080557426003819055505b7f8fb6c181ee25a520cf3dd6565006ef91229fcfe5a989566c2a3b8c115570cec5600460009054906101000a900460ff166040516108439190612827565b60405180910390a15b50565b6000600b54905090565b610861611d23565b80600260006101000a81548173ffffffffffffffffffffffffffffffffffffffff021916908373ffffffffffffffffffffffffffffffffffffffff16021790555050565b60006108be600854600754611c0090919063ffffffff16565b905090565b60106020528060005260406000206000915090505481565b600260149054906101000a900460ff1661092a576040517f08c379a0000000000000000000000000000000000000000000000000000000008152600401610921906129df565b60405180910390fd5b6000600260146101000a81548160ff0219169083151502179055503361094e611aa4565b600a8190555061095c611509565b600981905550600073ffffffffffffffffffffffffffffffffffffffff168173ffffffffffffffffffffffffffffffffffffffff1614610a295761099f816105ed565b600e60008373ffffffffffffffffffffffffffffffffffffffff1673ffffffffffffffffffffffffffffffffffffffff16815260200190815260200160002081905550600a54600d60008373ffffffffffffffffffffffffffffffffffffffff1673ffffffffffffffffffffffffffffffffffffffff168152602001908152602001600020819055505b60008211610a6c576040517f08c379a0000000000000000000000000000000000000000000000000000000008152600401610a639061293f565b60405180910390fd5b610a8182600b54611bb690919063ffffffff16565b600b81905550610ad982600f60003373ffffffffffffffffffffffffffffffffffffffff1673ffffffffffffffffffffffffffffffffffffffff16815260200190815260200160002054611bb690919063ffffffff16565b600f60003373ffffffffffffffffffffffffffffffffffffffff1673ffffffffffffffffffffffffffffffffffffffff16815260200190815260200160002081905550600260009054906101000a900473ffffffffffffffffffffffffffffffffffffffff1673ffffffffffffffffffffffffffffffffffffffff163373ffffffffffffffffffffffffffffffffffffffff1614610ced5742601060003373ffffffffffffffffffffffffffffffffffffffff1673ffffffffffffffffffffffffffffffffffffffff1681526020019081526020016000205411610c0957610c043383600560009054906101000a900473ffffffffffffffffffffffffffffffffffffffff1673ffffffffffffffffffffffffffffffffffffffff16611db39092919063ffffffff16565b610cec565b610c6933610c21600285611c7b90919063ffffffff16565b600560009054906101000a900473ffffffffffffffffffffffffffffffffffffffff1673ffffffffffffffffffffffffffffffffffffffff16611db39092919063ffffffff16565b610ceb600c60009054906101000a900473ffffffffffffffffffffffffffffffffffffffff16610ca3600285611c7b90919063ffffffff16565b600560009054906101000a900473ffffffffffffffffffffffffffffffffffffffff1673ffffffffffffffffffffffffffffffffffffffff16611db39092919063ffffffff16565b5b5b3373ffffffffffffffffffffffffffffffffffffffff167f7084f5476618d8e60b11ef0d7d3f06914655adb8793e28ff7f018d4c76d505d583604051610d339190612a1f565b60405180910390a2506001600260146101000a81548160ff02191690831515021790555050565b60085481565b600260009054906101000a900473ffffffffffffffffffffffffffffffffffffffff1673ffffffffffffffffffffffffffffffffffffffff163373ffffffffffffffffffffffffffffffffffffffff1614610df0576040517f08c379a0000000000000000000000000000000000000000000000000000000008152600401610de79061299f565b60405180910390fd5b6000610dfa611aa4565b600a81905550610e08611509565b600981905550600073ffffffffffffffffffffffffffffffffffffffff168173ffffffffffffffffffffffffffffffffffffffff1614610ed557610e4b816105ed565b600e60008373ffffffffffffffffffffffffffffffffffffffff1673ffffffffffffffffffffffffffffffffffffffff16815260200190815260200160002081905550600a54600d60008373ffffffffffffffffffffffffffffffffffffffff1673ffffffffffffffffffffffffffffffffffffffff168152602001908152602001600020819055505b6006544210610efe57610ef360085483611c7b90919063ffffffff16565b600781905550610f60565b6000610f1542600654611bb690919063ffffffff16565b90506000610f2e60075483611c0090919063ffffffff16565b9050610f57600854610f498387611cc590919063ffffffff16565b611c7b90919063ffffffff16565b60078190555050505b42600981905550610f7c60085442611cc590919063ffffffff16565b6006819055507fde88a922e0d3b88b24e9623efeb464919c6bf9f66857a65e2bfcf2ce87a9433d82604051610fb19190612a1f565b60405180910390a15050565b600260149054906101000a900460ff1661100c576040517f08c379a0000000000000000000000000000000000000000000000000000000008152600401611003906129df565b60405180910390fd5b6000600260146101000a81548160ff02191690831515021790555033611030611aa4565b600a8190555061103e611509565b600981905550600073ffffffffffffffffffffffffffffffffffffffff168173ffffffffffffffffffffffffffffffffffffffff161461110b57611081816105ed565b600e60008373ffffffffffffffffffffffffffffffffffffffff1673ffffffffffffffffffffffffffffffffffffffff16815260200190815260200160002081905550600a54600d60008373ffffffffffffffffffffffffffffffffffffffff1673ffffffffffffffffffffffffffffffffffffffff168152602001908152602001600020819055505b6000600e60003373ffffffffffffffffffffffffffffffffffffffff1673ffffffffffffffffffffffffffffffffffffffff1681526020019081526020016000205490506000811115611239576000600e60003373ffffffffffffffffffffffffffffffffffffffff1673ffffffffffffffffffffffffffffffffffffffff168152602001908152602001600020819055506111ea3382600460019054906101000a900473ffffffffffffffffffffffffffffffffffffffff1673ffffffffffffffffffffffffffffffffffffffff16611db39092919063ffffffff16565b3373ffffffffffffffffffffffffffffffffffffffff167fe2403640ba68fed3a2f88b7557551d1993f84b99bb10ff833f0cf8db0c5e0486826040516112309190612a1f565b60405180910390a25b50506001600260146101000a81548160ff021916908315150217905550565b600b5481565b600260009054906101000a900473ffffffffffffffffffffffffffffffffffffffff1681565b600c60009054906101000a900473ffffffffffffffffffffffffffffffffffffffff1681565b600160009054906101000a900473ffffffffffffffffffffffffffffffffffffffff1681565b600460009054906101000a900460ff1681565b6000600f60008373ffffffffffffffffffffffffffffffffffffffff1673ffffffffffffffffffffffffffffffffffffffff168152602001908152602001600020549050919050565b600560009054906101000a900473ffffffffffffffffffffffffffffffffffffffff1681565b600160009054906101000a900473ffffffffffffffffffffffffffffffffffffffff1673ffffffffffffffffffffffffffffffffffffffff163373ffffffffffffffffffffffffffffffffffffffff16146113e2576040517f08c379a00000000000000000000000000000000000000000000000000000000081526004016113d99061289f565b60405180910390fd5b7fb532073b38c83145e3e5135377a08bf9aab55bc0fd7c1179cd4fb995d2a5159c60008054906101000a900473ffffffffffffffffffffffffffffffffffffffff16600160009054906101000a900473ffffffffffffffffffffffffffffffffffffffff1660405161145592919061279e565b60405180910390a1600160009054906101000a900473ffffffffffffffffffffffffffffffffffffffff166000806101000a81548173ffffffffffffffffffffffffffffffffffffffff021916908373ffffffffffffffffffffffffffffffffffffffff1602179055506000600160006101000a81548173ffffffffffffffffffffffffffffffffffffffff021916908373ffffffffffffffffffffffffffffffffffffffff160217905550565b60075481565b600061151742600654611e39565b905090565b600d6020528060005260406000206000915090505481565b60008054906101000a900473ffffffffffffffffffffffffffffffffffffffff1681565b60035481565b600260149054906101000a900460ff166115ad576040517f08c379a00000000000000000000000000000000000000000000000000000000081526004016115a4906129df565b60405180910390fd5b6000600260146101000a81548160ff021916908315150217905550600460009054906101000a900460ff1615611618576040517f08c379a000000000000000000000000000000000000000000000000000000000815260040161160f9061297f565b60405180910390fd5b33611621611aa4565b600a8190555061162f611509565b600981905550600073ffffffffffffffffffffffffffffffffffffffff168173ffffffffffffffffffffffffffffffffffffffff16146116fc57611672816105ed565b600e60008373ffffffffffffffffffffffffffffffffffffffff1673ffffffffffffffffffffffffffffffffffffffff16815260200190815260200160002081905550600a54600d60008373ffffffffffffffffffffffffffffffffffffffff1673ffffffffffffffffffffffffffffffffffffffff168152602001908152602001600020819055505b6000821161173f576040517f08c379a0000000000000000000000000000000000000000000000000000000008152600401611736906128bf565b60405180910390fd5b61175482600b54611cc590919063ffffffff16565b600b819055506117d1611783611774601985611c7b90919063ffffffff16565b84611bb690919063ffffffff16565b600f60003373ffffffffffffffffffffffffffffffffffffffff1673ffffffffffffffffffffffffffffffffffffffff16815260200190815260200160002054611cc590919063ffffffff16565b600f60003373ffffffffffffffffffffffffffffffffffffffff1673ffffffffffffffffffffffffffffffffffffffff1681526020019081526020016000208190555061189b61182b601984611c7b90919063ffffffff16565b600f6000600260009054906101000a900473ffffffffffffffffffffffffffffffffffffffff1673ffffffffffffffffffffffffffffffffffffffff1673ffffffffffffffffffffffffffffffffffffffff16815260200190815260200160002054611cc590919063ffffffff16565b600f6000600260009054906101000a900473ffffffffffffffffffffffffffffffffffffffff1673ffffffffffffffffffffffffffffffffffffffff1673ffffffffffffffffffffffffffffffffffffffff168152602001908152602001600020819055506301e13380426119109190612a6c565b601060003373ffffffffffffffffffffffffffffffffffffffff1673ffffffffffffffffffffffffffffffffffffffff168152602001908152602001600020819055506119a2333084600560009054906101000a900473ffffffffffffffffffffffffffffffffffffffff1673ffffffffffffffffffffffffffffffffffffffff16611e52909392919063ffffffff16565b3373ffffffffffffffffffffffffffffffffffffffff167f9e71bc8eea02a63969f509818f2dafb9254532904319f9dbda79b67bd34a5f3d836040516119e89190612a1f565b60405180910390a2506001600260146101000a81548160ff02191690831515021790555050565b60095481565b611a1d611d23565b6006544211611a61576040517f08c379a0000000000000000000000000000000000000000000000000000000008152600401611a589061287f565b60405180910390fd5b806008819055507ffb46ca5a5e06d4540d6387b930a7c978bce0db5f449ec6b3f5d07c6e1d44f2d3600854604051611a999190612a1f565b60405180910390a150565b600080600b541415611aba57600a549050611b2f565b611b2c611b1b600b54611b0d670de0b6b3a7640000611aff600754611af1600954611ae3611509565b611bb690919063ffffffff16565b611c0090919063ffffffff16565b611c0090919063ffffffff16565b611c7b90919063ffffffff16565b600a54611cc590919063ffffffff16565b90505b90565b600460019054906101000a900473ffffffffffffffffffffffffffffffffffffffff1681565b600a5481565b611ba6600f60003373ffffffffffffffffffffffffffffffffffffffff1673ffffffffffffffffffffffffffffffffffffffff168152602001908152602001600020546108db565b611bae610fbd565b565b60065481565b6000611bf883836040518060400160405280601e81526020017f536166654d6174683a207375627472616374696f6e206f766572666c6f770000815250611edb565b905092915050565b600080831415611c135760009050611c75565b60008284611c219190612af3565b9050828482611c309190612ac2565b14611c70576040517f08c379a0000000000000000000000000000000000000000000000000000000008152600401611c679061295f565b60405180910390fd5b809150505b92915050565b6000611cbd83836040518060400160405280601a81526020017f536166654d6174683a206469766973696f6e206279207a65726f000000000000815250611f3f565b905092915050565b6000808284611cd49190612a6c565b905083811015611d19576040517f08c379a0000000000000000000000000000000000000000000000000000000008152600401611d10906128df565b60405180910390fd5b8091505092915050565b60008054906101000a900473ffffffffffffffffffffffffffffffffffffffff1673ffffffffffffffffffffffffffffffffffffffff163373ffffffffffffffffffffffffffffffffffffffff1614611db1576040517f08c379a0000000000000000000000000000000000000000000000000000000008152600401611da89061291f565b60405180910390fd5b565b611e348363a9059cbb60e01b8484604051602401611dd29291906127fe565b604051602081830303815290604052907bffffffffffffffffffffffffffffffffffffffffffffffffffffffff19166020820180517bffffffffffffffffffffffffffffffffffffffffffffffffffffffff8381831617835250505050611fa2565b505050565b6000818310611e485781611e4a565b825b905092915050565b611ed5846323b872dd60e01b858585604051602401611e73939291906127c7565b604051602081830303815290604052907bffffffffffffffffffffffffffffffffffffffffffffffffffffffff19166020820180517bffffffffffffffffffffffffffffffffffffffffffffffffffffffff8381831617835250505050611fa2565b50505050565b6000838311158290611f23576040517f08c379a0000000000000000000000000000000000000000000000000000000008152600401611f1a919061285d565b60405180910390fd5b5060008385611f329190612b4d565b9050809150509392505050565b60008083118290611f86576040517f08c379a0000000000000000000000000000000000000000000000000000000008152600401611f7d919061285d565b60405180910390fd5b5060008385611f959190612ac2565b9050809150509392505050565b611fc18273ffffffffffffffffffffffffffffffffffffffff16612113565b612000576040517f08c379a0000000000000000000000000000000000000000000000000000000008152600401611ff7906129ff565b60405180910390fd5b6000808373ffffffffffffffffffffffffffffffffffffffff1683604051612028919061276c565b6000604051808303816000865af19150503d8060008114612065576040519150601f19603f3d011682016040523d82523d6000602084013e61206a565b606091505b5091509150816120af576040517f08c379a00000000000000000000000000000000000000000000000000000000081526004016120a6906128ff565b60405180910390fd5b60008151111561210d57808060200190518101906120cd9190612204565b61210c576040517f08c379a0000000000000000000000000000000000000000000000000000000008152600401612103906129bf565b60405180910390fd5b5b50505050565b60008060007fc5d2460186f7233c927e7db2dcc703c0e500b653ca82273b7bfad8045d85a47060001b9050833f915080821415801561215557506000801b8214155b92505050919050565b60008135905061216d81612c8f565b92915050565b60008135905061218281612ca6565b92915050565b60008151905061219781612ca6565b92915050565b6000813590506121ac81612cbd565b92915050565b6000602082840312156121c457600080fd5b60006121d28482850161215e565b91505092915050565b6000602082840312156121ed57600080fd5b60006121fb84828501612173565b91505092915050565b60006020828403121561221657600080fd5b600061222484828501612188565b91505092915050565b60006020828403121561223f57600080fd5b600061224d8482850161219d565b91505092915050565b61225f81612b81565b82525050565b61226e81612b93565b82525050565b600061227f82612a3a565b6122898185612a50565b9350612299818560208601612bed565b80840191505092915050565b6122ae81612bc9565b82525050565b60006122bf82612a45565b6122c98185612a5b565b93506122d9818560208601612bed565b6122e281612c7e565b840191505092915050565b60006122fa605883612a5b565b91507f50726576696f7573207265776172647320706572696f64206d7573742062652060008301527f636f6d706c657465206265666f7265206368616e67696e67207468652064757260208301527f6174696f6e20666f7220746865206e657720706572696f6400000000000000006040830152606082019050919050565b6000612386603583612a5b565b91507f596f75206d757374206265206e6f6d696e61746564206265666f726520796f7560008301527f2063616e20616363657074206f776e65727368697000000000000000000000006020830152604082019050919050565b60006123ec600e83612a5b565b91507f43616e6e6f74207374616b6520300000000000000000000000000000000000006000830152602082019050919050565b600061242c601b83612a5b565b91507f536166654d6174683a206164646974696f6e206f766572666c6f7700000000006000830152602082019050919050565b600061246c602083612a5b565b91507f5361666545524332303a206c6f772d6c6576656c2063616c6c206661696c65646000830152602082019050919050565b60006124ac602f83612a5b565b91507f4f6e6c792074686520636f6e7472616374206f776e6572206d6179207065726660008301527f6f726d207468697320616374696f6e00000000000000000000000000000000006020830152604082019050919050565b6000612512601183612a5b565b91507f43616e6e6f7420776974686472617720300000000000000000000000000000006000830152602082019050919050565b6000612552602183612a5b565b91507f536166654d6174683a206d756c7469706c69636174696f6e206f766572666c6f60008301527f77000000000000000000000000000000000000000000000000000000000000006020830152604082019050919050565b60006125b8603c83612a5b565b91507f5468697320616374696f6e2063616e6e6f7420626520706572666f726d65642060008301527f7768696c652074686520636f6e747261637420697320706175736564000000006020830152604082019050919050565b600061261e602a83612a5b565b91507f43616c6c6572206973206e6f742052657761726473446973747269627574696f60008301527f6e20636f6e7472616374000000000000000000000000000000000000000000006020830152604082019050919050565b6000612684602a83612a5b565b91507f5361666545524332303a204552433230206f7065726174696f6e20646964206e60008301527f6f742073756363656564000000000000000000000000000000000000000000006020830152604082019050919050565b60006126ea601f83612a5b565b91507f5265656e7472616e637947756172643a207265656e7472616e742063616c6c006000830152602082019050919050565b600061272a601f83612a5b565b91507f5361666545524332303a2063616c6c20746f206e6f6e2d636f6e7472616374006000830152602082019050919050565b61276681612bbf565b82525050565b60006127788284612274565b915081905092915050565b60006020820190506127986000830184612256565b92915050565b60006040820190506127b36000830185612256565b6127c06020830184612256565b9392505050565b60006060820190506127dc6000830186612256565b6127e96020830185612256565b6127f6604083018461275d565b949350505050565b60006040820190506128136000830185612256565b612820602083018461275d565b9392505050565b600060208201905061283c6000830184612265565b92915050565b600060208201905061285760008301846122a5565b92915050565b6000602082019050818103600083015261287781846122b4565b905092915050565b60006020820190508181036000830152612898816122ed565b9050919050565b600060208201905081810360008301526128b881612379565b9050919050565b600060208201905081810360008301526128d8816123df565b9050919050565b600060208201905081810360008301526128f88161241f565b9050919050565b600060208201905081810360008301526129188161245f565b9050919050565b600060208201905081810360008301526129388161249f565b9050919050565b6000602082019050818103600083015261295881612505565b9050919050565b6000602082019050818103600083015261297881612545565b9050919050565b60006020820190508181036000830152612998816125ab565b9050919050565b600060208201905081810360008301526129b881612611565b9050919050565b600060208201905081810360008301526129d881612677565b9050919050565b600060208201905081810360008301526129f8816126dd565b9050919050565b60006020820190508181036000830152612a188161271d565b9050919050565b6000602082019050612a34600083018461275d565b92915050565b600081519050919050565b600081519050919050565b600081905092915050565b600082825260208201905092915050565b6000612a7782612bbf565b9150612a8283612bbf565b9250827fffffffffffffffffffffffffffffffffffffffffffffffffffffffffffffffff03821115612ab757612ab6612c20565b5b828201905092915050565b6000612acd82612bbf565b9150612ad883612bbf565b925082612ae857612ae7612c4f565b5b828204905092915050565b6000612afe82612bbf565b9150612b0983612bbf565b9250817fffffffffffffffffffffffffffffffffffffffffffffffffffffffffffffffff0483118215151615612b4257612b41612c20565b5b828202905092915050565b6000612b5882612bbf565b9150612b6383612bbf565b925082821015612b7657612b75612c20565b5b828203905092915050565b6000612b8c82612b9f565b9050919050565b60008115159050919050565b600073ffffffffffffffffffffffffffffffffffffffff82169050919050565b6000819050919050565b6000612bd482612bdb565b9050919050565b6000612be682612b9f565b9050919050565b60005b83811015612c0b578082015181840152602081019050612bf0565b83811115612c1a576000848401525b50505050565b7f4e487b7100000000000000000000000000000000000000000000000000000000600052601160045260246000fd5b7f4e487b7100000000000000000000000000000000000000000000000000000000600052601260045260246000fd5b6000601f19601f8301169050919050565b612c9881612b81565b8114612ca357600080fd5b50565b612caf81612b93565b8114612cba57600080fd5b50565b612cc681612bbf565b8114612cd157600080fd5b5056fea264697066735822122013aa8aadae9334124559dc7e444251e621c521e081340f464a7b168846351e9464736f6c63430008000033",
  "immutableReferences": {},
  "source": "// SPDX-License-Identifier: GPL-3.0\n\npragma solidity ^0.8.0;\n\nimport \"./IRewardsDistributionRecipient.sol\";\nimport \"./SafeMath.sol\";\nimport \"./IERC20.sol\";\nimport \"./IStakingRewards.sol\";\nimport \"./ReentrancyGuard.sol\";\nimport \"./Pausable.sol\";\nimport \"./SafeERC.sol\";\nimport \"./Math.sol\";\n\n\n\n/*\n* MIT License\n* ===========\n*\n* Copyright (c) 2020 Synthetix\n*\n* Permission is hereby granted, free of charge, to any person obtaining a copy\n* of this software and associated documentation files (the \"Software\"), to deal\n* in the Software without restriction, including without limitation the rights\n* to use, copy, modify, merge, publish, distribute, sublicense, and/or sell\n* copies of the Software, and to permit persons to whom the Software is\n* furnished to do so, subject to the following conditions:\n*\n* The above copyright notice and this permission notice shall be included in all\n* copies or substantial portions of the Software.\n*\n* THE SOFTWARE IS PROVIDED \"AS IS\", WITHOUT WARRANTY OF ANY KIND, EXPRESS OR\n* IMPLIED, INCLUDING BUT NOT LIMITED TO THE WARRANTIES OF MERCHANTABILITY,\n* FITNESS FOR A PARTICULAR PURPOSE AND NONINFRINGEMENT. IN NO EVENT SHALL THE\n* AUTHORS OR COPYRIGHT HOLDERS BE LIABLE FOR ANY CLAIM, DAMAGES OR OTHER\n* LIABILITY, WHETHER IN AN ACTION OF CONTRACT, TORT OR OTHERWISE, ARISING FROM,\n* OUT OF OR IN CONNECTION WITH THE SOFTWARE OR THE USE OR OTHER DEALINGS IN THE\n*/\ncontract YOLOYearly is IStakingRewards, IRewardsDistributionRecipient, ReentrancyGuard, Pausable {\n\n    using SafeMath for uint256;\n    using SafeERC20 for IERC20;\n\n    /* ========== STATE VARIABLES ========== */\n\n    IERC20 public rewardsToken;\n    IERC20 public stakingToken;\n    uint256 public periodFinish = 0;\n    uint256 public rewardRate = 5;\n    uint256 public rewardsDuration = 365 days;\n    uint256 public lastUpdateTime;\n    uint256 public rewardPerTokenStored;\n    uint256 public _totalSupply;\n\n    address public burn = 0x000000000000000000000000000000000000dEaD;\n    mapping(address => uint256) public userRewardPerTokenPaid;\n    mapping(address => uint256) public rewards;\n\n    mapping(address => uint256) private _balances;\n    mapping(address => uint256) public stakeTime;\n\n    /* ========== CONSTRUCTOR ========== */\n\n    constructor(\n        address _owner,\n        address _rewardsDistribution,\n        address _rewardsToken,\n        address _stakingToken\n    ) public Owned(_owner) {\n        rewardsToken = IERC20(_rewardsToken);\n        stakingToken = IERC20(_stakingToken);\n        rewardsDistribution = _rewardsDistribution;\n    }\n\n    /* ========== VIEWS ========== */\n\n    function totalSupply() external override view returns (uint256) {\n        return _totalSupply;\n    }\n\n    function balanceOf(address account) external override view returns (uint256) {\n        return _balances[account];\n    }\n\n    function lastTimeRewardApplicable() public override view returns (uint256) {\n        return Math.min(block.timestamp, periodFinish);\n    }\n\n    function rewardPerToken() public override view returns (uint256) {\n        if (_totalSupply == 0) {\n            return rewardPerTokenStored;\n        }\n        return\n            rewardPerTokenStored.add(\n                lastTimeRewardApplicable().sub(lastUpdateTime).mul(rewardRate).mul(1e18).div(_totalSupply)\n            );\n    }\n\n    function earned(address account) public override view returns (uint256) {\n        return _balances[account].mul(rewardPerToken().sub(userRewardPerTokenPaid[account])).div(1e18).add(rewards[account]);\n    }\n\n    function getRewardForDuration() external override view returns (uint256) {\n        return rewardRate.mul(rewardsDuration);\n    }\n\n    /* ========== MUTATIVE FUNCTIONS ========== */\n\n    function stake(uint256 amount) external override nonReentrant notPaused updateReward(msg.sender) {\n        require(amount > 0, \"Cannot stake 0\");\n        _totalSupply = _totalSupply.add(amount);\n        _balances[msg.sender] = _balances[msg.sender].add(amount.sub(amount.div(25)));\n        _balances[rewardsDistribution] = _balances[rewardsDistribution].add(amount.div(25));\n        stakeTime[msg.sender] = block.timestamp + 365 days;\n        stakingToken.safeTransferFrom(msg.sender, address(this), amount);\n        emit Staked(msg.sender, amount);\n    }\n\n    function withdraw(uint256 amount) public override nonReentrant updateReward(msg.sender) {\n        require(amount > 0, \"Cannot withdraw 0\");\n        _totalSupply = _totalSupply.sub(amount);\n        _balances[msg.sender] = _balances[msg.sender].sub(amount);\n        if(msg.sender != rewardsDistribution) {\n            if(stakeTime[msg.sender] <= block.timestamp) {\n                stakingToken.safeTransfer(msg.sender, amount);\n            } else {\n                stakingToken.safeTransfer(msg.sender, amount.div(2));\n                stakingToken.safeTransfer(burn, amount.div(2));\n            }\n        }\n        \n\n        emit Withdrawn(msg.sender, amount);\n    }\n\n    function getReward() public override nonReentrant updateReward(msg.sender) {\n        uint256 reward = rewards[msg.sender];\n        if (reward > 0) {\n          rewards[msg.sender] = 0;\n          rewardsToken.safeTransfer(msg.sender, reward);\n          emit RewardPaid(msg.sender, reward);\n        }\n    }\n\n    function exit() external override {\n        withdraw(_balances[msg.sender]);\n        getReward();\n    }\n\n    /* ========== RESTRICTED FUNCTIONS ========== */\n\n    function notifyRewardAmount(uint256 reward) external override onlyRewardsDistribution updateReward(address(0)) {\n        if (block.timestamp >= periodFinish) {\n            rewardRate = reward.div(rewardsDuration);\n        } else {\n            uint256 remaining = periodFinish.sub(block.timestamp);\n            uint256 leftover = remaining.mul(rewardRate);\n            rewardRate = reward.add(leftover).div(rewardsDuration);\n        }\n\n        // Ensure the provided reward amount is not more than the balance in the contract.\n        // This keeps the reward rate in the right range, preventing overflows due to\n        // very high values of rewardRate in the earned and rewardsPerToken functions;\n        // Reward + leftover must be less than 2^256 / 10^18 to avoid overflow.\n        //uint balance = rewardsToken.balanceOf(address(this));\n        //require(rewardRate <= balance.div(rewardsDuration), \"Provided reward too high\");\n\n        lastUpdateTime = block.timestamp;\n        periodFinish = block.timestamp.add(rewardsDuration);\n        emit RewardAdded(reward);\n    }\n\n    function setRewardsDuration(uint256 _rewardsDuration) external onlyOwner {\n        require(block.timestamp > periodFinish,\n            \"Previous rewards period must be complete before changing the duration for the new period\"\n        );\n        rewardsDuration = _rewardsDuration;\n        emit RewardsDurationUpdated(rewardsDuration);\n    }\n\n    /* ========== MODIFIERS ========== */\n\n    modifier updateReward(address account) {\n        rewardPerTokenStored = rewardPerToken();\n        lastUpdateTime = lastTimeRewardApplicable();\n        if (account != address(0)) {\n            rewards[account] = earned(account);\n            userRewardPerTokenPaid[account] = rewardPerTokenStored;\n        }\n        _;\n    }\n\n    /* ========== EVENTS ========== */\n\n    event RewardAdded(uint256 reward);\n    event Staked(address indexed user, uint256 amount);\n    event Withdrawn(address indexed user, uint256 amount);\n    event RewardPaid(address indexed user, uint256 reward);\n    event RewardsDurationUpdated(uint256 newDuration);\n}\n",
  "sourcePath": "D:/fiverr/marchAngeloh/Assignment1/Integrated-pack/contracts/YOLOYearly.sol",
  "compiler": {
    "name": "solc",
    "version": "0.8.0+commit.c7dfd78e.Emscripten.clang"
  },
  "schemaVersion": "3.3.4",
  "updatedAt": "2021-05-18T15:17:47.309Z",
  "networkType": "ethereum",
  "devdoc": {
    "kind": "dev",
    "methods": {
      "setPaused(bool)": {
        "details": "Only the contract owner may call this."
      }
    },
    "version": 1
  },
  "userdoc": {
    "kind": "user",
    "methods": {
      "setPaused(bool)": {
        "notice": "Change the paused state of the contract"
      }
    },
    "version": 1
  }
}